{
  "abi": [
    {
      "anonymous": false,
      "inputs": [
        {
          "indexed": false,
          "internalType": "string",
          "name": "productId",
          "type": "string"
        },
        {
          "indexed": false,
          "internalType": "string",
          "name": "newName",
          "type": "string"
        }
      ],
      "name": "ManufacturerNameUpdated",
      "type": "event"
    },
    {
      "anonymous": false,
      "inputs": [
        {
          "indexed": false,
          "internalType": "string",
          "name": "productId",
          "type": "string"
        },
        {
          "indexed": false,
          "internalType": "address",
          "name": "owner",
          "type": "address"
        },
        {
          "indexed": false,
          "internalType": "uint256",
          "name": "timestamp",
          "type": "uint256"
        }
      ],
      "name": "ProductClaimed",
      "type": "event"
    },
    {
      "anonymous": false,
      "inputs": [
        {
          "indexed": false,
          "internalType": "string",
          "name": "productId",
          "type": "string"
        },
        {
          "indexed": false,
          "internalType": "string",
          "name": "batchNumber",
          "type": "string"
        },
        {
          "indexed": false,
          "internalType": "address",
          "name": "manufacturer",
          "type": "address"
        },
        {
          "indexed": false,
          "internalType": "uint256",
          "name": "timestamp",
          "type": "uint256"
        }
      ],
      "name": "ProductRegistered",
      "type": "event"
    },
    {
      "inputs": [
        {
          "internalType": "string",
          "name": "",
          "type": "string"
        },
        {
          "internalType": "uint256",
          "name": "",
          "type": "uint256"
        }
      ],
      "name": "batchProducts",
      "outputs": [
        {
          "internalType": "string",
          "name": "",
          "type": "string"
        }
      ],
      "stateMutability": "view",
      "type": "function"
    },
    {
      "inputs": [
        {
          "internalType": "string",
          "name": "productId",
          "type": "string"
        },
        {
          "internalType": "string",
          "name": "ownerName",
          "type": "string"
        }
      ],
      "name": "claimProduct",
      "outputs": [],
      "stateMutability": "nonpayable",
      "type": "function"
    },
    {
      "inputs": [
        {
          "internalType": "address",
          "name": "manufacturer",
          "type": "address"
        }
      ],
      "name": "getManufacturerProducts",
      "outputs": [
        {
          "internalType": "string[]",
          "name": "",
          "type": "string[]"
        }
      ],
      "stateMutability": "view",
      "type": "function"
    },
    {
      "inputs": [
        {
          "internalType": "address",
          "name": "owner",
          "type": "address"
        }
      ],
      "name": "getOwnerProducts",
      "outputs": [
        {
          "internalType": "string[]",
          "name": "",
          "type": "string[]"
        }
      ],
      "stateMutability": "view",
      "type": "function"
    },
    {
      "inputs": [
        {
          "internalType": "string",
          "name": "productId",
          "type": "string"
        }
      ],
      "name": "getProductBatch",
      "outputs": [
        {
          "internalType": "string",
          "name": "",
          "type": "string"
        }
      ],
      "stateMutability": "view",
      "type": "function"
    },
    {
      "inputs": [
        {
          "internalType": "string",
          "name": "batchNumber",
          "type": "string"
        }
      ],
      "name": "getProductsByBatch",
      "outputs": [
        {
          "internalType": "string[]",
          "name": "",
          "type": "string[]"
        }
      ],
      "stateMutability": "view",
      "type": "function"
    },
    {
      "inputs": [
        {
          "internalType": "string",
          "name": "productId",
          "type": "string"
        }
      ],
      "name": "getRegistrationDate",
      "outputs": [
        {
          "internalType": "string",
          "name": "",
          "type": "string"
        }
      ],
      "stateMutability": "view",
      "type": "function"
    },
    {
      "inputs": [
        {
          "internalType": "string",
          "name": "productId",
          "type": "string"
        }
      ],
      "name": "getRegistrationTimestamp",
      "outputs": [
        {
          "internalType": "uint256",
          "name": "",
          "type": "uint256"
        }
      ],
      "stateMutability": "view",
      "type": "function"
    },
    {
      "inputs": [
        {
          "internalType": "string",
          "name": "productId",
          "type": "string"
        }
      ],
      "name": "isProductClaimed",
      "outputs": [
        {
          "internalType": "bool",
          "name": "",
          "type": "bool"
        }
      ],
      "stateMutability": "view",
      "type": "function"
    },
    {
      "inputs": [
        {
          "internalType": "string",
          "name": "productId",
          "type": "string"
        }
      ],
      "name": "isProductRegistered",
      "outputs": [
        {
          "internalType": "bool",
          "name": "",
          "type": "bool"
        }
      ],
      "stateMutability": "view",
      "type": "function"
    },
    {
      "inputs": [
        {
          "internalType": "address",
          "name": "",
          "type": "address"
        },
        {
          "internalType": "uint256",
          "name": "",
          "type": "uint256"
        }
      ],
      "name": "manufacturerProducts",
      "outputs": [
        {
          "internalType": "string",
          "name": "",
          "type": "string"
        }
      ],
      "stateMutability": "view",
      "type": "function"
    },
    {
      "inputs": [
        {
          "internalType": "address",
          "name": "",
          "type": "address"
        },
        {
          "internalType": "uint256",
          "name": "",
          "type": "uint256"
        }
      ],
      "name": "ownerProducts",
      "outputs": [
        {
          "internalType": "string",
          "name": "",
          "type": "string"
        }
      ],
      "stateMutability": "view",
      "type": "function"
    },
    {
      "inputs": [
        {
          "internalType": "string",
          "name": "",
          "type": "string"
        }
      ],
      "name": "products",
      "outputs": [
        {
          "internalType": "string",
          "name": "name",
          "type": "string"
        },
        {
          "internalType": "string",
          "name": "batchNumber",
          "type": "string"
        },
        {
          "internalType": "address",
          "name": "manufacturer",
          "type": "address"
        },
        {
          "internalType": "string",
          "name": "manufacturerName",
          "type": "string"
        },
        {
          "internalType": "address",
          "name": "owner",
          "type": "address"
        },
        {
          "internalType": "string",
          "name": "ownerName",
          "type": "string"
        },
        {
          "internalType": "bool",
          "name": "isRegistered",
          "type": "bool"
        },
        {
          "internalType": "bool",
          "name": "isClaimed",
          "type": "bool"
        },
        {
          "internalType": "uint256",
          "name": "registrationTimestamp",
          "type": "uint256"
        }
      ],
      "stateMutability": "view",
      "type": "function"
    },
    {
      "inputs": [
        {
          "internalType": "string",
          "name": "productId",
          "type": "string"
        },
        {
          "internalType": "string",
          "name": "name",
          "type": "string"
        },
        {
          "internalType": "string",
          "name": "batchNumber",
          "type": "string"
        },
        {
          "internalType": "string",
          "name": "manufacturerName",
          "type": "string"
        }
      ],
      "name": "registerProduct",
      "outputs": [],
      "stateMutability": "nonpayable",
      "type": "function"
    }
  ],
  "devdoc": {
    "kind": "dev",
    "methods": {},
    "version": 1
  },
  "evm": {
    "assembly": "    /* \"ProductRegistry.sol\":57:6271  contract ProductRegistry {... */\n  mstore(0x40, 0x80)\n  callvalue\n  dup1\n  iszero\n  tag_1\n  jumpi\n  0x00\n  dup1\n  revert\ntag_1:\n  pop\n  dataSize(sub_0)\n  dup1\n  dataOffset(sub_0)\n  0x00\n  codecopy\n  0x00\n  return\nstop\n\nsub_0: assembly {\n        /* \"ProductRegistry.sol\":57:6271  contract ProductRegistry {... */\n      mstore(0x40, 0x80)\n      callvalue\n      dup1\n      iszero\n      tag_1\n      jumpi\n      0x00\n      dup1\n      revert\n    tag_1:\n      pop\n      jumpi(tag_2, lt(calldatasize, 0x04))\n      shr(0xe0, calldataload(0x00))\n      dup1\n      0x7382e17a\n      gt\n      tag_17\n      jumpi\n      dup1\n      0xa7590f7d\n      gt\n      tag_18\n      jumpi\n      dup1\n      0xa7590f7d\n      eq\n      tag_13\n      jumpi\n      dup1\n      0xa7800164\n      eq\n      tag_14\n      jumpi\n      dup1\n      0xe6d012a2\n      eq\n      tag_15\n      jumpi\n      dup1\n      0xf3e25411\n      eq\n      tag_16\n      jumpi\n      0x00\n      dup1\n      revert\n    tag_18:\n      dup1\n      0x7382e17a\n      eq\n      tag_10\n      jumpi\n      dup1\n      0x8799d6fc\n      eq\n      tag_11\n      jumpi\n      dup1\n      0x8bce12a3\n      eq\n      tag_12\n      jumpi\n      0x00\n      dup1\n      revert\n    tag_17:\n      dup1\n      0x1e764d45\n      gt\n      tag_19\n      jumpi\n      dup1\n      0x1e764d45\n      eq\n      tag_6\n      jumpi\n      dup1\n      0x2b85064b\n      eq\n      tag_7\n      jumpi\n      dup1\n      0x5fe2b9ce\n      eq\n      tag_8\n      jumpi\n      dup1\n      0x71014bcd\n      eq\n      tag_9\n      jumpi\n      0x00\n      dup1\n      revert\n    tag_19:\n      dup1\n      0x0186a423\n      eq\n      tag_3\n      jumpi\n      dup1\n      0x10f6fdfc\n      eq\n      tag_4\n      jumpi\n      dup1\n      0x1d4f0d5c\n      eq\n      tag_5\n      jumpi\n    tag_2:\n      0x00\n      dup1\n      revert\n        /* \"ProductRegistry.sol\":413:455  mapping(string => Product) public products */\n    tag_3:\n      tag_20\n      tag_21\n      calldatasize\n      0x04\n      tag_22\n      jump\t// in\n    tag_21:\n      tag_23\n      jump\t// in\n    tag_20:\n      mload(0x40)\n      tag_24\n      swap10\n      swap9\n      swap8\n      swap7\n      swap6\n      swap5\n      swap4\n      swap3\n      swap2\n      swap1\n      tag_25\n      jump\t// in\n    tag_24:\n      mload(0x40)\n      dup1\n      swap2\n      sub\n      swap1\n      return\n        /* \"ProductRegistry.sol\":2897:3146  function getRegistrationDate(string memory productId) public view returns (string memory) {... */\n    tag_4:\n      tag_26\n      tag_27\n      calldatasize\n      0x04\n      tag_22\n      jump\t// in\n    tag_27:\n      tag_28\n      jump\t// in\n    tag_26:\n      mload(0x40)\n      tag_24\n      swap2\n      swap1\n      tag_30\n      jump\t// in\n        /* \"ProductRegistry.sol\":5263:5386  function getOwnerProducts(address owner) public view returns (string[] memory) {... */\n    tag_5:\n      tag_31\n      tag_32\n      calldatasize\n      0x04\n      tag_33\n      jump\t// in\n    tag_32:\n      tag_34\n      jump\t// in\n    tag_31:\n      mload(0x40)\n      tag_24\n      swap2\n      swap1\n      tag_36\n      jump\t// in\n        /* \"ProductRegistry.sol\":5432:5569  function isProductRegistered(string memory productId) public view returns (bool) {... */\n    tag_6:\n      tag_37\n      tag_38\n      calldatasize\n      0x04\n      tag_22\n      jump\t// in\n    tag_38:\n      tag_39\n      jump\t// in\n    tag_37:\n      mload(0x40)\n        /* \"#utility.yul\":4353:4367   */\n      swap1\n      iszero\n        /* \"#utility.yul\":4346:4368   */\n      iszero\n        /* \"#utility.yul\":4328:4369   */\n      dup2\n      mstore\n        /* \"#utility.yul\":4316:4318   */\n      0x20\n        /* \"#utility.yul\":4301:4319   */\n      add\n        /* \"ProductRegistry.sol\":5432:5569  function isProductRegistered(string memory productId) public view returns (bool) {... */\n      tag_24\n        /* \"#utility.yul\":4188:4375   */\n      jump\n        /* \"ProductRegistry.sol\":5613:5756  function getProductsByBatch(string memory batchNumber) public view returns (string[] memory) {... */\n    tag_7:\n      tag_31\n      tag_43\n      calldatasize\n      0x04\n      tag_22\n      jump\t// in\n    tag_43:\n      tag_44\n      jump\t// in\n        /* \"ProductRegistry.sol\":461:517  mapping(address => string[]) public manufacturerProducts */\n    tag_8:\n      tag_26\n      tag_47\n      calldatasize\n      0x04\n      tag_48\n      jump\t// in\n    tag_47:\n      tag_49\n      jump\t// in\n        /* \"ProductRegistry.sol\":6061:6269  function isProductClaimed(string memory productId) public view returns (bool) {... */\n    tag_9:\n      tag_37\n      tag_52\n      calldatasize\n      0x04\n      tag_22\n      jump\t// in\n    tag_52:\n      tag_53\n      jump\t// in\n        /* \"ProductRegistry.sol\":5106:5257  function getManufacturerProducts(address manufacturer) public view returns (string[] memory) {... */\n    tag_10:\n      tag_31\n      tag_56\n      calldatasize\n      0x04\n      tag_33\n      jump\t// in\n    tag_56:\n      tag_57\n      jump\t// in\n        /* \"ProductRegistry.sol\":1015:2096  function registerProduct(... */\n    tag_11:\n      tag_59\n      tag_60\n      calldatasize\n      0x04\n      tag_61\n      jump\t// in\n    tag_60:\n      tag_62\n      jump\t// in\n    tag_59:\n      stop\n        /* \"ProductRegistry.sol\":5800:6018  function getProductBatch(string memory productId) public view returns (string memory) {... */\n    tag_12:\n      tag_26\n      tag_64\n      calldatasize\n      0x04\n      tag_22\n      jump\t// in\n    tag_64:\n      tag_65\n      jump\t// in\n        /* \"ProductRegistry.sol\":578:626  mapping(string => string[]) public batchProducts */\n    tag_13:\n      tag_26\n      tag_68\n      calldatasize\n      0x04\n      tag_69\n      jump\t// in\n    tag_68:\n      tag_70\n      jump\t// in\n        /* \"ProductRegistry.sol\":523:572  mapping(address => string[]) public ownerProducts */\n    tag_14:\n      tag_26\n      tag_73\n      calldatasize\n      0x04\n      tag_48\n      jump\t// in\n    tag_73:\n      tag_74\n      jump\t// in\n        /* \"ProductRegistry.sol\":3177:3408  function getRegistrationTimestamp(string memory productId) public view returns (uint256) {... */\n    tag_15:\n      tag_76\n      tag_77\n      calldatasize\n      0x04\n      tag_22\n      jump\t// in\n    tag_77:\n      tag_78\n      jump\t// in\n    tag_76:\n      mload(0x40)\n        /* \"#utility.yul\":6129:6154   */\n      swap1\n      dup2\n      mstore\n        /* \"#utility.yul\":6117:6119   */\n      0x20\n        /* \"#utility.yul\":6102:6120   */\n      add\n        /* \"ProductRegistry.sol\":3177:3408  function getRegistrationTimestamp(string memory productId) public view returns (uint256) {... */\n      tag_24\n        /* \"#utility.yul\":5983:6160   */\n      jump\n        /* \"ProductRegistry.sol\":2136:2842  function claimProduct(... */\n    tag_16:\n      tag_59\n      tag_82\n      calldatasize\n      0x04\n      tag_83\n      jump\t// in\n    tag_82:\n      tag_84\n      jump\t// in\n        /* \"ProductRegistry.sol\":413:455  mapping(string => Product) public products */\n    tag_23:\n      dup1\n      mload\n      0x20\n      dup2\n      dup4\n      add\n      dup2\n      add\n      dup1\n      mload\n      0x00\n      dup3\n      mstore\n      swap3\n      dup3\n      add\n      swap2\n      swap1\n      swap4\n      add\n      keccak256\n      swap2\n      mstore\n      dup1\n      sload\n      dup2\n      swap1\n      tag_85\n      swap1\n      tag_86\n      jump\t// in\n    tag_85:\n      dup1\n      0x1f\n      add\n      0x20\n      dup1\n      swap2\n      div\n      mul\n      0x20\n      add\n      mload(0x40)\n      swap1\n      dup2\n      add\n      0x40\n      mstore\n      dup1\n      swap3\n      swap2\n      swap1\n      dup2\n      dup2\n      mstore\n      0x20\n      add\n      dup3\n      dup1\n      sload\n      tag_87\n      swap1\n      tag_86\n      jump\t// in\n    tag_87:\n      dup1\n      iszero\n      tag_88\n      jumpi\n      dup1\n      0x1f\n      lt\n      tag_89\n      jumpi\n      0x0100\n      dup1\n      dup4\n      sload\n      div\n      mul\n      dup4\n      mstore\n      swap2\n      0x20\n      add\n      swap2\n      jump(tag_88)\n    tag_89:\n      dup3\n      add\n      swap2\n      swap1\n      0x00\n      mstore\n      keccak256(0x00, 0x20)\n      swap1\n    tag_90:\n      dup2\n      sload\n      dup2\n      mstore\n      swap1\n      0x01\n      add\n      swap1\n      0x20\n      add\n      dup1\n      dup4\n      gt\n      tag_90\n      jumpi\n      dup3\n      swap1\n      sub\n      0x1f\n      and\n      dup3\n      add\n      swap2\n    tag_88:\n      pop\n      pop\n      pop\n      pop\n      pop\n      swap1\n      dup1\n      0x01\n      add\n      dup1\n      sload\n      tag_91\n      swap1\n      tag_86\n      jump\t// in\n    tag_91:\n      dup1\n      0x1f\n      add\n      0x20\n      dup1\n      swap2\n      div\n      mul\n      0x20\n      add\n      mload(0x40)\n      swap1\n      dup2\n      add\n      0x40\n      mstore\n      dup1\n      swap3\n      swap2\n      swap1\n      dup2\n      dup2\n      mstore\n      0x20\n      add\n      dup3\n      dup1\n      sload\n      tag_92\n      swap1\n      tag_86\n      jump\t// in\n    tag_92:\n      dup1\n      iszero\n      tag_93\n      jumpi\n      dup1\n      0x1f\n      lt\n      tag_94\n      jumpi\n      0x0100\n      dup1\n      dup4\n      sload\n      div\n      mul\n      dup4\n      mstore\n      swap2\n      0x20\n      add\n      swap2\n      jump(tag_93)\n    tag_94:\n      dup3\n      add\n      swap2\n      swap1\n      0x00\n      mstore\n      keccak256(0x00, 0x20)\n      swap1\n    tag_95:\n      dup2\n      sload\n      dup2\n      mstore\n      swap1\n      0x01\n      add\n      swap1\n      0x20\n      add\n      dup1\n      dup4\n      gt\n      tag_95\n      jumpi\n      dup3\n      swap1\n      sub\n      0x1f\n      and\n      dup3\n      add\n      swap2\n    tag_93:\n      pop\n      pop\n      pop\n      0x02\n      dup5\n      add\n      sload\n      0x03\n      dup6\n      add\n      dup1\n      sload\n      swap5\n      swap6\n      sub(shl(0xa0, 0x01), 0x01)\n      swap1\n      swap3\n      and\n      swap5\n      swap2\n      swap4\n      pop\n      swap2\n      pop\n      tag_96\n      swap1\n      tag_86\n      jump\t// in\n    tag_96:\n      dup1\n      0x1f\n      add\n      0x20\n      dup1\n      swap2\n      div\n      mul\n      0x20\n      add\n      mload(0x40)\n      swap1\n      dup2\n      add\n      0x40\n      mstore\n      dup1\n      swap3\n      swap2\n      swap1\n      dup2\n      dup2\n      mstore\n      0x20\n      add\n      dup3\n      dup1\n      sload\n      tag_97\n      swap1\n      tag_86\n      jump\t// in\n    tag_97:\n      dup1\n      iszero\n      tag_98\n      jumpi\n      dup1\n      0x1f\n      lt\n      tag_99\n      jumpi\n      0x0100\n      dup1\n      dup4\n      sload\n      div\n      mul\n      dup4\n      mstore\n      swap2\n      0x20\n      add\n      swap2\n      jump(tag_98)\n    tag_99:\n      dup3\n      add\n      swap2\n      swap1\n      0x00\n      mstore\n      keccak256(0x00, 0x20)\n      swap1\n    tag_100:\n      dup2\n      sload\n      dup2\n      mstore\n      swap1\n      0x01\n      add\n      swap1\n      0x20\n      add\n      dup1\n      dup4\n      gt\n      tag_100\n      jumpi\n      dup3\n      swap1\n      sub\n      0x1f\n      and\n      dup3\n      add\n      swap2\n    tag_98:\n      pop\n      pop\n      pop\n      0x04\n      dup5\n      add\n      sload\n      0x05\n      dup6\n      add\n      dup1\n      sload\n      swap5\n      swap6\n      sub(shl(0xa0, 0x01), 0x01)\n      swap1\n      swap3\n      and\n      swap5\n      swap2\n      swap4\n      pop\n      swap2\n      pop\n      tag_101\n      swap1\n      tag_86\n      jump\t// in\n    tag_101:\n      dup1\n      0x1f\n      add\n      0x20\n      dup1\n      swap2\n      div\n      mul\n      0x20\n      add\n      mload(0x40)\n      swap1\n      dup2\n      add\n      0x40\n      mstore\n      dup1\n      swap3\n      swap2\n      swap1\n      dup2\n      dup2\n      mstore\n      0x20\n      add\n      dup3\n      dup1\n      sload\n      tag_102\n      swap1\n      tag_86\n      jump\t// in\n    tag_102:\n      dup1\n      iszero\n      tag_103\n      jumpi\n      dup1\n      0x1f\n      lt\n      tag_104\n      jumpi\n      0x0100\n      dup1\n      dup4\n      sload\n      div\n      mul\n      dup4\n      mstore\n      swap2\n      0x20\n      add\n      swap2\n      jump(tag_103)\n    tag_104:\n      dup3\n      add\n      swap2\n      swap1\n      0x00\n      mstore\n      keccak256(0x00, 0x20)\n      swap1\n    tag_105:\n      dup2\n      sload\n      dup2\n      mstore\n      swap1\n      0x01\n      add\n      swap1\n      0x20\n      add\n      dup1\n      dup4\n      gt\n      tag_105\n      jumpi\n      dup3\n      swap1\n      sub\n      0x1f\n      and\n      dup3\n      add\n      swap2\n    tag_103:\n      pop\n      pop\n      pop\n      pop\n      0x06\n      dup4\n      add\n      sload\n      0x07\n      swap1\n      swap4\n      add\n      sload\n      swap2\n      swap3\n      0xff\n      dup1\n      dup3\n      and\n      swap4\n      0x0100\n      swap1\n      swap3\n      div\n      and\n      swap2\n      pop\n      dup10\n      jump\t// out\n        /* \"ProductRegistry.sol\":2897:3146  function getRegistrationDate(string memory productId) public view returns (string memory) {... */\n    tag_28:\n        /* \"ProductRegistry.sol\":2972:2985  string memory */\n      0x60\n        /* \"ProductRegistry.sol\":3005:3013  products */\n      0x00\n        /* \"ProductRegistry.sol\":3014:3023  productId */\n      dup3\n        /* \"ProductRegistry.sol\":3005:3024  products[productId] */\n      mload(0x40)\n      tag_107\n      swap2\n      swap1\n      tag_108\n      jump\t// in\n    tag_107:\n      swap1\n      dup2\n      mstore\n      mload(0x40)\n      swap1\n      dup2\n      swap1\n      sub\n      0x20\n      add\n      swap1\n      keccak256\n        /* \"ProductRegistry.sol\":3005:3037  products[productId].isRegistered */\n      0x06\n      add\n      sload\n      0xff\n      and\n        /* \"ProductRegistry.sol\":2997:3064  require(products[productId].isRegistered, \"Product not registered\") */\n      tag_109\n      jumpi\n      mload(0x40)\n      shl(0xe5, 0x461bcd)\n      dup2\n      mstore\n        /* \"#utility.yul\":7714:7716   */\n      0x20\n        /* \"ProductRegistry.sol\":2997:3064  require(products[productId].isRegistered, \"Product not registered\") */\n      0x04\n      dup3\n      add\n        /* \"#utility.yul\":7696:7717   */\n      mstore\n        /* \"#utility.yul\":7753:7755   */\n      0x16\n        /* \"#utility.yul\":7733:7751   */\n      0x24\n      dup3\n      add\n        /* \"#utility.yul\":7726:7756   */\n      mstore\n      shl(0x52, 0x141c9bd91d58dd081b9bdd081c9959da5cdd195c9959)\n        /* \"#utility.yul\":7772:7790   */\n      0x44\n      dup3\n      add\n        /* \"#utility.yul\":7765:7817   */\n      mstore\n        /* \"#utility.yul\":7834:7852   */\n      0x64\n      add\n        /* \"ProductRegistry.sol\":2997:3064  require(products[productId].isRegistered, \"Product not registered\") */\n    tag_110:\n      mload(0x40)\n      dup1\n      swap2\n      sub\n      swap1\n      revert\n    tag_109:\n        /* \"ProductRegistry.sol\":3081:3139  timestampToDate(products[productId].registrationTimestamp) */\n      tag_112\n        /* \"ProductRegistry.sol\":3097:3105  products */\n      0x00\n        /* \"ProductRegistry.sol\":3106:3115  productId */\n      dup4\n        /* \"ProductRegistry.sol\":3097:3116  products[productId] */\n      mload(0x40)\n      tag_113\n      swap2\n      swap1\n      tag_108\n      jump\t// in\n    tag_113:\n      swap1\n      dup2\n      mstore\n      0x20\n      add\n      mload(0x40)\n      dup1\n      swap2\n      sub\n      swap1\n      keccak256\n        /* \"ProductRegistry.sol\":3097:3138  products[productId].registrationTimestamp */\n      0x07\n      add\n      sload\n        /* \"ProductRegistry.sol\":3081:3096  timestampToDate */\n      tag_114\n        /* \"ProductRegistry.sol\":3081:3139  timestampToDate(products[productId].registrationTimestamp) */\n      jump\t// in\n    tag_112:\n        /* \"ProductRegistry.sol\":3074:3139  return timestampToDate(products[productId].registrationTimestamp) */\n      swap3\n        /* \"ProductRegistry.sol\":2897:3146  function getRegistrationDate(string memory productId) public view returns (string memory) {... */\n      swap2\n      pop\n      pop\n      jump\t// out\n        /* \"ProductRegistry.sol\":5263:5386  function getOwnerProducts(address owner) public view returns (string[] memory) {... */\n    tag_34:\n      sub(shl(0xa0, 0x01), 0x01)\n        /* \"ProductRegistry.sol\":5359:5379  ownerProducts[owner] */\n      dup2\n      and\n      0x00\n      swap1\n      dup2\n      mstore\n        /* \"ProductRegistry.sol\":5359:5372  ownerProducts */\n      0x02\n        /* \"ProductRegistry.sol\":5359:5379  ownerProducts[owner] */\n      0x20\n      swap1\n      dup2\n      mstore\n      0x40\n      dup1\n      dup4\n      keccak256\n        /* \"ProductRegistry.sol\":5352:5379  return ownerProducts[owner] */\n      dup1\n      sload\n      dup3\n      mload\n      dup2\n      dup6\n      mul\n      dup2\n      add\n      dup6\n      add\n      swap1\n      swap4\n      mstore\n      dup1\n      dup4\n      mstore\n        /* \"ProductRegistry.sol\":5325:5340  string[] memory */\n      0x60\n      swap5\n        /* \"ProductRegistry.sol\":5352:5379  return ownerProducts[owner] */\n      swap3\n      swap4\n        /* \"ProductRegistry.sol\":5359:5379  ownerProducts[owner] */\n      swap2\n      swap3\n        /* \"ProductRegistry.sol\":5352:5379  return ownerProducts[owner] */\n      swap1\n      swap2\n      dup5\n      add\n    tag_116:\n      dup3\n      dup3\n      lt\n      iszero\n      tag_117\n      jumpi\n      dup4\n      dup3\n      swap1\n      0x00\n      mstore\n      keccak256(0x00, 0x20)\n      add\n      dup1\n      sload\n      tag_119\n      swap1\n      tag_86\n      jump\t// in\n    tag_119:\n      dup1\n      0x1f\n      add\n      0x20\n      dup1\n      swap2\n      div\n      mul\n      0x20\n      add\n      mload(0x40)\n      swap1\n      dup2\n      add\n      0x40\n      mstore\n      dup1\n      swap3\n      swap2\n      swap1\n      dup2\n      dup2\n      mstore\n      0x20\n      add\n      dup3\n      dup1\n      sload\n      tag_120\n      swap1\n      tag_86\n      jump\t// in\n    tag_120:\n      dup1\n      iszero\n      tag_121\n      jumpi\n      dup1\n      0x1f\n      lt\n      tag_122\n      jumpi\n      0x0100\n      dup1\n      dup4\n      sload\n      div\n      mul\n      dup4\n      mstore\n      swap2\n      0x20\n      add\n      swap2\n      jump(tag_121)\n    tag_122:\n      dup3\n      add\n      swap2\n      swap1\n      0x00\n      mstore\n      keccak256(0x00, 0x20)\n      swap1\n    tag_123:\n      dup2\n      sload\n      dup2\n      mstore\n      swap1\n      0x01\n      add\n      swap1\n      0x20\n      add\n      dup1\n      dup4\n      gt\n      tag_123\n      jumpi\n      dup3\n      swap1\n      sub\n      0x1f\n      and\n      dup3\n      add\n      swap2\n    tag_121:\n      pop\n      pop\n      pop\n      pop\n      pop\n      dup2\n      mstore\n      0x20\n      add\n      swap1\n      0x01\n      add\n      swap1\n      jump(tag_116)\n    tag_117:\n      pop\n      pop\n      pop\n      pop\n      swap1\n      pop\n        /* \"ProductRegistry.sol\":5263:5386  function getOwnerProducts(address owner) public view returns (string[] memory) {... */\n      swap2\n      swap1\n      pop\n      jump\t// out\n        /* \"ProductRegistry.sol\":5432:5569  function isProductRegistered(string memory productId) public view returns (bool) {... */\n    tag_39:\n        /* \"ProductRegistry.sol\":5507:5511  bool */\n      0x00\n        /* \"ProductRegistry.sol\":5530:5538  products */\n      dup1\n        /* \"ProductRegistry.sol\":5539:5548  productId */\n      dup3\n        /* \"ProductRegistry.sol\":5530:5549  products[productId] */\n      mload(0x40)\n      tag_125\n      swap2\n      swap1\n      tag_108\n      jump\t// in\n    tag_125:\n      swap1\n      dup2\n      mstore\n      mload(0x40)\n      swap1\n      dup2\n      swap1\n      sub\n      0x20\n      add\n      swap1\n      keccak256\n        /* \"ProductRegistry.sol\":5530:5562  products[productId].isRegistered */\n      0x06\n      add\n      sload\n      0xff\n      and\n      swap3\n        /* \"ProductRegistry.sol\":5432:5569  function isProductRegistered(string memory productId) public view returns (bool) {... */\n      swap2\n      pop\n      pop\n      jump\t// out\n        /* \"ProductRegistry.sol\":5613:5756  function getProductsByBatch(string memory batchNumber) public view returns (string[] memory) {... */\n    tag_44:\n        /* \"ProductRegistry.sol\":5689:5704  string[] memory */\n      0x60\n        /* \"ProductRegistry.sol\":5723:5736  batchProducts */\n      0x03\n        /* \"ProductRegistry.sol\":5737:5748  batchNumber */\n      dup3\n        /* \"ProductRegistry.sol\":5723:5749  batchProducts[batchNumber] */\n      mload(0x40)\n      tag_127\n      swap2\n      swap1\n      tag_108\n      jump\t// in\n    tag_127:\n      swap1\n      dup2\n      mstore\n      0x20\n      add\n      mload(0x40)\n      dup1\n      swap2\n      sub\n      swap1\n      keccak256\n        /* \"ProductRegistry.sol\":5716:5749  return batchProducts[batchNumber] */\n      dup1\n      sload\n      dup1\n      0x20\n      mul\n      0x20\n      add\n      mload(0x40)\n      swap1\n      dup2\n      add\n      0x40\n      mstore\n      dup1\n      swap3\n      swap2\n      swap1\n      dup2\n      dup2\n      mstore\n      0x20\n      add\n      0x00\n      swap1\n    tag_128:\n      dup3\n      dup3\n      lt\n      iszero\n      tag_117\n      jumpi\n      dup4\n      dup3\n      swap1\n      0x00\n      mstore\n      keccak256(0x00, 0x20)\n      add\n      dup1\n      sload\n      tag_131\n      swap1\n      tag_86\n      jump\t// in\n    tag_131:\n      dup1\n      0x1f\n      add\n      0x20\n      dup1\n      swap2\n      div\n      mul\n      0x20\n      add\n      mload(0x40)\n      swap1\n      dup2\n      add\n      0x40\n      mstore\n      dup1\n      swap3\n      swap2\n      swap1\n      dup2\n      dup2\n      mstore\n      0x20\n      add\n      dup3\n      dup1\n      sload\n      tag_132\n      swap1\n      tag_86\n      jump\t// in\n    tag_132:\n      dup1\n      iszero\n      tag_133\n      jumpi\n      dup1\n      0x1f\n      lt\n      tag_134\n      jumpi\n      0x0100\n      dup1\n      dup4\n      sload\n      div\n      mul\n      dup4\n      mstore\n      swap2\n      0x20\n      add\n      swap2\n      jump(tag_133)\n    tag_134:\n      dup3\n      add\n      swap2\n      swap1\n      0x00\n      mstore\n      keccak256(0x00, 0x20)\n      swap1\n    tag_135:\n      dup2\n      sload\n      dup2\n      mstore\n      swap1\n      0x01\n      add\n      swap1\n      0x20\n      add\n      dup1\n      dup4\n      gt\n      tag_135\n      jumpi\n      dup3\n      swap1\n      sub\n      0x1f\n      and\n      dup3\n      add\n      swap2\n    tag_133:\n      pop\n      pop\n      pop\n      pop\n      pop\n      dup2\n      mstore\n      0x20\n      add\n      swap1\n      0x01\n      add\n      swap1\n      jump(tag_128)\n        /* \"ProductRegistry.sol\":461:517  mapping(address => string[]) public manufacturerProducts */\n    tag_49:\n      mstore(0x20, 0x01)\n      dup2\n      0x00\n      mstore\n      keccak256(0x00, 0x40)\n      dup2\n      dup2\n      sload\n      dup2\n      lt\n      tag_136\n      jumpi\n      0x00\n      dup1\n      revert\n    tag_136:\n      swap1\n      0x00\n      mstore\n      keccak256(0x00, 0x20)\n      add\n      0x00\n      swap2\n      pop\n      swap2\n      pop\n      pop\n      dup1\n      sload\n      tag_138\n      swap1\n      tag_86\n      jump\t// in\n    tag_138:\n      dup1\n      0x1f\n      add\n      0x20\n      dup1\n      swap2\n      div\n      mul\n      0x20\n      add\n      mload(0x40)\n      swap1\n      dup2\n      add\n      0x40\n      mstore\n      dup1\n      swap3\n      swap2\n      swap1\n      dup2\n      dup2\n      mstore\n      0x20\n      add\n      dup3\n      dup1\n      sload\n      tag_139\n      swap1\n      tag_86\n      jump\t// in\n    tag_139:\n      dup1\n      iszero\n      tag_140\n      jumpi\n      dup1\n      0x1f\n      lt\n      tag_141\n      jumpi\n      0x0100\n      dup1\n      dup4\n      sload\n      div\n      mul\n      dup4\n      mstore\n      swap2\n      0x20\n      add\n      swap2\n      jump(tag_140)\n    tag_141:\n      dup3\n      add\n      swap2\n      swap1\n      0x00\n      mstore\n      keccak256(0x00, 0x20)\n      swap1\n    tag_142:\n      dup2\n      sload\n      dup2\n      mstore\n      swap1\n      0x01\n      add\n      swap1\n      0x20\n      add\n      dup1\n      dup4\n      gt\n      tag_142\n      jumpi\n      dup3\n      swap1\n      sub\n      0x1f\n      and\n      dup3\n      add\n      swap2\n    tag_140:\n      pop\n      pop\n      pop\n      pop\n      pop\n      dup2\n      jump\t// out\n        /* \"ProductRegistry.sol\":6061:6269  function isProductClaimed(string memory productId) public view returns (bool) {... */\n    tag_53:\n        /* \"ProductRegistry.sol\":6133:6137  bool */\n      0x00\n        /* \"ProductRegistry.sol\":6157:6165  products */\n      dup1\n        /* \"ProductRegistry.sol\":6166:6175  productId */\n      dup3\n        /* \"ProductRegistry.sol\":6157:6176  products[productId] */\n      mload(0x40)\n      tag_144\n      swap2\n      swap1\n      tag_108\n      jump\t// in\n    tag_144:\n      swap1\n      dup2\n      mstore\n      mload(0x40)\n      swap1\n      dup2\n      swap1\n      sub\n      0x20\n      add\n      swap1\n      keccak256\n        /* \"ProductRegistry.sol\":6157:6189  products[productId].isRegistered */\n      0x06\n      add\n      sload\n      0xff\n      and\n        /* \"ProductRegistry.sol\":6149:6216  require(products[productId].isRegistered, \"Product not registered\") */\n      tag_145\n      jumpi\n      mload(0x40)\n      shl(0xe5, 0x461bcd)\n      dup2\n      mstore\n        /* \"#utility.yul\":7714:7716   */\n      0x20\n        /* \"ProductRegistry.sol\":6149:6216  require(products[productId].isRegistered, \"Product not registered\") */\n      0x04\n      dup3\n      add\n        /* \"#utility.yul\":7696:7717   */\n      mstore\n        /* \"#utility.yul\":7753:7755   */\n      0x16\n        /* \"#utility.yul\":7733:7751   */\n      0x24\n      dup3\n      add\n        /* \"#utility.yul\":7726:7756   */\n      mstore\n      shl(0x52, 0x141c9bd91d58dd081b9bdd081c9959da5cdd195c9959)\n        /* \"#utility.yul\":7772:7790   */\n      0x44\n      dup3\n      add\n        /* \"#utility.yul\":7765:7817   */\n      mstore\n        /* \"#utility.yul\":7834:7852   */\n      0x64\n      add\n        /* \"ProductRegistry.sol\":6149:6216  require(products[productId].isRegistered, \"Product not registered\") */\n      tag_110\n        /* \"#utility.yul\":7512:7858   */\n      jump\n        /* \"ProductRegistry.sol\":6149:6216  require(products[productId].isRegistered, \"Product not registered\") */\n    tag_145:\n        /* \"ProductRegistry.sol\":6233:6241  products */\n      0x00\n        /* \"ProductRegistry.sol\":6242:6251  productId */\n      dup3\n        /* \"ProductRegistry.sol\":6233:6252  products[productId] */\n      mload(0x40)\n      tag_147\n      swap2\n      swap1\n      tag_108\n      jump\t// in\n    tag_147:\n      swap1\n      dup2\n      mstore\n      mload(0x40)\n      swap1\n      dup2\n      swap1\n      sub\n      0x20\n      add\n      swap1\n      keccak256\n        /* \"ProductRegistry.sol\":6233:6262  products[productId].isClaimed */\n      0x06\n      add\n      sload\n      0xff\n      0x0100\n      swap1\n      swap2\n      div\n      and\n      swap3\n        /* \"ProductRegistry.sol\":6061:6269  function isProductClaimed(string memory productId) public view returns (bool) {... */\n      swap2\n      pop\n      pop\n      jump\t// out\n        /* \"ProductRegistry.sol\":5106:5257  function getManufacturerProducts(address manufacturer) public view returns (string[] memory) {... */\n    tag_57:\n      sub(shl(0xa0, 0x01), 0x01)\n        /* \"ProductRegistry.sol\":5216:5250  manufacturerProducts[manufacturer] */\n      dup2\n      and\n      0x00\n      swap1\n      dup2\n      mstore\n        /* \"ProductRegistry.sol\":5216:5236  manufacturerProducts */\n      0x01\n        /* \"ProductRegistry.sol\":5216:5250  manufacturerProducts[manufacturer] */\n      0x20\n      swap1\n      dup2\n      mstore\n      0x40\n      dup1\n      dup4\n      keccak256\n        /* \"ProductRegistry.sol\":5209:5250  return manufacturerProducts[manufacturer] */\n      dup1\n      sload\n      dup3\n      mload\n      dup2\n      dup6\n      mul\n      dup2\n      add\n      dup6\n      add\n      swap1\n      swap4\n      mstore\n      dup1\n      dup4\n      mstore\n        /* \"ProductRegistry.sol\":5182:5197  string[] memory */\n      0x60\n      swap5\n        /* \"ProductRegistry.sol\":5209:5250  return manufacturerProducts[manufacturer] */\n      swap3\n      swap4\n        /* \"ProductRegistry.sol\":5216:5250  manufacturerProducts[manufacturer] */\n      swap2\n      swap3\n        /* \"ProductRegistry.sol\":5209:5250  return manufacturerProducts[manufacturer] */\n      swap1\n      swap2\n      dup5\n      add\n    tag_149:\n      dup3\n      dup3\n      lt\n      iszero\n      tag_117\n      jumpi\n      dup4\n      dup3\n      swap1\n      0x00\n      mstore\n      keccak256(0x00, 0x20)\n      add\n      dup1\n      sload\n      tag_152\n      swap1\n      tag_86\n      jump\t// in\n    tag_152:\n      dup1\n      0x1f\n      add\n      0x20\n      dup1\n      swap2\n      div\n      mul\n      0x20\n      add\n      mload(0x40)\n      swap1\n      dup2\n      add\n      0x40\n      mstore\n      dup1\n      swap3\n      swap2\n      swap1\n      dup2\n      dup2\n      mstore\n      0x20\n      add\n      dup3\n      dup1\n      sload\n      tag_153\n      swap1\n      tag_86\n      jump\t// in\n    tag_153:\n      dup1\n      iszero\n      tag_154\n      jumpi\n      dup1\n      0x1f\n      lt\n      tag_155\n      jumpi\n      0x0100\n      dup1\n      dup4\n      sload\n      div\n      mul\n      dup4\n      mstore\n      swap2\n      0x20\n      add\n      swap2\n      jump(tag_154)\n    tag_155:\n      dup3\n      add\n      swap2\n      swap1\n      0x00\n      mstore\n      keccak256(0x00, 0x20)\n      swap1\n    tag_156:\n      dup2\n      sload\n      dup2\n      mstore\n      swap1\n      0x01\n      add\n      swap1\n      0x20\n      add\n      dup1\n      dup4\n      gt\n      tag_156\n      jumpi\n      dup3\n      swap1\n      sub\n      0x1f\n      and\n      dup3\n      add\n      swap2\n    tag_154:\n      pop\n      pop\n      pop\n      pop\n      pop\n      dup2\n      mstore\n      0x20\n      add\n      swap1\n      0x01\n      add\n      swap1\n      jump(tag_149)\n        /* \"ProductRegistry.sol\":1015:2096  function registerProduct(... */\n    tag_62:\n        /* \"ProductRegistry.sol\":1208:1216  products */\n      0x00\n        /* \"ProductRegistry.sol\":1217:1226  productId */\n      dup5\n        /* \"ProductRegistry.sol\":1208:1227  products[productId] */\n      mload(0x40)\n      tag_158\n      swap2\n      swap1\n      tag_108\n      jump\t// in\n    tag_158:\n      swap1\n      dup2\n      mstore\n      mload(0x40)\n      swap1\n      dup2\n      swap1\n      sub\n      0x20\n      add\n      swap1\n      keccak256\n        /* \"ProductRegistry.sol\":1208:1240  products[productId].isRegistered */\n      0x06\n      add\n      sload\n      0xff\n      and\n        /* \"ProductRegistry.sol\":1207:1240  !products[productId].isRegistered */\n      iszero\n        /* \"ProductRegistry.sol\":1199:1271  require(!products[productId].isRegistered, \"Product already registered\") */\n      tag_159\n      jumpi\n      mload(0x40)\n      shl(0xe5, 0x461bcd)\n      dup2\n      mstore\n        /* \"#utility.yul\":8065:8067   */\n      0x20\n        /* \"ProductRegistry.sol\":1199:1271  require(!products[productId].isRegistered, \"Product already registered\") */\n      0x04\n      dup3\n      add\n        /* \"#utility.yul\":8047:8068   */\n      mstore\n        /* \"#utility.yul\":8104:8106   */\n      0x1a\n        /* \"#utility.yul\":8084:8102   */\n      0x24\n      dup3\n      add\n        /* \"#utility.yul\":8077:8107   */\n      mstore\n        /* \"#utility.yul\":8143:8171   */\n      0x50726f6475637420616c72656164792072656769737465726564000000000000\n        /* \"#utility.yul\":8123:8141   */\n      0x44\n      dup3\n      add\n        /* \"#utility.yul\":8116:8172   */\n      mstore\n        /* \"#utility.yul\":8189:8207   */\n      0x64\n      add\n        /* \"ProductRegistry.sol\":1199:1271  require(!products[productId].isRegistered, \"Product already registered\") */\n      tag_110\n        /* \"#utility.yul\":7863:8213   */\n      jump\n        /* \"ProductRegistry.sol\":1199:1271  require(!products[productId].isRegistered, \"Product already registered\") */\n    tag_159:\n        /* \"ProductRegistry.sol\":1322:1323  0 */\n      0x00\n        /* \"ProductRegistry.sol\":1295:1311  manufacturerName */\n      dup2\n        /* \"ProductRegistry.sol\":1289:1319  bytes(manufacturerName).length */\n      mload\n        /* \"ProductRegistry.sol\":1289:1323  bytes(manufacturerName).length > 0 */\n      gt\n        /* \"ProductRegistry.sol\":1281:1361  require(bytes(manufacturerName).length > 0, \"Manufacturer name cannot be empty\") */\n      tag_162\n      jumpi\n      mload(0x40)\n      shl(0xe5, 0x461bcd)\n      dup2\n      mstore\n        /* \"#utility.yul\":8420:8422   */\n      0x20\n        /* \"ProductRegistry.sol\":1281:1361  require(bytes(manufacturerName).length > 0, \"Manufacturer name cannot be empty\") */\n      0x04\n      dup3\n      add\n        /* \"#utility.yul\":8402:8423   */\n      mstore\n        /* \"#utility.yul\":8459:8461   */\n      0x21\n        /* \"#utility.yul\":8439:8457   */\n      0x24\n      dup3\n      add\n        /* \"#utility.yul\":8432:8462   */\n      mstore\n        /* \"#utility.yul\":8498:8532   */\n      0x4d616e756661637475726572206e616d652063616e6e6f7420626520656d7074\n        /* \"#utility.yul\":8478:8496   */\n      0x44\n      dup3\n      add\n        /* \"#utility.yul\":8471:8533   */\n      mstore\n      shl(0xf8, 0x79)\n        /* \"#utility.yul\":8549:8567   */\n      0x64\n      dup3\n      add\n        /* \"#utility.yul\":8542:8573   */\n      mstore\n        /* \"#utility.yul\":8590:8609   */\n      0x84\n      add\n        /* \"ProductRegistry.sol\":1281:1361  require(bytes(manufacturerName).length > 0, \"Manufacturer name cannot be empty\") */\n      tag_110\n        /* \"#utility.yul\":8218:8615   */\n      jump\n        /* \"ProductRegistry.sol\":1281:1361  require(bytes(manufacturerName).length > 0, \"Manufacturer name cannot be empty\") */\n    tag_162:\n        /* \"ProductRegistry.sol\":1407:1408  0 */\n      0x00\n        /* \"ProductRegistry.sol\":1385:1396  batchNumber */\n      dup3\n        /* \"ProductRegistry.sol\":1379:1404  bytes(batchNumber).length */\n      mload\n        /* \"ProductRegistry.sol\":1379:1408  bytes(batchNumber).length > 0 */\n      gt\n        /* \"ProductRegistry.sol\":1371:1441  require(bytes(batchNumber).length > 0, \"Batch number cannot be empty\") */\n      tag_165\n      jumpi\n      mload(0x40)\n      shl(0xe5, 0x461bcd)\n      dup2\n      mstore\n        /* \"#utility.yul\":8822:8824   */\n      0x20\n        /* \"ProductRegistry.sol\":1371:1441  require(bytes(batchNumber).length > 0, \"Batch number cannot be empty\") */\n      0x04\n      dup3\n      add\n        /* \"#utility.yul\":8804:8825   */\n      mstore\n        /* \"#utility.yul\":8861:8863   */\n      0x1c\n        /* \"#utility.yul\":8841:8859   */\n      0x24\n      dup3\n      add\n        /* \"#utility.yul\":8834:8864   */\n      mstore\n        /* \"#utility.yul\":8900:8930   */\n      0x4261746368206e756d6265722063616e6e6f7420626520656d70747900000000\n        /* \"#utility.yul\":8880:8898   */\n      0x44\n      dup3\n      add\n        /* \"#utility.yul\":8873:8931   */\n      mstore\n        /* \"#utility.yul\":8948:8966   */\n      0x64\n      add\n        /* \"ProductRegistry.sol\":1371:1441  require(bytes(batchNumber).length > 0, \"Batch number cannot be empty\") */\n      tag_110\n        /* \"#utility.yul\":8620:8972   */\n      jump\n        /* \"ProductRegistry.sol\":1371:1441  require(bytes(batchNumber).length > 0, \"Batch number cannot be empty\") */\n    tag_165:\n        /* \"ProductRegistry.sol\":1543:1883  Product({... */\n      0x40\n      dup1\n      mload\n      0x0120\n      dup2\n      add\n      dup3\n      mstore\n      dup5\n      dup2\n      mstore\n      0x20\n      dup1\n      dup3\n      add\n      dup6\n      swap1\n      mstore\n        /* \"ProductRegistry.sol\":1641:1651  msg.sender */\n      caller\n        /* \"ProductRegistry.sol\":1543:1883  Product({... */\n      dup3\n      dup5\n      add\n      mstore\n      0x60\n      dup3\n      add\n      dup5\n      swap1\n      mstore\n        /* \"ProductRegistry.sol\":1460:1484  uint256 currentTimestamp */\n      0x00\n        /* \"ProductRegistry.sol\":1543:1883  Product({... */\n      0x80\n      dup4\n      add\n      dup2\n      swap1\n      mstore\n      dup4\n      mload\n      swap2\n      dup3\n      add\n      dup5\n      mstore\n      dup1\n      dup3\n      mstore\n      0xa0\n      dup4\n      add\n      swap2\n      swap1\n      swap2\n      mstore\n        /* \"ProductRegistry.sol\":1785:1789  true */\n      0x01\n        /* \"ProductRegistry.sol\":1543:1883  Product({... */\n      0xc0\n      dup4\n      add\n      mstore\n      0xe0\n      dup3\n      add\n      dup2\n      swap1\n      mstore\n        /* \"ProductRegistry.sol\":1487:1502  block.timestamp */\n      timestamp\n        /* \"ProductRegistry.sol\":1543:1883  Product({... */\n      0x0100\n      dup4\n      add\n      dup2\n      swap1\n      mstore\n        /* \"ProductRegistry.sol\":1521:1540  products[productId] */\n      swap3\n      mload\n      tag_168\n      swap1\n        /* \"ProductRegistry.sol\":1530:1539  productId */\n      dup9\n      swap1\n        /* \"ProductRegistry.sol\":1521:1540  products[productId] */\n      tag_108\n      jump\t// in\n    tag_168:\n      swap1\n      dup2\n      mstore\n      mload(0x40)\n      swap1\n      dup2\n      swap1\n      sub\n      0x20\n      add\n      swap1\n      keccak256\n        /* \"ProductRegistry.sol\":1521:1883  products[productId] = Product({... */\n      dup2\n      mload\n        /* \"ProductRegistry.sol\":1521:1540  products[productId] */\n      dup2\n      swap1\n        /* \"ProductRegistry.sol\":1521:1883  products[productId] = Product({... */\n      tag_169\n      swap1\n        /* \"ProductRegistry.sol\":1521:1540  products[productId] */\n      dup3\n        /* \"ProductRegistry.sol\":1521:1883  products[productId] = Product({... */\n      tag_170\n      jump\t// in\n    tag_169:\n      pop\n      0x20\n      dup3\n      add\n      mload\n      0x01\n      dup3\n      add\n      swap1\n      tag_171\n      swap1\n      dup3\n      tag_170\n      jump\t// in\n    tag_171:\n      pop\n      0x40\n      dup3\n      add\n      mload\n      0x02\n      dup3\n      add\n      dup1\n      sload\n      not(0xffffffffffffffffffffffffffffffffffffffff)\n      and\n      sub(shl(0xa0, 0x01), 0x01)\n      swap1\n      swap3\n      and\n      swap2\n      swap1\n      swap2\n      or\n      swap1\n      sstore\n      0x60\n      dup3\n      add\n      mload\n      0x03\n      dup3\n      add\n      swap1\n      tag_172\n      swap1\n      dup3\n      tag_170\n      jump\t// in\n    tag_172:\n      pop\n      0x80\n      dup3\n      add\n      mload\n      0x04\n      dup3\n      add\n      dup1\n      sload\n      not(0xffffffffffffffffffffffffffffffffffffffff)\n      and\n      sub(shl(0xa0, 0x01), 0x01)\n      swap1\n      swap3\n      and\n      swap2\n      swap1\n      swap2\n      or\n      swap1\n      sstore\n      0xa0\n      dup3\n      add\n      mload\n      0x05\n      dup3\n      add\n      swap1\n      tag_173\n      swap1\n      dup3\n      tag_170\n      jump\t// in\n    tag_173:\n      pop\n      0xc0\n      dup3\n      add\n      mload\n      0x06\n      dup3\n      add\n      dup1\n      sload\n      0xe0\n      dup6\n      add\n      mload\n      not(0xffff)\n      swap1\n      swap2\n      and\n      swap3\n      iszero\n      iszero\n      not(0xff00)\n      and\n      swap3\n      swap1\n      swap3\n      or\n      0x0100\n      swap3\n      iszero\n      iszero\n      dup4\n      mul\n      or\n      swap1\n      sstore\n      swap1\n      swap2\n      add\n      mload\n      0x07\n      swap1\n      swap2\n      add\n      sstore\n        /* \"ProductRegistry.sol\":1915:1925  msg.sender */\n      caller\n      0x00\n        /* \"ProductRegistry.sol\":1894:1926  manufacturerProducts[msg.sender] */\n      swap1\n      dup2\n      mstore\n      0x01\n      0x20\n      dup2\n      dup2\n      mstore\n      0x40\n      dup4\n      keccak256\n        /* \"ProductRegistry.sol\":1894:1942  manufacturerProducts[msg.sender].push(productId) */\n      dup1\n      sload\n      swap3\n      dup4\n      add\n      dup2\n      sstore\n      dup4\n      mstore\n      swap1\n      swap2\n      keccak256\n      add\n      tag_175\n        /* \"ProductRegistry.sol\":1932:1941  productId */\n      dup7\n        /* \"ProductRegistry.sol\":1894:1942  manufacturerProducts[msg.sender].push(productId) */\n      dup3\n      tag_170\n      jump\t// in\n    tag_175:\n      pop\n        /* \"ProductRegistry.sol\":1952:1965  batchProducts */\n      0x03\n        /* \"ProductRegistry.sol\":1966:1977  batchNumber */\n      dup4\n        /* \"ProductRegistry.sol\":1952:1978  batchProducts[batchNumber] */\n      mload(0x40)\n      tag_176\n      swap2\n      swap1\n      tag_108\n      jump\t// in\n    tag_176:\n      swap1\n      dup2\n      mstore\n      mload(0x40)\n      0x20\n      swap2\n      dup2\n      swap1\n      sub\n      dup3\n      add\n      swap1\n      keccak256\n        /* \"ProductRegistry.sol\":1952:1994  batchProducts[batchNumber].push(productId) */\n      dup1\n      sload\n      0x01\n      dup2\n      add\n      dup3\n      sstore\n      0x00\n      swap2\n      dup3\n      mstore\n      swap2\n      swap1\n      keccak256\n      add\n      tag_178\n        /* \"ProductRegistry.sol\":1984:1993  productId */\n      dup7\n        /* \"ProductRegistry.sol\":1952:1994  batchProducts[batchNumber].push(productId) */\n      dup3\n      tag_170\n      jump\t// in\n    tag_178:\n      pop\n        /* \"ProductRegistry.sol\":2018:2089  ProductRegistered(productId, batchNumber, msg.sender, currentTimestamp) */\n      0x0c0d491e345bc2978c00d63d2467e57a7b6d771cf759616a786b1d339d75f1b5\n        /* \"ProductRegistry.sol\":2036:2045  productId */\n      dup6\n        /* \"ProductRegistry.sol\":2047:2058  batchNumber */\n      dup5\n        /* \"ProductRegistry.sol\":2060:2070  msg.sender */\n      caller\n        /* \"ProductRegistry.sol\":2072:2088  currentTimestamp */\n      dup5\n        /* \"ProductRegistry.sol\":2018:2089  ProductRegistered(productId, batchNumber, msg.sender, currentTimestamp) */\n      mload(0x40)\n      tag_179\n      swap5\n      swap4\n      swap3\n      swap2\n      swap1\n      tag_180\n      jump\t// in\n    tag_179:\n      mload(0x40)\n      dup1\n      swap2\n      sub\n      swap1\n      log1\n        /* \"ProductRegistry.sol\":1189:2096  {... */\n      pop\n        /* \"ProductRegistry.sol\":1015:2096  function registerProduct(... */\n      pop\n      pop\n      pop\n      pop\n      jump\t// out\n        /* \"ProductRegistry.sol\":5800:6018  function getProductBatch(string memory productId) public view returns (string memory) {... */\n    tag_65:\n        /* \"ProductRegistry.sol\":5871:5884  string memory */\n      0x60\n        /* \"ProductRegistry.sol\":5904:5912  products */\n      0x00\n        /* \"ProductRegistry.sol\":5913:5922  productId */\n      dup3\n        /* \"ProductRegistry.sol\":5904:5923  products[productId] */\n      mload(0x40)\n      tag_182\n      swap2\n      swap1\n      tag_108\n      jump\t// in\n    tag_182:\n      swap1\n      dup2\n      mstore\n      mload(0x40)\n      swap1\n      dup2\n      swap1\n      sub\n      0x20\n      add\n      swap1\n      keccak256\n        /* \"ProductRegistry.sol\":5904:5936  products[productId].isRegistered */\n      0x06\n      add\n      sload\n      0xff\n      and\n        /* \"ProductRegistry.sol\":5896:5963  require(products[productId].isRegistered, \"Product not registered\") */\n      tag_183\n      jumpi\n      mload(0x40)\n      shl(0xe5, 0x461bcd)\n      dup2\n      mstore\n        /* \"#utility.yul\":7714:7716   */\n      0x20\n        /* \"ProductRegistry.sol\":5896:5963  require(products[productId].isRegistered, \"Product not registered\") */\n      0x04\n      dup3\n      add\n        /* \"#utility.yul\":7696:7717   */\n      mstore\n        /* \"#utility.yul\":7753:7755   */\n      0x16\n        /* \"#utility.yul\":7733:7751   */\n      0x24\n      dup3\n      add\n        /* \"#utility.yul\":7726:7756   */\n      mstore\n      shl(0x52, 0x141c9bd91d58dd081b9bdd081c9959da5cdd195c9959)\n        /* \"#utility.yul\":7772:7790   */\n      0x44\n      dup3\n      add\n        /* \"#utility.yul\":7765:7817   */\n      mstore\n        /* \"#utility.yul\":7834:7852   */\n      0x64\n      add\n        /* \"ProductRegistry.sol\":5896:5963  require(products[productId].isRegistered, \"Product not registered\") */\n      tag_110\n        /* \"#utility.yul\":7512:7858   */\n      jump\n        /* \"ProductRegistry.sol\":5896:5963  require(products[productId].isRegistered, \"Product not registered\") */\n    tag_183:\n        /* \"ProductRegistry.sol\":5980:5988  products */\n      0x00\n        /* \"ProductRegistry.sol\":5989:5998  productId */\n      dup3\n        /* \"ProductRegistry.sol\":5980:5999  products[productId] */\n      mload(0x40)\n      tag_185\n      swap2\n      swap1\n      tag_108\n      jump\t// in\n    tag_185:\n      swap1\n      dup2\n      mstore\n      0x20\n      add\n      mload(0x40)\n      dup1\n      swap2\n      sub\n      swap1\n      keccak256\n        /* \"ProductRegistry.sol\":5980:6011  products[productId].batchNumber */\n      0x01\n      add\n        /* \"ProductRegistry.sol\":5973:6011  return products[productId].batchNumber */\n      dup1\n      sload\n      tag_186\n      swap1\n      tag_86\n      jump\t// in\n    tag_186:\n      dup1\n      0x1f\n      add\n      0x20\n      dup1\n      swap2\n      div\n      mul\n      0x20\n      add\n      mload(0x40)\n      swap1\n      dup2\n      add\n      0x40\n      mstore\n      dup1\n      swap3\n      swap2\n      swap1\n      dup2\n      dup2\n      mstore\n      0x20\n      add\n      dup3\n      dup1\n      sload\n      tag_187\n      swap1\n      tag_86\n      jump\t// in\n    tag_187:\n      dup1\n      iszero\n      tag_188\n      jumpi\n      dup1\n      0x1f\n      lt\n      tag_189\n      jumpi\n      0x0100\n      dup1\n      dup4\n      sload\n      div\n      mul\n      dup4\n      mstore\n      swap2\n      0x20\n      add\n      swap2\n      jump(tag_188)\n    tag_189:\n      dup3\n      add\n      swap2\n      swap1\n      0x00\n      mstore\n      keccak256(0x00, 0x20)\n      swap1\n    tag_190:\n      dup2\n      sload\n      dup2\n      mstore\n      swap1\n      0x01\n      add\n      swap1\n      0x20\n      add\n      dup1\n      dup4\n      gt\n      tag_190\n      jumpi\n      dup3\n      swap1\n      sub\n      0x1f\n      and\n      dup3\n      add\n      swap2\n    tag_188:\n      pop\n      pop\n      pop\n      pop\n      pop\n      swap1\n      pop\n        /* \"ProductRegistry.sol\":5800:6018  function getProductBatch(string memory productId) public view returns (string memory) {... */\n      swap2\n      swap1\n      pop\n      jump\t// out\n        /* \"ProductRegistry.sol\":578:626  mapping(string => string[]) public batchProducts */\n    tag_70:\n      dup2\n      mload\n      0x20\n      dup2\n      dup5\n      add\n      dup2\n      add\n      dup1\n      mload\n      0x03\n      dup3\n      mstore\n      swap3\n      dup3\n      add\n      swap2\n      dup6\n      add\n      swap2\n      swap1\n      swap2\n      keccak256\n      swap2\n      swap1\n      mstore\n      dup1\n      sload\n      dup3\n      swap1\n      dup2\n      lt\n      tag_136\n      jumpi\n      0x00\n      dup1\n      revert\n        /* \"ProductRegistry.sol\":523:572  mapping(address => string[]) public ownerProducts */\n    tag_74:\n      mstore(0x20, 0x02)\n      dup2\n      0x00\n      mstore\n      keccak256(0x00, 0x40)\n      dup2\n      dup2\n      sload\n      dup2\n      lt\n      tag_136\n      jumpi\n      0x00\n      dup1\n      revert\n        /* \"ProductRegistry.sol\":3177:3408  function getRegistrationTimestamp(string memory productId) public view returns (uint256) {... */\n    tag_78:\n        /* \"ProductRegistry.sol\":3257:3264  uint256 */\n      0x00\n        /* \"ProductRegistry.sol\":3284:3292  products */\n      dup1\n        /* \"ProductRegistry.sol\":3293:3302  productId */\n      dup3\n        /* \"ProductRegistry.sol\":3284:3303  products[productId] */\n      mload(0x40)\n      tag_206\n      swap2\n      swap1\n      tag_108\n      jump\t// in\n    tag_206:\n      swap1\n      dup2\n      mstore\n      mload(0x40)\n      swap1\n      dup2\n      swap1\n      sub\n      0x20\n      add\n      swap1\n      keccak256\n        /* \"ProductRegistry.sol\":3284:3316  products[productId].isRegistered */\n      0x06\n      add\n      sload\n      0xff\n      and\n        /* \"ProductRegistry.sol\":3276:3343  require(products[productId].isRegistered, \"Product not registered\") */\n      tag_207\n      jumpi\n      mload(0x40)\n      shl(0xe5, 0x461bcd)\n      dup2\n      mstore\n        /* \"#utility.yul\":7714:7716   */\n      0x20\n        /* \"ProductRegistry.sol\":3276:3343  require(products[productId].isRegistered, \"Product not registered\") */\n      0x04\n      dup3\n      add\n        /* \"#utility.yul\":7696:7717   */\n      mstore\n        /* \"#utility.yul\":7753:7755   */\n      0x16\n        /* \"#utility.yul\":7733:7751   */\n      0x24\n      dup3\n      add\n        /* \"#utility.yul\":7726:7756   */\n      mstore\n      shl(0x52, 0x141c9bd91d58dd081b9bdd081c9959da5cdd195c9959)\n        /* \"#utility.yul\":7772:7790   */\n      0x44\n      dup3\n      add\n        /* \"#utility.yul\":7765:7817   */\n      mstore\n        /* \"#utility.yul\":7834:7852   */\n      0x64\n      add\n        /* \"ProductRegistry.sol\":3276:3343  require(products[productId].isRegistered, \"Product not registered\") */\n      tag_110\n        /* \"#utility.yul\":7512:7858   */\n      jump\n        /* \"ProductRegistry.sol\":3276:3343  require(products[productId].isRegistered, \"Product not registered\") */\n    tag_207:\n        /* \"ProductRegistry.sol\":3360:3368  products */\n      0x00\n        /* \"ProductRegistry.sol\":3369:3378  productId */\n      dup3\n        /* \"ProductRegistry.sol\":3360:3379  products[productId] */\n      mload(0x40)\n      tag_209\n      swap2\n      swap1\n      tag_108\n      jump\t// in\n    tag_209:\n      swap1\n      dup2\n      mstore\n      0x20\n      add\n      mload(0x40)\n      dup1\n      swap2\n      sub\n      swap1\n      keccak256\n        /* \"ProductRegistry.sol\":3360:3401  products[productId].registrationTimestamp */\n      0x07\n      add\n      sload\n        /* \"ProductRegistry.sol\":3353:3401  return products[productId].registrationTimestamp */\n      swap1\n      pop\n        /* \"ProductRegistry.sol\":3177:3408  function getRegistrationTimestamp(string memory productId) public view returns (uint256) {... */\n      swap2\n      swap1\n      pop\n      jump\t// out\n        /* \"ProductRegistry.sol\":2136:2842  function claimProduct(... */\n    tag_84:\n        /* \"ProductRegistry.sol\":2255:2263  products */\n      0x00\n        /* \"ProductRegistry.sol\":2264:2273  productId */\n      dup3\n        /* \"ProductRegistry.sol\":2255:2274  products[productId] */\n      mload(0x40)\n      tag_211\n      swap2\n      swap1\n      tag_108\n      jump\t// in\n    tag_211:\n      swap1\n      dup2\n      mstore\n      mload(0x40)\n      swap1\n      dup2\n      swap1\n      sub\n      0x20\n      add\n      swap1\n      keccak256\n        /* \"ProductRegistry.sol\":2255:2287  products[productId].isRegistered */\n      0x06\n      add\n      sload\n      0xff\n      and\n        /* \"ProductRegistry.sol\":2247:2314  require(products[productId].isRegistered, \"Product not registered\") */\n      tag_212\n      jumpi\n      mload(0x40)\n      shl(0xe5, 0x461bcd)\n      dup2\n      mstore\n        /* \"#utility.yul\":7714:7716   */\n      0x20\n        /* \"ProductRegistry.sol\":2247:2314  require(products[productId].isRegistered, \"Product not registered\") */\n      0x04\n      dup3\n      add\n        /* \"#utility.yul\":7696:7717   */\n      mstore\n        /* \"#utility.yul\":7753:7755   */\n      0x16\n        /* \"#utility.yul\":7733:7751   */\n      0x24\n      dup3\n      add\n        /* \"#utility.yul\":7726:7756   */\n      mstore\n      shl(0x52, 0x141c9bd91d58dd081b9bdd081c9959da5cdd195c9959)\n        /* \"#utility.yul\":7772:7790   */\n      0x44\n      dup3\n      add\n        /* \"#utility.yul\":7765:7817   */\n      mstore\n        /* \"#utility.yul\":7834:7852   */\n      0x64\n      add\n        /* \"ProductRegistry.sol\":2247:2314  require(products[productId].isRegistered, \"Product not registered\") */\n      tag_110\n        /* \"#utility.yul\":7512:7858   */\n      jump\n        /* \"ProductRegistry.sol\":2247:2314  require(products[productId].isRegistered, \"Product not registered\") */\n    tag_212:\n        /* \"ProductRegistry.sol\":2324:2347  Product storage product */\n      0x00\n        /* \"ProductRegistry.sol\":2350:2358  products */\n      dup1\n        /* \"ProductRegistry.sol\":2359:2368  productId */\n      dup4\n        /* \"ProductRegistry.sol\":2350:2369  products[productId] */\n      mload(0x40)\n      tag_214\n      swap2\n      swap1\n      tag_108\n      jump\t// in\n    tag_214:\n      swap1\n      dup2\n      mstore\n      mload(0x40)\n      swap1\n      dup2\n      swap1\n      sub\n      0x20\n      add\n      swap1\n      keccak256\n        /* \"ProductRegistry.sol\":2453:2470  product.isClaimed */\n      0x06\n      dup2\n      add\n      sload\n        /* \"ProductRegistry.sol\":2350:2369  products[productId] */\n      swap1\n      swap2\n      pop\n        /* \"ProductRegistry.sol\":2415:2430  block.timestamp */\n      timestamp\n      swap1\n        /* \"ProductRegistry.sol\":2453:2470  product.isClaimed */\n      0xff\n      0x0100\n      swap1\n      swap2\n      div\n      and\n        /* \"ProductRegistry.sol\":2449:2836  if (product.isClaimed) {... */\n      iszero\n      tag_215\n      jumpi\n        /* \"ProductRegistry.sol\":2494:2507  product.owner */\n      0x04\n      dup3\n      add\n      sload\n      sub(shl(0xa0, 0x01), 0x01)\n      and\n        /* \"ProductRegistry.sol\":2511:2521  msg.sender */\n      caller\n        /* \"ProductRegistry.sol\":2494:2521  product.owner == msg.sender */\n      eq\n        /* \"ProductRegistry.sol\":2486:2558  require(product.owner == msg.sender, \"Already claimed by another owner\") */\n      tag_216\n      jumpi\n      mload(0x40)\n      shl(0xe5, 0x461bcd)\n      dup2\n      mstore\n        /* \"#utility.yul\":11952:11954   */\n      0x20\n        /* \"ProductRegistry.sol\":2486:2558  require(product.owner == msg.sender, \"Already claimed by another owner\") */\n      0x04\n      dup3\n      add\n        /* \"#utility.yul\":11934:11955   */\n      dup2\n      swap1\n      mstore\n        /* \"#utility.yul\":11971:11989   */\n      0x24\n      dup3\n      add\n        /* \"#utility.yul\":11964:11994   */\n      mstore\n        /* \"#utility.yul\":12030:12064   */\n      0x416c726561647920636c61696d656420627920616e6f74686572206f776e6572\n        /* \"#utility.yul\":12010:12028   */\n      0x44\n      dup3\n      add\n        /* \"#utility.yul\":12003:12065   */\n      mstore\n        /* \"#utility.yul\":12082:12100   */\n      0x64\n      add\n        /* \"ProductRegistry.sol\":2486:2558  require(product.owner == msg.sender, \"Already claimed by another owner\") */\n      tag_110\n        /* \"#utility.yul\":11750:12106   */\n      jump\n        /* \"ProductRegistry.sol\":2486:2558  require(product.owner == msg.sender, \"Already claimed by another owner\") */\n    tag_216:\n        /* \"ProductRegistry.sol\":2449:2836  if (product.isClaimed) {... */\n      jump(tag_219)\n    tag_215:\n        /* \"ProductRegistry.sol\":2589:2602  product.owner */\n      0x04\n      dup3\n      add\n        /* \"ProductRegistry.sol\":2589:2615  product.owner = msg.sender */\n      dup1\n      sload\n      not(0xffffffffffffffffffffffffffffffffffffffff)\n      and\n        /* \"ProductRegistry.sol\":2605:2615  msg.sender */\n      caller\n        /* \"ProductRegistry.sol\":2589:2615  product.owner = msg.sender */\n      or\n      swap1\n      sstore\n        /* \"ProductRegistry.sol\":2629:2646  product.ownerName */\n      0x05\n      dup3\n      add\n        /* \"ProductRegistry.sol\":2629:2658  product.ownerName = ownerName */\n      tag_220\n        /* \"ProductRegistry.sol\":2649:2658  ownerName */\n      dup5\n        /* \"ProductRegistry.sol\":2629:2646  product.ownerName */\n      dup3\n        /* \"ProductRegistry.sol\":2629:2658  product.ownerName = ownerName */\n      tag_170\n      jump\t// in\n    tag_220:\n      pop\n        /* \"ProductRegistry.sol\":2672:2689  product.isClaimed */\n      0x06\n      dup3\n      add\n        /* \"ProductRegistry.sol\":2672:2696  product.isClaimed = true */\n      dup1\n      sload\n      not(0xff00)\n      and\n      0x0100\n      or\n      swap1\n      sstore\n        /* \"ProductRegistry.sol\":2724:2734  msg.sender */\n      caller\n        /* \"ProductRegistry.sol\":2672:2696  product.isClaimed = true */\n      0x00\n        /* \"ProductRegistry.sol\":2710:2735  ownerProducts[msg.sender] */\n      swap1\n      dup2\n      mstore\n        /* \"ProductRegistry.sol\":2710:2723  ownerProducts */\n      0x02\n        /* \"ProductRegistry.sol\":2710:2735  ownerProducts[msg.sender] */\n      0x20\n      swap1\n      dup2\n      mstore\n      0x40\n      dup3\n      keccak256\n        /* \"ProductRegistry.sol\":2710:2751  ownerProducts[msg.sender].push(productId) */\n      dup1\n      sload\n        /* \"ProductRegistry.sol\":2692:2696  true */\n      0x01\n        /* \"ProductRegistry.sol\":2710:2751  ownerProducts[msg.sender].push(productId) */\n      dup2\n      add\n      dup3\n      sstore\n      swap1\n      dup4\n      mstore\n      swap2\n      keccak256\n      add\n      tag_222\n        /* \"ProductRegistry.sol\":2741:2750  productId */\n      dup6\n        /* \"ProductRegistry.sol\":2710:2751  ownerProducts[msg.sender].push(productId) */\n      dup3\n      tag_170\n      jump\t// in\n    tag_222:\n      pop\n        /* \"ProductRegistry.sol\":2770:2825  ProductClaimed(productId, msg.sender, currentTimestamp) */\n      0xcd244ed2b3e9ff3369bec5733b9f3bb0bb6055a4c23596529b92cb834caee252\n        /* \"ProductRegistry.sol\":2785:2794  productId */\n      dup5\n        /* \"ProductRegistry.sol\":2796:2806  msg.sender */\n      caller\n        /* \"ProductRegistry.sol\":2808:2824  currentTimestamp */\n      dup4\n        /* \"ProductRegistry.sol\":2770:2825  ProductClaimed(productId, msg.sender, currentTimestamp) */\n      mload(0x40)\n      tag_223\n      swap4\n      swap3\n      swap2\n      swap1\n      tag_224\n      jump\t// in\n    tag_223:\n      mload(0x40)\n      dup1\n      swap2\n      sub\n      swap1\n      log1\n        /* \"ProductRegistry.sol\":2449:2836  if (product.isClaimed) {... */\n    tag_219:\n        /* \"ProductRegistry.sol\":2237:2842  {... */\n      pop\n      pop\n        /* \"ProductRegistry.sol\":2136:2842  function claimProduct(... */\n      pop\n      pop\n      jump\t// out\n        /* \"ProductRegistry.sol\":3467:3820  function timestampToDate(uint256 timestamp) internal pure returns (string memory) {... */\n    tag_114:\n        /* \"ProductRegistry.sol\":3534:3547  string memory */\n      0x60\n        /* \"ProductRegistry.sol\":3560:3569  uint year */\n      0x00\n      dup1\n      dup1\n        /* \"ProductRegistry.sol\":3595:3624  daysToDate(timestamp / 86400) */\n      tag_226\n        /* \"ProductRegistry.sol\":3606:3623  timestamp / 86400 */\n      tag_227\n        /* \"ProductRegistry.sol\":3618:3623  86400 */\n      0x015180\n        /* \"ProductRegistry.sol\":3606:3615  timestamp */\n      dup8\n        /* \"ProductRegistry.sol\":3606:3623  timestamp / 86400 */\n      tag_228\n      jump\t// in\n    tag_227:\n        /* \"ProductRegistry.sol\":3595:3605  daysToDate */\n      tag_229\n        /* \"ProductRegistry.sol\":3595:3624  daysToDate(timestamp / 86400) */\n      jump\t// in\n    tag_226:\n        /* \"ProductRegistry.sol\":3559:3624  (uint year, uint month, uint day) = daysToDate(timestamp / 86400) */\n      swap3\n      pop\n      swap3\n      pop\n      swap3\n      pop\n        /* \"ProductRegistry.sol\":3678:3692  uint2str(year) */\n      tag_230\n        /* \"ProductRegistry.sol\":3687:3691  year */\n      dup4\n        /* \"ProductRegistry.sol\":3678:3686  uint2str */\n      tag_231\n        /* \"ProductRegistry.sol\":3678:3692  uint2str(year) */\n      jump\t// in\n    tag_230:\n        /* \"ProductRegistry.sol\":3719:3721  10 */\n      0x0a\n        /* \"ProductRegistry.sol\":3711:3716  month */\n      dup4\n        /* \"ProductRegistry.sol\":3711:3721  month < 10 */\n      lt\n        /* \"ProductRegistry.sol\":3711:3732  month < 10 ? \"0\" : \"\" */\n      tag_232\n      jumpi\n      mload(0x40)\n      dup1\n      0x20\n      add\n      0x40\n      mstore\n      dup1\n      0x00\n      dup2\n      mstore\n      pop\n      jump(tag_233)\n    tag_232:\n      mload(0x40)\n      dup1\n      0x40\n      add\n      0x40\n      mstore\n      dup1\n      0x01\n      dup2\n      mstore\n      0x20\n      add\n      shl(0xfc, 0x03)\n      dup2\n      mstore\n      pop\n    tag_233:\n        /* \"ProductRegistry.sol\":3734:3749  uint2str(month) */\n      tag_234\n        /* \"ProductRegistry.sol\":3743:3748  month */\n      dup5\n        /* \"ProductRegistry.sol\":3734:3742  uint2str */\n      tag_231\n        /* \"ProductRegistry.sol\":3734:3749  uint2str(month) */\n      jump\t// in\n    tag_234:\n        /* \"ProductRegistry.sol\":3774:3776  10 */\n      0x0a\n        /* \"ProductRegistry.sol\":3768:3771  day */\n      dup5\n        /* \"ProductRegistry.sol\":3768:3776  day < 10 */\n      lt\n        /* \"ProductRegistry.sol\":3768:3787  day < 10 ? \"0\" : \"\" */\n      tag_235\n      jumpi\n      mload(0x40)\n      dup1\n      0x20\n      add\n      0x40\n      mstore\n      dup1\n      0x00\n      dup2\n      mstore\n      pop\n      jump(tag_236)\n    tag_235:\n      mload(0x40)\n      dup1\n      0x40\n      add\n      0x40\n      mstore\n      dup1\n      0x01\n      dup2\n      mstore\n      0x20\n      add\n      shl(0xfc, 0x03)\n      dup2\n      mstore\n      pop\n    tag_236:\n        /* \"ProductRegistry.sol\":3789:3802  uint2str(day) */\n      tag_237\n        /* \"ProductRegistry.sol\":3798:3801  day */\n      dup6\n        /* \"ProductRegistry.sol\":3789:3797  uint2str */\n      tag_231\n        /* \"ProductRegistry.sol\":3789:3802  uint2str(day) */\n      jump\t// in\n    tag_237:\n        /* \"ProductRegistry.sol\":3648:3812  abi.encodePacked(... */\n      add(0x20, mload(0x40))\n      tag_238\n      swap6\n      swap5\n      swap4\n      swap3\n      swap2\n      swap1\n      tag_239\n      jump\t// in\n    tag_238:\n      mload(0x40)\n      0x20\n      dup2\n      dup4\n      sub\n      sub\n      dup2\n      mstore\n      swap1\n      0x40\n      mstore\n        /* \"ProductRegistry.sol\":3634:3813  return string(abi.encodePacked(... */\n      swap4\n      pop\n      pop\n      pop\n      pop\n        /* \"ProductRegistry.sol\":3467:3820  function timestampToDate(uint256 timestamp) internal pure returns (string memory) {... */\n      swap2\n      swap1\n      pop\n      jump\t// out\n        /* \"ProductRegistry.sol\":3866:4515  function daysToDate(uint _days) internal pure returns (uint year, uint month, uint day) {... */\n    tag_229:\n        /* \"ProductRegistry.sol\":3921:3930  uint year */\n      0x00\n      dup1\n      dup1\n        /* \"ProductRegistry.sol\":3981:3986  _days */\n      dup4\n        /* \"ProductRegistry.sol\":3921:3930  uint year */\n      dup2\n        /* \"ProductRegistry.sol\":4014:4028  __days + 68569 */\n      tag_241\n        /* \"ProductRegistry.sol\":3981:3986  _days */\n      dup3\n        /* \"ProductRegistry.sol\":4023:4028  68569 */\n      0x010bd9\n        /* \"ProductRegistry.sol\":4014:4028  __days + 68569 */\n      tag_242\n      jump\t// in\n    tag_241:\n        /* \"ProductRegistry.sol\":4014:4038  __days + 68569 + 2440588 */\n      tag_243\n      swap1\n        /* \"ProductRegistry.sol\":4031:4038  2440588 */\n      0x253d8c\n        /* \"ProductRegistry.sol\":4014:4038  __days + 68569 + 2440588 */\n      tag_242\n      jump\t// in\n    tag_243:\n        /* \"ProductRegistry.sol\":4006:4038  int L = __days + 68569 + 2440588 */\n      swap1\n      pop\n        /* \"ProductRegistry.sol\":4084:4089  int N */\n      0x00\n        /* \"ProductRegistry.sol\":4100:4106  146097 */\n      0x023ab1\n        /* \"ProductRegistry.sol\":4092:4097  4 * L */\n      tag_244\n        /* \"ProductRegistry.sol\":4006:4038  int L = __days + 68569 + 2440588 */\n      dup4\n        /* \"ProductRegistry.sol\":4092:4093  4 */\n      0x04\n        /* \"ProductRegistry.sol\":4092:4097  4 * L */\n      tag_245\n      jump\t// in\n    tag_244:\n        /* \"ProductRegistry.sol\":4092:4106  4 * L / 146097 */\n      tag_246\n      swap2\n      swap1\n      tag_247\n      jump\t// in\n    tag_246:\n        /* \"ProductRegistry.sol\":4084:4106  int N = 4 * L / 146097 */\n      swap1\n      pop\n        /* \"ProductRegistry.sol\":4143:4144  4 */\n      0x04\n        /* \"ProductRegistry.sol\":4125:4135  146097 * N */\n      tag_248\n        /* \"ProductRegistry.sol\":4084:4106  int N = 4 * L / 146097 */\n      dup3\n        /* \"ProductRegistry.sol\":4125:4131  146097 */\n      0x023ab1\n        /* \"ProductRegistry.sol\":4125:4135  146097 * N */\n      tag_245\n      jump\t// in\n    tag_248:\n        /* \"ProductRegistry.sol\":4125:4139  146097 * N + 3 */\n      tag_249\n      swap1\n        /* \"ProductRegistry.sol\":4138:4139  3 */\n      0x03\n        /* \"ProductRegistry.sol\":4125:4139  146097 * N + 3 */\n      tag_242\n      jump\t// in\n    tag_249:\n        /* \"ProductRegistry.sol\":4124:4144  (146097 * N + 3) / 4 */\n      tag_250\n      swap2\n      swap1\n      tag_247\n      jump\t// in\n    tag_250:\n        /* \"ProductRegistry.sol\":4120:4144  L - (146097 * N + 3) / 4 */\n      tag_251\n      swap1\n        /* \"ProductRegistry.sol\":4120:4121  L */\n      dup4\n        /* \"ProductRegistry.sol\":4120:4144  L - (146097 * N + 3) / 4 */\n      tag_252\n      jump\t// in\n    tag_251:\n        /* \"ProductRegistry.sol\":4116:4144  L = L - (146097 * N + 3) / 4 */\n      swap2\n      pop\n        /* \"ProductRegistry.sol\":4154:4163  int _year */\n      0x00\n        /* \"ProductRegistry.sol\":4183:4190  1461001 */\n      0x164b09\n        /* \"ProductRegistry.sol\":4174:4179  L + 1 */\n      tag_253\n        /* \"ProductRegistry.sol\":4116:4144  L = L - (146097 * N + 3) / 4 */\n      dup5\n        /* \"ProductRegistry.sol\":4178:4179  1 */\n      0x01\n        /* \"ProductRegistry.sol\":4174:4179  L + 1 */\n      tag_242\n      jump\t// in\n    tag_253:\n        /* \"ProductRegistry.sol\":4166:4180  4000 * (L + 1) */\n      tag_254\n      swap1\n        /* \"ProductRegistry.sol\":4166:4170  4000 */\n      0x0fa0\n        /* \"ProductRegistry.sol\":4166:4180  4000 * (L + 1) */\n      tag_245\n      jump\t// in\n    tag_254:\n        /* \"ProductRegistry.sol\":4166:4190  4000 * (L + 1) / 1461001 */\n      tag_255\n      swap2\n      swap1\n      tag_247\n      jump\t// in\n    tag_255:\n        /* \"ProductRegistry.sol\":4154:4190  int _year = 4000 * (L + 1) / 1461001 */\n      swap1\n      pop\n        /* \"ProductRegistry.sol\":4223:4224  4 */\n      0x04\n        /* \"ProductRegistry.sol\":4208:4220  1461 * _year */\n      tag_256\n        /* \"ProductRegistry.sol\":4154:4190  int _year = 4000 * (L + 1) / 1461001 */\n      dup3\n        /* \"ProductRegistry.sol\":4208:4212  1461 */\n      0x05b5\n        /* \"ProductRegistry.sol\":4208:4220  1461 * _year */\n      tag_245\n      jump\t// in\n    tag_256:\n        /* \"ProductRegistry.sol\":4208:4224  1461 * _year / 4 */\n      tag_257\n      swap2\n      swap1\n      tag_247\n      jump\t// in\n    tag_257:\n        /* \"ProductRegistry.sol\":4204:4224  L - 1461 * _year / 4 */\n      tag_258\n      swap1\n        /* \"ProductRegistry.sol\":4204:4205  L */\n      dup5\n        /* \"ProductRegistry.sol\":4204:4224  L - 1461 * _year / 4 */\n      tag_252\n      jump\t// in\n    tag_258:\n        /* \"ProductRegistry.sol\":4204:4229  L - 1461 * _year / 4 + 31 */\n      tag_259\n      swap1\n        /* \"ProductRegistry.sol\":4227:4229  31 */\n      0x1f\n        /* \"ProductRegistry.sol\":4204:4229  L - 1461 * _year / 4 + 31 */\n      tag_242\n      jump\t// in\n    tag_259:\n        /* \"ProductRegistry.sol\":4200:4229  L = L - 1461 * _year / 4 + 31 */\n      swap3\n      pop\n        /* \"ProductRegistry.sol\":4239:4249  int _month */\n      0x00\n        /* \"ProductRegistry.sol\":4261:4265  2447 */\n      0x098f\n        /* \"ProductRegistry.sol\":4252:4258  80 * L */\n      tag_260\n        /* \"ProductRegistry.sol\":4200:4229  L = L - 1461 * _year / 4 + 31 */\n      dup6\n        /* \"ProductRegistry.sol\":4252:4254  80 */\n      0x50\n        /* \"ProductRegistry.sol\":4252:4258  80 * L */\n      tag_245\n      jump\t// in\n    tag_260:\n        /* \"ProductRegistry.sol\":4252:4265  80 * L / 2447 */\n      tag_261\n      swap2\n      swap1\n      tag_247\n      jump\t// in\n    tag_261:\n        /* \"ProductRegistry.sol\":4239:4265  int _month = 80 * L / 2447 */\n      swap1\n      pop\n        /* \"ProductRegistry.sol\":4275:4283  int _day */\n      0x00\n        /* \"ProductRegistry.sol\":4306:4308  80 */\n      0x50\n        /* \"ProductRegistry.sol\":4290:4303  2447 * _month */\n      tag_262\n        /* \"ProductRegistry.sol\":4239:4265  int _month = 80 * L / 2447 */\n      dup4\n        /* \"ProductRegistry.sol\":4290:4294  2447 */\n      0x098f\n        /* \"ProductRegistry.sol\":4290:4303  2447 * _month */\n      tag_245\n      jump\t// in\n    tag_262:\n        /* \"ProductRegistry.sol\":4290:4308  2447 * _month / 80 */\n      tag_263\n      swap2\n      swap1\n      tag_247\n      jump\t// in\n    tag_263:\n        /* \"ProductRegistry.sol\":4286:4308  L - 2447 * _month / 80 */\n      tag_264\n      swap1\n        /* \"ProductRegistry.sol\":4286:4287  L */\n      dup7\n        /* \"ProductRegistry.sol\":4286:4308  L - 2447 * _month / 80 */\n      tag_252\n      jump\t// in\n    tag_264:\n        /* \"ProductRegistry.sol\":4275:4308  int _day = L - 2447 * _month / 80 */\n      swap1\n      pop\n        /* \"ProductRegistry.sol\":4322:4333  _month / 11 */\n      tag_265\n        /* \"ProductRegistry.sol\":4331:4333  11 */\n      0x0b\n        /* \"ProductRegistry.sol\":4322:4328  _month */\n      dup4\n        /* \"ProductRegistry.sol\":4322:4333  _month / 11 */\n      tag_247\n      jump\t// in\n    tag_265:\n        /* \"ProductRegistry.sol\":4318:4333  L = _month / 11 */\n      swap5\n      pop\n        /* \"ProductRegistry.sol\":4365:4371  12 * L */\n      tag_266\n        /* \"ProductRegistry.sol\":4318:4333  L = _month / 11 */\n      dup6\n        /* \"ProductRegistry.sol\":4365:4367  12 */\n      0x0c\n        /* \"ProductRegistry.sol\":4365:4371  12 * L */\n      tag_245\n      jump\t// in\n    tag_266:\n        /* \"ProductRegistry.sol\":4352:4362  _month + 2 */\n      tag_267\n        /* \"ProductRegistry.sol\":4352:4358  _month */\n      dup4\n        /* \"ProductRegistry.sol\":4361:4362  2 */\n      0x02\n        /* \"ProductRegistry.sol\":4352:4362  _month + 2 */\n      tag_242\n      jump\t// in\n    tag_267:\n        /* \"ProductRegistry.sol\":4352:4371  _month + 2 - 12 * L */\n      tag_268\n      swap2\n      swap1\n      tag_252\n      jump\t// in\n    tag_268:\n        /* \"ProductRegistry.sol\":4343:4371  _month = _month + 2 - 12 * L */\n      swap2\n      pop\n        /* \"ProductRegistry.sol\":4414:4415  L */\n      dup5\n        /* \"ProductRegistry.sol\":4406:4411  _year */\n      dup4\n        /* \"ProductRegistry.sol\":4396:4402  N - 49 */\n      tag_269\n        /* \"ProductRegistry.sol\":4400:4402  49 */\n      0x31\n        /* \"ProductRegistry.sol\":4396:4397  N */\n      dup8\n        /* \"ProductRegistry.sol\":4396:4402  N - 49 */\n      tag_252\n      jump\t// in\n    tag_269:\n        /* \"ProductRegistry.sol\":4389:4403  100 * (N - 49) */\n      tag_270\n      swap1\n        /* \"ProductRegistry.sol\":4389:4392  100 */\n      0x64\n        /* \"ProductRegistry.sol\":4389:4403  100 * (N - 49) */\n      tag_245\n      jump\t// in\n    tag_270:\n        /* \"ProductRegistry.sol\":4389:4411  100 * (N - 49) + _year */\n      tag_271\n      swap2\n      swap1\n      tag_242\n      jump\t// in\n    tag_271:\n        /* \"ProductRegistry.sol\":4389:4415  100 * (N - 49) + _year + L */\n      tag_272\n      swap2\n      swap1\n      tag_242\n      jump\t// in\n    tag_272:\n        /* \"ProductRegistry.sol\":4381:4415  _year = 100 * (N - 49) + _year + L */\n      swap11\n        /* \"ProductRegistry.sol\":4475:4481  _month */\n      swap2\n      swap10\n      pop\n        /* \"ProductRegistry.sol\":4503:4507  _day */\n      swap8\n      pop\n        /* \"ProductRegistry.sol\":3866:4515  function daysToDate(uint _days) internal pure returns (uint year, uint month, uint day) {... */\n      swap6\n      pop\n      pop\n      pop\n      pop\n      pop\n      pop\n      jump\t// out\n        /* \"ProductRegistry.sol\":4551:5078  function uint2str(uint _i) internal pure returns (string memory) {... */\n    tag_231:\n        /* \"ProductRegistry.sol\":4601:4614  string memory */\n      0x60\n        /* \"ProductRegistry.sol\":4630:4632  _i */\n      dup2\n        /* \"ProductRegistry.sol\":4636:4637  0 */\n      0x00\n        /* \"ProductRegistry.sol\":4630:4637  _i == 0 */\n      sub\n        /* \"ProductRegistry.sol\":4626:4649  if (_i == 0) return \"0\" */\n      tag_274\n      jumpi\n      pop\n      pop\n        /* \"ProductRegistry.sol\":4639:4649  return \"0\" */\n      0x40\n      dup1\n      mload\n      dup1\n      dup3\n      add\n      swap1\n      swap2\n      mstore\n      0x01\n      dup2\n      mstore\n      shl(0xfc, 0x03)\n      0x20\n      dup3\n      add\n      mstore\n      swap1\n        /* \"ProductRegistry.sol\":4551:5078  function uint2str(uint _i) internal pure returns (string memory) {... */\n      jump\t// out\n        /* \"ProductRegistry.sol\":4626:4649  if (_i == 0) return \"0\" */\n    tag_274:\n        /* \"ProductRegistry.sol\":4668:4670  _i */\n      dup2\n        /* \"ProductRegistry.sol\":4659:4665  uint j */\n      0x00\n        /* \"ProductRegistry.sol\":4701:4770  while (j != 0) {... */\n    tag_275:\n        /* \"ProductRegistry.sol\":4708:4714  j != 0 */\n      dup2\n      iszero\n        /* \"ProductRegistry.sol\":4701:4770  while (j != 0) {... */\n      tag_276\n      jumpi\n        /* \"ProductRegistry.sol\":4730:4738  length++ */\n      dup1\n      tag_277\n      dup2\n      tag_278\n      jump\t// in\n    tag_277:\n      swap2\n      pop\n        /* \"ProductRegistry.sol\":4752:4759  j /= 10 */\n      tag_279\n      swap1\n      pop\n        /* \"ProductRegistry.sol\":4757:4759  10 */\n      0x0a\n        /* \"ProductRegistry.sol\":4752:4759  j /= 10 */\n      dup4\n      tag_228\n      jump\t// in\n    tag_279:\n      swap2\n      pop\n        /* \"ProductRegistry.sol\":4701:4770  while (j != 0) {... */\n      jump(tag_275)\n    tag_276:\n        /* \"ProductRegistry.sol\":4779:4796  bytes memory bstr */\n      0x00\n        /* \"ProductRegistry.sol\":4809:4815  length */\n      dup2\n        /* \"ProductRegistry.sol\":4799:4816  new bytes(length) */\n      0xffffffffffffffff\n      dup2\n      gt\n      iszero\n      tag_281\n      jumpi\n      tag_281\n      tag_282\n      jump\t// in\n    tag_281:\n      mload(0x40)\n      swap1\n      dup1\n      dup3\n      mstore\n      dup1\n      0x1f\n      add\n      not(0x1f)\n      and\n      0x20\n      add\n      dup3\n      add\n      0x40\n      mstore\n      dup1\n      iszero\n      tag_283\n      jumpi\n      0x20\n      dup3\n      add\n      dup2\n      dup1\n      calldatasize\n      dup4\n      calldatacopy\n      add\n      swap1\n      pop\n    tag_283:\n      pop\n        /* \"ProductRegistry.sol\":4779:4816  bytes memory bstr = new bytes(length) */\n      swap1\n      pop\n        /* \"ProductRegistry.sol\":4835:4841  length */\n      dup2\n        /* \"ProductRegistry.sol\":4851:5043  while (_i != 0) {... */\n    tag_284:\n        /* \"ProductRegistry.sol\":4858:4865  _i != 0 */\n      dup6\n      iszero\n        /* \"ProductRegistry.sol\":4851:5043  while (_i != 0) {... */\n      tag_285\n      jumpi\n        /* \"ProductRegistry.sol\":4885:4888  k-1 */\n      tag_286\n        /* \"ProductRegistry.sol\":4887:4888  1 */\n      0x01\n        /* \"ProductRegistry.sol\":4885:4886  k */\n      dup3\n        /* \"ProductRegistry.sol\":4885:4888  k-1 */\n      tag_287\n      jump\t// in\n    tag_286:\n        /* \"ProductRegistry.sol\":4881:4888  k = k-1 */\n      swap1\n      pop\n        /* \"ProductRegistry.sol\":4902:4912  uint8 temp */\n      0x00\n        /* \"ProductRegistry.sol\":4932:4939  _i / 10 */\n      tag_288\n        /* \"ProductRegistry.sol\":4937:4939  10 */\n      0x0a\n        /* \"ProductRegistry.sol\":4932:4934  _i */\n      dup9\n        /* \"ProductRegistry.sol\":4932:4939  _i / 10 */\n      tag_228\n      jump\t// in\n    tag_288:\n        /* \"ProductRegistry.sol\":4932:4944  _i / 10 * 10 */\n      tag_289\n      swap1\n        /* \"ProductRegistry.sol\":4942:4944  10 */\n      0x0a\n        /* \"ProductRegistry.sol\":4932:4944  _i / 10 * 10 */\n      tag_290\n      jump\t// in\n    tag_289:\n        /* \"ProductRegistry.sol\":4927:4944  _i - _i / 10 * 10 */\n      tag_291\n      swap1\n        /* \"ProductRegistry.sol\":4927:4929  _i */\n      dup9\n        /* \"ProductRegistry.sol\":4927:4944  _i - _i / 10 * 10 */\n      tag_287\n      jump\t// in\n    tag_291:\n        /* \"ProductRegistry.sol\":4916:4945  48 + uint8(_i - _i / 10 * 10) */\n      tag_292\n      swap1\n        /* \"ProductRegistry.sol\":4916:4918  48 */\n      0x30\n        /* \"ProductRegistry.sol\":4916:4945  48 + uint8(_i - _i / 10 * 10) */\n      tag_293\n      jump\t// in\n    tag_292:\n        /* \"ProductRegistry.sol\":4902:4946  uint8 temp = (48 + uint8(_i - _i / 10 * 10)) */\n      swap1\n      pop\n        /* \"ProductRegistry.sol\":4960:4969  bytes1 b1 */\n      0x00\n        /* \"ProductRegistry.sol\":4979:4983  temp */\n      dup2\n        /* \"ProductRegistry.sol\":4972:4984  bytes1(temp) */\n      0xf8\n      shl\n        /* \"ProductRegistry.sol\":4960:4984  bytes1 b1 = bytes1(temp) */\n      swap1\n      pop\n        /* \"ProductRegistry.sol\":5008:5010  b1 */\n      dup1\n        /* \"ProductRegistry.sol\":4998:5002  bstr */\n      dup5\n        /* \"ProductRegistry.sol\":5003:5004  k */\n      dup5\n        /* \"ProductRegistry.sol\":4998:5005  bstr[k] */\n      dup2\n      mload\n      dup2\n      lt\n      tag_295\n      jumpi\n      tag_295\n      tag_296\n      jump\t// in\n    tag_295:\n      0x20\n      add\n      add\n        /* \"ProductRegistry.sol\":4998:5010  bstr[k] = b1 */\n      swap1\n      not(0xffffffffffffffffffffffffffffffffffffffffffffffffffffffffffffff)\n      and\n      swap1\n      dup2\n      0x00\n      byte\n      swap1\n      mstore8\n      pop\n        /* \"ProductRegistry.sol\":5024:5032  _i /= 10 */\n      tag_297\n        /* \"ProductRegistry.sol\":5030:5032  10 */\n      0x0a\n        /* \"ProductRegistry.sol\":5024:5032  _i /= 10 */\n      dup10\n      tag_228\n      jump\t// in\n    tag_297:\n      swap8\n      pop\n        /* \"ProductRegistry.sol\":4867:5043  {... */\n      pop\n      pop\n        /* \"ProductRegistry.sol\":4851:5043  while (_i != 0) {... */\n      jump(tag_284)\n    tag_285:\n      pop\n        /* \"ProductRegistry.sol\":5066:5070  bstr */\n      swap5\n        /* \"ProductRegistry.sol\":4551:5078  function uint2str(uint _i) internal pure returns (string memory) {... */\n      swap4\n      pop\n      pop\n      pop\n      pop\n      jump\t// out\n        /* \"#utility.yul\":14:141   */\n    tag_282:\n        /* \"#utility.yul\":75:85   */\n      0x4e487b71\n        /* \"#utility.yul\":70:73   */\n      0xe0\n        /* \"#utility.yul\":66:86   */\n      shl\n        /* \"#utility.yul\":63:64   */\n      0x00\n        /* \"#utility.yul\":56:87   */\n      mstore\n        /* \"#utility.yul\":106:110   */\n      0x41\n        /* \"#utility.yul\":103:104   */\n      0x04\n        /* \"#utility.yul\":96:111   */\n      mstore\n        /* \"#utility.yul\":130:134   */\n      0x24\n        /* \"#utility.yul\":127:128   */\n      0x00\n        /* \"#utility.yul\":120:135   */\n      revert\n        /* \"#utility.yul\":146:865   */\n    tag_298:\n        /* \"#utility.yul\":189:194   */\n      0x00\n        /* \"#utility.yul\":242:245   */\n      dup3\n        /* \"#utility.yul\":235:239   */\n      0x1f\n        /* \"#utility.yul\":227:233   */\n      dup4\n        /* \"#utility.yul\":223:240   */\n      add\n        /* \"#utility.yul\":219:246   */\n      slt\n        /* \"#utility.yul\":209:264   */\n      tag_310\n      jumpi\n        /* \"#utility.yul\":260:261   */\n      0x00\n        /* \"#utility.yul\":257:258   */\n      dup1\n        /* \"#utility.yul\":250:262   */\n      revert\n        /* \"#utility.yul\":209:264   */\n    tag_310:\n        /* \"#utility.yul\":296:302   */\n      dup2\n        /* \"#utility.yul\":283:303   */\n      calldataload\n        /* \"#utility.yul\":322:340   */\n      0xffffffffffffffff\n        /* \"#utility.yul\":359:361   */\n      dup1\n        /* \"#utility.yul\":355:357   */\n      dup3\n        /* \"#utility.yul\":352:362   */\n      gt\n        /* \"#utility.yul\":349:385   */\n      iszero\n      tag_312\n      jumpi\n        /* \"#utility.yul\":365:383   */\n      tag_312\n      tag_282\n      jump\t// in\n    tag_312:\n        /* \"#utility.yul\":440:442   */\n      0x40\n        /* \"#utility.yul\":434:443   */\n      mload\n        /* \"#utility.yul\":408:410   */\n      0x1f\n        /* \"#utility.yul\":494:507   */\n      dup4\n      add\n      not(0x1f)\n        /* \"#utility.yul\":490:512   */\n      swap1\n      dup2\n      and\n        /* \"#utility.yul\":514:516   */\n      0x3f\n        /* \"#utility.yul\":486:517   */\n      add\n        /* \"#utility.yul\":482:522   */\n      and\n        /* \"#utility.yul\":470:523   */\n      dup2\n      add\n      swap1\n        /* \"#utility.yul\":538:556   */\n      dup3\n      dup3\n      gt\n        /* \"#utility.yul\":558:580   */\n      dup2\n      dup4\n      lt\n        /* \"#utility.yul\":535:581   */\n      or\n        /* \"#utility.yul\":532:604   */\n      iszero\n      tag_314\n      jumpi\n        /* \"#utility.yul\":584:602   */\n      tag_314\n      tag_282\n      jump\t// in\n    tag_314:\n        /* \"#utility.yul\":624:634   */\n      dup2\n        /* \"#utility.yul\":620:622   */\n      0x40\n        /* \"#utility.yul\":613:635   */\n      mstore\n        /* \"#utility.yul\":659:661   */\n      dup4\n        /* \"#utility.yul\":651:657   */\n      dup2\n        /* \"#utility.yul\":644:662   */\n      mstore\n        /* \"#utility.yul\":705:708   */\n      dup7\n        /* \"#utility.yul\":698:702   */\n      0x20\n        /* \"#utility.yul\":693:695   */\n      dup6\n        /* \"#utility.yul\":685:691   */\n      dup9\n        /* \"#utility.yul\":681:696   */\n      add\n        /* \"#utility.yul\":677:703   */\n      add\n        /* \"#utility.yul\":674:709   */\n      gt\n        /* \"#utility.yul\":671:726   */\n      iszero\n      tag_315\n      jumpi\n        /* \"#utility.yul\":722:723   */\n      0x00\n        /* \"#utility.yul\":719:720   */\n      dup1\n        /* \"#utility.yul\":712:724   */\n      revert\n        /* \"#utility.yul\":671:726   */\n    tag_315:\n        /* \"#utility.yul\":786:788   */\n      dup4\n        /* \"#utility.yul\":779:783   */\n      0x20\n        /* \"#utility.yul\":771:777   */\n      dup8\n        /* \"#utility.yul\":767:784   */\n      add\n        /* \"#utility.yul\":760:764   */\n      0x20\n        /* \"#utility.yul\":752:758   */\n      dup4\n        /* \"#utility.yul\":748:765   */\n      add\n        /* \"#utility.yul\":735:789   */\n      calldatacopy\n        /* \"#utility.yul\":833:834   */\n      0x00\n        /* \"#utility.yul\":826:830   */\n      0x20\n        /* \"#utility.yul\":821:823   */\n      dup6\n        /* \"#utility.yul\":813:819   */\n      dup4\n        /* \"#utility.yul\":809:824   */\n      add\n        /* \"#utility.yul\":805:831   */\n      add\n        /* \"#utility.yul\":798:835   */\n      mstore\n        /* \"#utility.yul\":853:859   */\n      dup1\n        /* \"#utility.yul\":844:859   */\n      swap5\n      pop\n      pop\n      pop\n      pop\n      pop\n        /* \"#utility.yul\":146:865   */\n      swap3\n      swap2\n      pop\n      pop\n      jump\t// out\n        /* \"#utility.yul\":870:1192   */\n    tag_22:\n        /* \"#utility.yul\":939:945   */\n      0x00\n        /* \"#utility.yul\":992:994   */\n      0x20\n        /* \"#utility.yul\":980:989   */\n      dup3\n        /* \"#utility.yul\":971:978   */\n      dup5\n        /* \"#utility.yul\":967:990   */\n      sub\n        /* \"#utility.yul\":963:995   */\n      slt\n        /* \"#utility.yul\":960:1012   */\n      iszero\n      tag_317\n      jumpi\n        /* \"#utility.yul\":1008:1009   */\n      0x00\n        /* \"#utility.yul\":1005:1006   */\n      dup1\n        /* \"#utility.yul\":998:1010   */\n      revert\n        /* \"#utility.yul\":960:1012   */\n    tag_317:\n        /* \"#utility.yul\":1048:1057   */\n      dup2\n        /* \"#utility.yul\":1035:1058   */\n      calldataload\n        /* \"#utility.yul\":1081:1099   */\n      0xffffffffffffffff\n        /* \"#utility.yul\":1073:1079   */\n      dup2\n        /* \"#utility.yul\":1070:1100   */\n      gt\n        /* \"#utility.yul\":1067:1117   */\n      iszero\n      tag_318\n      jumpi\n        /* \"#utility.yul\":1113:1114   */\n      0x00\n        /* \"#utility.yul\":1110:1111   */\n      dup1\n        /* \"#utility.yul\":1103:1115   */\n      revert\n        /* \"#utility.yul\":1067:1117   */\n    tag_318:\n        /* \"#utility.yul\":1136:1186   */\n      tag_319\n        /* \"#utility.yul\":1178:1185   */\n      dup5\n        /* \"#utility.yul\":1169:1175   */\n      dup3\n        /* \"#utility.yul\":1158:1167   */\n      dup6\n        /* \"#utility.yul\":1154:1176   */\n      add\n        /* \"#utility.yul\":1136:1186   */\n      tag_298\n      jump\t// in\n    tag_319:\n        /* \"#utility.yul\":1126:1186   */\n      swap5\n        /* \"#utility.yul\":870:1192   */\n      swap4\n      pop\n      pop\n      pop\n      pop\n      jump\t// out\n        /* \"#utility.yul\":1197:1497   */\n    tag_299:\n        /* \"#utility.yul\":1250:1253   */\n      0x00\n        /* \"#utility.yul\":1288:1293   */\n      dup2\n        /* \"#utility.yul\":1282:1294   */\n      mload\n        /* \"#utility.yul\":1315:1321   */\n      dup1\n        /* \"#utility.yul\":1310:1313   */\n      dup5\n        /* \"#utility.yul\":1303:1322   */\n      mstore\n        /* \"#utility.yul\":1371:1377   */\n      dup1\n        /* \"#utility.yul\":1364:1368   */\n      0x20\n        /* \"#utility.yul\":1357:1362   */\n      dup5\n        /* \"#utility.yul\":1353:1369   */\n      add\n        /* \"#utility.yul\":1346:1350   */\n      0x20\n        /* \"#utility.yul\":1341:1344   */\n      dup7\n        /* \"#utility.yul\":1337:1351   */\n      add\n        /* \"#utility.yul\":1331:1378   */\n      mcopy\n        /* \"#utility.yul\":1423:1424   */\n      0x00\n        /* \"#utility.yul\":1416:1420   */\n      0x20\n        /* \"#utility.yul\":1407:1413   */\n      dup3\n        /* \"#utility.yul\":1402:1405   */\n      dup7\n        /* \"#utility.yul\":1398:1414   */\n      add\n        /* \"#utility.yul\":1394:1421   */\n      add\n        /* \"#utility.yul\":1387:1425   */\n      mstore\n        /* \"#utility.yul\":1486:1490   */\n      0x20\n        /* \"#utility.yul\":1479:1481   */\n      0x1f\n        /* \"#utility.yul\":1475:1482   */\n      not\n        /* \"#utility.yul\":1470:1472   */\n      0x1f\n        /* \"#utility.yul\":1462:1468   */\n      dup4\n        /* \"#utility.yul\":1458:1473   */\n      add\n        /* \"#utility.yul\":1454:1483   */\n      and\n        /* \"#utility.yul\":1449:1452   */\n      dup6\n        /* \"#utility.yul\":1445:1484   */\n      add\n        /* \"#utility.yul\":1441:1491   */\n      add\n        /* \"#utility.yul\":1434:1491   */\n      swap2\n      pop\n      pop\n        /* \"#utility.yul\":1197:1497   */\n      swap3\n      swap2\n      pop\n      pop\n      jump\t// out\n        /* \"#utility.yul\":1502:2736   */\n    tag_25:\n        /* \"#utility.yul\":1886:1890   */\n      0x00\n        /* \"#utility.yul\":1915:1918   */\n      0x0120\n        /* \"#utility.yul\":1945:1947   */\n      dup1\n        /* \"#utility.yul\":1934:1943   */\n      dup4\n        /* \"#utility.yul\":1927:1948   */\n      mstore\n        /* \"#utility.yul\":1971:2027   */\n      tag_322\n        /* \"#utility.yul\":2023:2025   */\n      dup2\n        /* \"#utility.yul\":2012:2021   */\n      dup5\n        /* \"#utility.yul\":2008:2026   */\n      add\n        /* \"#utility.yul\":2000:2006   */\n      dup14\n        /* \"#utility.yul\":1971:2027   */\n      tag_299\n      jump\t// in\n    tag_322:\n        /* \"#utility.yul\":1957:2027   */\n      swap1\n      pop\n        /* \"#utility.yul\":2075:2084   */\n      dup3\n        /* \"#utility.yul\":2067:2073   */\n      dup2\n        /* \"#utility.yul\":2063:2085   */\n      sub\n        /* \"#utility.yul\":2058:2060   */\n      0x20\n        /* \"#utility.yul\":2047:2056   */\n      dup5\n        /* \"#utility.yul\":2043:2061   */\n      add\n        /* \"#utility.yul\":2036:2086   */\n      mstore\n        /* \"#utility.yul\":2109:2153   */\n      tag_323\n        /* \"#utility.yul\":2146:2152   */\n      dup2\n        /* \"#utility.yul\":2138:2144   */\n      dup13\n        /* \"#utility.yul\":2109:2153   */\n      tag_299\n      jump\t// in\n    tag_323:\n        /* \"#utility.yul\":2095:2153   */\n      swap1\n      pop\n      sub(shl(0xa0, 0x01), 0x01)\n        /* \"#utility.yul\":2262:2264   */\n      dup1\n        /* \"#utility.yul\":2254:2260   */\n      dup12\n        /* \"#utility.yul\":2250:2265   */\n      and\n        /* \"#utility.yul\":2245:2247   */\n      0x40\n        /* \"#utility.yul\":2234:2243   */\n      dup6\n        /* \"#utility.yul\":2230:2248   */\n      add\n        /* \"#utility.yul\":2223:2266   */\n      mstore\n        /* \"#utility.yul\":2314:2323   */\n      dup4\n        /* \"#utility.yul\":2306:2312   */\n      dup3\n        /* \"#utility.yul\":2302:2324   */\n      sub\n        /* \"#utility.yul\":2297:2299   */\n      0x60\n        /* \"#utility.yul\":2286:2295   */\n      dup6\n        /* \"#utility.yul\":2282:2300   */\n      add\n        /* \"#utility.yul\":2275:2325   */\n      mstore\n        /* \"#utility.yul\":2348:2392   */\n      tag_324\n        /* \"#utility.yul\":2385:2391   */\n      dup3\n        /* \"#utility.yul\":2377:2383   */\n      dup12\n        /* \"#utility.yul\":2348:2392   */\n      tag_299\n      jump\t// in\n    tag_324:\n        /* \"#utility.yul\":2429:2444   */\n      swap1\n      dup10\n      and\n        /* \"#utility.yul\":2423:2426   */\n      0x80\n        /* \"#utility.yul\":2408:2427   */\n      dup6\n      add\n        /* \"#utility.yul\":2401:2445   */\n      mstore\n        /* \"#utility.yul\":2482:2504   */\n      dup4\n      dup2\n      sub\n        /* \"#utility.yul\":2476:2479   */\n      0xa0\n        /* \"#utility.yul\":2461:2480   */\n      dup6\n      add\n        /* \"#utility.yul\":2454:2505   */\n      mstore\n        /* \"#utility.yul\":2334:2392   */\n      swap1\n      pop\n        /* \"#utility.yul\":2522:2566   */\n      tag_325\n        /* \"#utility.yul\":2334:2392   */\n      dup2\n        /* \"#utility.yul\":2551:2557   */\n      dup9\n        /* \"#utility.yul\":2522:2566   */\n      tag_299\n      jump\t// in\n    tag_325:\n        /* \"#utility.yul\":2610:2624   */\n      swap6\n      iszero\n        /* \"#utility.yul\":2603:2625   */\n      iszero\n        /* \"#utility.yul\":2597:2600   */\n      0xc0\n        /* \"#utility.yul\":2582:2601   */\n      dup5\n      add\n        /* \"#utility.yul\":2575:2626   */\n      mstore\n      pop\n      pop\n        /* \"#utility.yul\":2670:2684   */\n      swap2\n      iszero\n        /* \"#utility.yul\":2663:2685   */\n      iszero\n        /* \"#utility.yul\":2657:2660   */\n      0xe0\n        /* \"#utility.yul\":2642:2661   */\n      dup4\n      add\n        /* \"#utility.yul\":2635:2686   */\n      mstore\n        /* \"#utility.yul\":2717:2720   */\n      0x0100\n        /* \"#utility.yul\":2702:2721   */\n      swap1\n      swap2\n      add\n        /* \"#utility.yul\":2695:2730   */\n      mstore\n        /* \"#utility.yul\":2514:2566   */\n      swap7\n        /* \"#utility.yul\":1502:2736   */\n      swap6\n      pop\n      pop\n      pop\n      pop\n      pop\n      pop\n      jump\t// out\n        /* \"#utility.yul\":2741:2972   */\n    tag_30:\n        /* \"#utility.yul\":2890:2892   */\n      0x20\n        /* \"#utility.yul\":2879:2888   */\n      dup2\n        /* \"#utility.yul\":2872:2893   */\n      mstore\n        /* \"#utility.yul\":2853:2857   */\n      0x00\n        /* \"#utility.yul\":2910:2966   */\n      tag_327\n        /* \"#utility.yul\":2962:2964   */\n      0x20\n        /* \"#utility.yul\":2951:2960   */\n      dup4\n        /* \"#utility.yul\":2947:2965   */\n      add\n        /* \"#utility.yul\":2939:2945   */\n      dup5\n        /* \"#utility.yul\":2910:2966   */\n      tag_299\n      jump\t// in\n    tag_327:\n        /* \"#utility.yul\":2902:2966   */\n      swap4\n        /* \"#utility.yul\":2741:2972   */\n      swap3\n      pop\n      pop\n      pop\n      jump\t// out\n        /* \"#utility.yul\":2977:3173   */\n    tag_300:\n        /* \"#utility.yul\":3045:3065   */\n      dup1\n      calldataload\n      sub(shl(0xa0, 0x01), 0x01)\n        /* \"#utility.yul\":3094:3148   */\n      dup2\n      and\n        /* \"#utility.yul\":3084:3149   */\n      dup2\n      eq\n        /* \"#utility.yul\":3074:3167   */\n      tag_329\n      jumpi\n        /* \"#utility.yul\":3163:3164   */\n      0x00\n        /* \"#utility.yul\":3160:3161   */\n      dup1\n        /* \"#utility.yul\":3153:3165   */\n      revert\n        /* \"#utility.yul\":3074:3167   */\n    tag_329:\n        /* \"#utility.yul\":2977:3173   */\n      swap2\n      swap1\n      pop\n      jump\t// out\n        /* \"#utility.yul\":3178:3364   */\n    tag_33:\n        /* \"#utility.yul\":3237:3243   */\n      0x00\n        /* \"#utility.yul\":3290:3292   */\n      0x20\n        /* \"#utility.yul\":3278:3287   */\n      dup3\n        /* \"#utility.yul\":3269:3276   */\n      dup5\n        /* \"#utility.yul\":3265:3288   */\n      sub\n        /* \"#utility.yul\":3261:3293   */\n      slt\n        /* \"#utility.yul\":3258:3310   */\n      iszero\n      tag_331\n      jumpi\n        /* \"#utility.yul\":3306:3307   */\n      0x00\n        /* \"#utility.yul\":3303:3304   */\n      dup1\n        /* \"#utility.yul\":3296:3308   */\n      revert\n        /* \"#utility.yul\":3258:3310   */\n    tag_331:\n        /* \"#utility.yul\":3329:3358   */\n      tag_327\n        /* \"#utility.yul\":3348:3357   */\n      dup3\n        /* \"#utility.yul\":3329:3358   */\n      tag_300\n      jump\t// in\n        /* \"#utility.yul\":3369:4183   */\n    tag_36:\n        /* \"#utility.yul\":3531:3535   */\n      0x00\n        /* \"#utility.yul\":3560:3562   */\n      0x20\n        /* \"#utility.yul\":3600:3602   */\n      dup1\n        /* \"#utility.yul\":3589:3598   */\n      dup4\n        /* \"#utility.yul\":3585:3603   */\n      add\n        /* \"#utility.yul\":3630:3632   */\n      0x20\n        /* \"#utility.yul\":3619:3628   */\n      dup5\n        /* \"#utility.yul\":3612:3633   */\n      mstore\n        /* \"#utility.yul\":3653:3659   */\n      dup1\n        /* \"#utility.yul\":3688:3694   */\n      dup6\n        /* \"#utility.yul\":3682:3695   */\n      mload\n        /* \"#utility.yul\":3719:3725   */\n      dup1\n        /* \"#utility.yul\":3711:3717   */\n      dup4\n        /* \"#utility.yul\":3704:3726   */\n      mstore\n        /* \"#utility.yul\":3757:3759   */\n      0x40\n        /* \"#utility.yul\":3746:3755   */\n      dup7\n        /* \"#utility.yul\":3742:3760   */\n      add\n        /* \"#utility.yul\":3735:3760   */\n      swap2\n      pop\n        /* \"#utility.yul\":3819:3821   */\n      0x40\n        /* \"#utility.yul\":3809:3815   */\n      dup2\n        /* \"#utility.yul\":3806:3807   */\n      0x05\n        /* \"#utility.yul\":3802:3816   */\n      shl\n        /* \"#utility.yul\":3791:3800   */\n      dup8\n        /* \"#utility.yul\":3787:3817   */\n      add\n        /* \"#utility.yul\":3783:3822   */\n      add\n        /* \"#utility.yul\":3769:3822   */\n      swap3\n      pop\n        /* \"#utility.yul\":3857:3859   */\n      0x20\n        /* \"#utility.yul\":3849:3855   */\n      dup8\n        /* \"#utility.yul\":3845:3860   */\n      add\n        /* \"#utility.yul\":3878:3879   */\n      0x00\n        /* \"#utility.yul\":3888:4154   */\n    tag_334:\n        /* \"#utility.yul\":3902:3908   */\n      dup3\n        /* \"#utility.yul\":3899:3900   */\n      dup2\n        /* \"#utility.yul\":3896:3909   */\n      lt\n        /* \"#utility.yul\":3888:4154   */\n      iszero\n      tag_336\n      jumpi\n        /* \"#utility.yul\":3995:3997   */\n      0x3f\n        /* \"#utility.yul\":3991:3998   */\n      not\n        /* \"#utility.yul\":3979:3988   */\n      dup9\n        /* \"#utility.yul\":3971:3977   */\n      dup7\n        /* \"#utility.yul\":3967:3989   */\n      sub\n        /* \"#utility.yul\":3963:3999   */\n      add\n        /* \"#utility.yul\":3958:3961   */\n      dup5\n        /* \"#utility.yul\":3951:4000   */\n      mstore\n        /* \"#utility.yul\":4023:4074   */\n      tag_337\n        /* \"#utility.yul\":4067:4073   */\n      dup6\n        /* \"#utility.yul\":4058:4064   */\n      dup4\n        /* \"#utility.yul\":4052:4065   */\n      mload\n        /* \"#utility.yul\":4023:4074   */\n      tag_299\n      jump\t// in\n    tag_337:\n        /* \"#utility.yul\":4013:4074   */\n      swap5\n      pop\n        /* \"#utility.yul\":4132:4144   */\n      swap3\n      dup6\n      add\n      swap3\n        /* \"#utility.yul\":4097:4112   */\n      swap1\n      dup6\n      add\n      swap1\n        /* \"#utility.yul\":3924:3925   */\n      0x01\n        /* \"#utility.yul\":3917:3926   */\n      add\n        /* \"#utility.yul\":3888:4154   */\n      jump(tag_334)\n    tag_336:\n      pop\n        /* \"#utility.yul\":4171:4177   */\n      swap3\n      swap8\n        /* \"#utility.yul\":3369:4183   */\n      swap7\n      pop\n      pop\n      pop\n      pop\n      pop\n      pop\n      pop\n      jump\t// out\n        /* \"#utility.yul\":4380:4634   */\n    tag_48:\n        /* \"#utility.yul\":4448:4454   */\n      0x00\n        /* \"#utility.yul\":4456:4462   */\n      dup1\n        /* \"#utility.yul\":4509:4511   */\n      0x40\n        /* \"#utility.yul\":4497:4506   */\n      dup4\n        /* \"#utility.yul\":4488:4495   */\n      dup6\n        /* \"#utility.yul\":4484:4507   */\n      sub\n        /* \"#utility.yul\":4480:4512   */\n      slt\n        /* \"#utility.yul\":4477:4529   */\n      iszero\n      tag_340\n      jumpi\n        /* \"#utility.yul\":4525:4526   */\n      0x00\n        /* \"#utility.yul\":4522:4523   */\n      dup1\n        /* \"#utility.yul\":4515:4527   */\n      revert\n        /* \"#utility.yul\":4477:4529   */\n    tag_340:\n        /* \"#utility.yul\":4548:4577   */\n      tag_341\n        /* \"#utility.yul\":4567:4576   */\n      dup4\n        /* \"#utility.yul\":4548:4577   */\n      tag_300\n      jump\t// in\n    tag_341:\n        /* \"#utility.yul\":4538:4577   */\n      swap5\n        /* \"#utility.yul\":4624:4626   */\n      0x20\n        /* \"#utility.yul\":4609:4627   */\n      swap4\n      swap1\n      swap4\n      add\n        /* \"#utility.yul\":4596:4628   */\n      calldataload\n      swap4\n      pop\n      pop\n      pop\n        /* \"#utility.yul\":4380:4634   */\n      jump\t// out\n        /* \"#utility.yul\":4639:5583   */\n    tag_61:\n        /* \"#utility.yul\":4765:4771   */\n      0x00\n        /* \"#utility.yul\":4773:4779   */\n      dup1\n        /* \"#utility.yul\":4781:4787   */\n      0x00\n        /* \"#utility.yul\":4789:4795   */\n      dup1\n        /* \"#utility.yul\":4842:4845   */\n      0x80\n        /* \"#utility.yul\":4830:4839   */\n      dup6\n        /* \"#utility.yul\":4821:4828   */\n      dup8\n        /* \"#utility.yul\":4817:4840   */\n      sub\n        /* \"#utility.yul\":4813:4846   */\n      slt\n        /* \"#utility.yul\":4810:4863   */\n      iszero\n      tag_343\n      jumpi\n        /* \"#utility.yul\":4859:4860   */\n      0x00\n        /* \"#utility.yul\":4856:4857   */\n      dup1\n        /* \"#utility.yul\":4849:4861   */\n      revert\n        /* \"#utility.yul\":4810:4863   */\n    tag_343:\n        /* \"#utility.yul\":4899:4908   */\n      dup5\n        /* \"#utility.yul\":4886:4909   */\n      calldataload\n        /* \"#utility.yul\":4928:4946   */\n      0xffffffffffffffff\n        /* \"#utility.yul\":4969:4971   */\n      dup1\n        /* \"#utility.yul\":4961:4967   */\n      dup3\n        /* \"#utility.yul\":4958:4972   */\n      gt\n        /* \"#utility.yul\":4955:4989   */\n      iszero\n      tag_344\n      jumpi\n        /* \"#utility.yul\":4985:4986   */\n      0x00\n        /* \"#utility.yul\":4982:4983   */\n      dup1\n        /* \"#utility.yul\":4975:4987   */\n      revert\n        /* \"#utility.yul\":4955:4989   */\n    tag_344:\n        /* \"#utility.yul\":5008:5058   */\n      tag_345\n        /* \"#utility.yul\":5050:5057   */\n      dup9\n        /* \"#utility.yul\":5041:5047   */\n      dup4\n        /* \"#utility.yul\":5030:5039   */\n      dup10\n        /* \"#utility.yul\":5026:5048   */\n      add\n        /* \"#utility.yul\":5008:5058   */\n      tag_298\n      jump\t// in\n    tag_345:\n        /* \"#utility.yul\":4998:5058   */\n      swap6\n      pop\n        /* \"#utility.yul\":5111:5113   */\n      0x20\n        /* \"#utility.yul\":5100:5109   */\n      dup8\n        /* \"#utility.yul\":5096:5114   */\n      add\n        /* \"#utility.yul\":5083:5115   */\n      calldataload\n        /* \"#utility.yul\":5067:5115   */\n      swap2\n      pop\n        /* \"#utility.yul\":5140:5142   */\n      dup1\n        /* \"#utility.yul\":5130:5138   */\n      dup3\n        /* \"#utility.yul\":5127:5143   */\n      gt\n        /* \"#utility.yul\":5124:5160   */\n      iszero\n      tag_346\n      jumpi\n        /* \"#utility.yul\":5156:5157   */\n      0x00\n        /* \"#utility.yul\":5153:5154   */\n      dup1\n        /* \"#utility.yul\":5146:5158   */\n      revert\n        /* \"#utility.yul\":5124:5160   */\n    tag_346:\n        /* \"#utility.yul\":5179:5231   */\n      tag_347\n        /* \"#utility.yul\":5223:5230   */\n      dup9\n        /* \"#utility.yul\":5212:5220   */\n      dup4\n        /* \"#utility.yul\":5201:5210   */\n      dup10\n        /* \"#utility.yul\":5197:5221   */\n      add\n        /* \"#utility.yul\":5179:5231   */\n      tag_298\n      jump\t// in\n    tag_347:\n        /* \"#utility.yul\":5169:5231   */\n      swap5\n      pop\n        /* \"#utility.yul\":5284:5286   */\n      0x40\n        /* \"#utility.yul\":5273:5282   */\n      dup8\n        /* \"#utility.yul\":5269:5287   */\n      add\n        /* \"#utility.yul\":5256:5288   */\n      calldataload\n        /* \"#utility.yul\":5240:5288   */\n      swap2\n      pop\n        /* \"#utility.yul\":5313:5315   */\n      dup1\n        /* \"#utility.yul\":5303:5311   */\n      dup3\n        /* \"#utility.yul\":5300:5316   */\n      gt\n        /* \"#utility.yul\":5297:5333   */\n      iszero\n      tag_348\n      jumpi\n        /* \"#utility.yul\":5329:5330   */\n      0x00\n        /* \"#utility.yul\":5326:5327   */\n      dup1\n        /* \"#utility.yul\":5319:5331   */\n      revert\n        /* \"#utility.yul\":5297:5333   */\n    tag_348:\n        /* \"#utility.yul\":5352:5404   */\n      tag_349\n        /* \"#utility.yul\":5396:5403   */\n      dup9\n        /* \"#utility.yul\":5385:5393   */\n      dup4\n        /* \"#utility.yul\":5374:5383   */\n      dup10\n        /* \"#utility.yul\":5370:5394   */\n      add\n        /* \"#utility.yul\":5352:5404   */\n      tag_298\n      jump\t// in\n    tag_349:\n        /* \"#utility.yul\":5342:5404   */\n      swap4\n      pop\n        /* \"#utility.yul\":5457:5459   */\n      0x60\n        /* \"#utility.yul\":5446:5455   */\n      dup8\n        /* \"#utility.yul\":5442:5460   */\n      add\n        /* \"#utility.yul\":5429:5461   */\n      calldataload\n        /* \"#utility.yul\":5413:5461   */\n      swap2\n      pop\n        /* \"#utility.yul\":5486:5488   */\n      dup1\n        /* \"#utility.yul\":5476:5484   */\n      dup3\n        /* \"#utility.yul\":5473:5489   */\n      gt\n        /* \"#utility.yul\":5470:5506   */\n      iszero\n      tag_350\n      jumpi\n        /* \"#utility.yul\":5502:5503   */\n      0x00\n        /* \"#utility.yul\":5499:5500   */\n      dup1\n        /* \"#utility.yul\":5492:5504   */\n      revert\n        /* \"#utility.yul\":5470:5506   */\n    tag_350:\n      pop\n        /* \"#utility.yul\":5525:5577   */\n      tag_351\n        /* \"#utility.yul\":5569:5576   */\n      dup8\n        /* \"#utility.yul\":5558:5566   */\n      dup3\n        /* \"#utility.yul\":5547:5556   */\n      dup9\n        /* \"#utility.yul\":5543:5567   */\n      add\n        /* \"#utility.yul\":5525:5577   */\n      tag_298\n      jump\t// in\n    tag_351:\n        /* \"#utility.yul\":5515:5577   */\n      swap2\n      pop\n      pop\n        /* \"#utility.yul\":4639:5583   */\n      swap3\n      swap6\n      swap2\n      swap5\n      pop\n      swap3\n      pop\n      jump\t// out\n        /* \"#utility.yul\":5588:5978   */\n    tag_69:\n        /* \"#utility.yul\":5666:5672   */\n      0x00\n        /* \"#utility.yul\":5674:5680   */\n      dup1\n        /* \"#utility.yul\":5727:5729   */\n      0x40\n        /* \"#utility.yul\":5715:5724   */\n      dup4\n        /* \"#utility.yul\":5706:5713   */\n      dup6\n        /* \"#utility.yul\":5702:5725   */\n      sub\n        /* \"#utility.yul\":5698:5730   */\n      slt\n        /* \"#utility.yul\":5695:5747   */\n      iszero\n      tag_353\n      jumpi\n        /* \"#utility.yul\":5743:5744   */\n      0x00\n        /* \"#utility.yul\":5740:5741   */\n      dup1\n        /* \"#utility.yul\":5733:5745   */\n      revert\n        /* \"#utility.yul\":5695:5747   */\n    tag_353:\n        /* \"#utility.yul\":5783:5792   */\n      dup3\n        /* \"#utility.yul\":5770:5793   */\n      calldataload\n        /* \"#utility.yul\":5816:5834   */\n      0xffffffffffffffff\n        /* \"#utility.yul\":5808:5814   */\n      dup2\n        /* \"#utility.yul\":5805:5835   */\n      gt\n        /* \"#utility.yul\":5802:5852   */\n      iszero\n      tag_354\n      jumpi\n        /* \"#utility.yul\":5848:5849   */\n      0x00\n        /* \"#utility.yul\":5845:5846   */\n      dup1\n        /* \"#utility.yul\":5838:5850   */\n      revert\n        /* \"#utility.yul\":5802:5852   */\n    tag_354:\n        /* \"#utility.yul\":5871:5921   */\n      tag_355\n        /* \"#utility.yul\":5913:5920   */\n      dup6\n        /* \"#utility.yul\":5904:5910   */\n      dup3\n        /* \"#utility.yul\":5893:5902   */\n      dup7\n        /* \"#utility.yul\":5889:5911   */\n      add\n        /* \"#utility.yul\":5871:5921   */\n      tag_298\n      jump\t// in\n    tag_355:\n        /* \"#utility.yul\":5861:5921   */\n      swap6\n        /* \"#utility.yul\":5968:5970   */\n      0x20\n        /* \"#utility.yul\":5953:5971   */\n      swap5\n      swap1\n      swap5\n      add\n        /* \"#utility.yul\":5940:5972   */\n      calldataload\n      swap5\n      pop\n      pop\n      pop\n      pop\n        /* \"#utility.yul\":5588:5978   */\n      jump\t// out\n        /* \"#utility.yul\":6165:6708   */\n    tag_83:\n        /* \"#utility.yul\":6253:6259   */\n      0x00\n        /* \"#utility.yul\":6261:6267   */\n      dup1\n        /* \"#utility.yul\":6314:6316   */\n      0x40\n        /* \"#utility.yul\":6302:6311   */\n      dup4\n        /* \"#utility.yul\":6293:6300   */\n      dup6\n        /* \"#utility.yul\":6289:6312   */\n      sub\n        /* \"#utility.yul\":6285:6317   */\n      slt\n        /* \"#utility.yul\":6282:6334   */\n      iszero\n      tag_358\n      jumpi\n        /* \"#utility.yul\":6330:6331   */\n      0x00\n        /* \"#utility.yul\":6327:6328   */\n      dup1\n        /* \"#utility.yul\":6320:6332   */\n      revert\n        /* \"#utility.yul\":6282:6334   */\n    tag_358:\n        /* \"#utility.yul\":6370:6379   */\n      dup3\n        /* \"#utility.yul\":6357:6380   */\n      calldataload\n        /* \"#utility.yul\":6399:6417   */\n      0xffffffffffffffff\n        /* \"#utility.yul\":6440:6442   */\n      dup1\n        /* \"#utility.yul\":6432:6438   */\n      dup3\n        /* \"#utility.yul\":6429:6443   */\n      gt\n        /* \"#utility.yul\":6426:6460   */\n      iszero\n      tag_359\n      jumpi\n        /* \"#utility.yul\":6456:6457   */\n      0x00\n        /* \"#utility.yul\":6453:6454   */\n      dup1\n        /* \"#utility.yul\":6446:6458   */\n      revert\n        /* \"#utility.yul\":6426:6460   */\n    tag_359:\n        /* \"#utility.yul\":6479:6529   */\n      tag_360\n        /* \"#utility.yul\":6521:6528   */\n      dup7\n        /* \"#utility.yul\":6512:6518   */\n      dup4\n        /* \"#utility.yul\":6501:6510   */\n      dup8\n        /* \"#utility.yul\":6497:6519   */\n      add\n        /* \"#utility.yul\":6479:6529   */\n      tag_298\n      jump\t// in\n    tag_360:\n        /* \"#utility.yul\":6469:6529   */\n      swap4\n      pop\n        /* \"#utility.yul\":6582:6584   */\n      0x20\n        /* \"#utility.yul\":6571:6580   */\n      dup6\n        /* \"#utility.yul\":6567:6585   */\n      add\n        /* \"#utility.yul\":6554:6586   */\n      calldataload\n        /* \"#utility.yul\":6538:6586   */\n      swap2\n      pop\n        /* \"#utility.yul\":6611:6613   */\n      dup1\n        /* \"#utility.yul\":6601:6609   */\n      dup3\n        /* \"#utility.yul\":6598:6614   */\n      gt\n        /* \"#utility.yul\":6595:6631   */\n      iszero\n      tag_361\n      jumpi\n        /* \"#utility.yul\":6627:6628   */\n      0x00\n        /* \"#utility.yul\":6624:6625   */\n      dup1\n        /* \"#utility.yul\":6617:6629   */\n      revert\n        /* \"#utility.yul\":6595:6631   */\n    tag_361:\n      pop\n        /* \"#utility.yul\":6650:6702   */\n      tag_362\n        /* \"#utility.yul\":6694:6701   */\n      dup6\n        /* \"#utility.yul\":6683:6691   */\n      dup3\n        /* \"#utility.yul\":6672:6681   */\n      dup7\n        /* \"#utility.yul\":6668:6692   */\n      add\n        /* \"#utility.yul\":6650:6702   */\n      tag_298\n      jump\t// in\n    tag_362:\n        /* \"#utility.yul\":6640:6702   */\n      swap2\n      pop\n      pop\n        /* \"#utility.yul\":6165:6708   */\n      swap3\n      pop\n      swap3\n      swap1\n      pop\n      jump\t// out\n        /* \"#utility.yul\":6713:7093   */\n    tag_86:\n        /* \"#utility.yul\":6792:6793   */\n      0x01\n        /* \"#utility.yul\":6788:6800   */\n      dup2\n      dup2\n      shr\n      swap1\n        /* \"#utility.yul\":6835:6847   */\n      dup3\n      and\n      dup1\n        /* \"#utility.yul\":6856:6917   */\n      tag_364\n      jumpi\n        /* \"#utility.yul\":6910:6914   */\n      0x7f\n        /* \"#utility.yul\":6902:6908   */\n      dup3\n        /* \"#utility.yul\":6898:6915   */\n      and\n        /* \"#utility.yul\":6888:6915   */\n      swap2\n      pop\n        /* \"#utility.yul\":6856:6917   */\n    tag_364:\n        /* \"#utility.yul\":6963:6965   */\n      0x20\n        /* \"#utility.yul\":6955:6961   */\n      dup3\n        /* \"#utility.yul\":6952:6966   */\n      lt\n        /* \"#utility.yul\":6932:6950   */\n      dup2\n        /* \"#utility.yul\":6929:6967   */\n      sub\n        /* \"#utility.yul\":6926:7087   */\n      tag_365\n      jumpi\n        /* \"#utility.yul\":7009:7019   */\n      0x4e487b71\n        /* \"#utility.yul\":7004:7007   */\n      0xe0\n        /* \"#utility.yul\":7000:7020   */\n      shl\n        /* \"#utility.yul\":6997:6998   */\n      0x00\n        /* \"#utility.yul\":6990:7021   */\n      mstore\n        /* \"#utility.yul\":7044:7048   */\n      0x22\n        /* \"#utility.yul\":7041:7042   */\n      0x04\n        /* \"#utility.yul\":7034:7049   */\n      mstore\n        /* \"#utility.yul\":7072:7076   */\n      0x24\n        /* \"#utility.yul\":7069:7070   */\n      0x00\n        /* \"#utility.yul\":7062:7077   */\n      revert\n        /* \"#utility.yul\":6926:7087   */\n    tag_365:\n      pop\n        /* \"#utility.yul\":6713:7093   */\n      swap2\n      swap1\n      pop\n      jump\t// out\n        /* \"#utility.yul\":7098:7310   */\n    tag_301:\n        /* \"#utility.yul\":7140:7143   */\n      0x00\n        /* \"#utility.yul\":7178:7183   */\n      dup2\n        /* \"#utility.yul\":7172:7184   */\n      mload\n        /* \"#utility.yul\":7222:7228   */\n      dup1\n        /* \"#utility.yul\":7215:7219   */\n      0x20\n        /* \"#utility.yul\":7208:7213   */\n      dup5\n        /* \"#utility.yul\":7204:7220   */\n      add\n        /* \"#utility.yul\":7199:7202   */\n      dup6\n        /* \"#utility.yul\":7193:7229   */\n      mcopy\n        /* \"#utility.yul\":7284:7285   */\n      0x00\n        /* \"#utility.yul\":7248:7264   */\n      swap4\n      add\n        /* \"#utility.yul\":7273:7286   */\n      swap3\n      dup4\n      mstore\n      pop\n        /* \"#utility.yul\":7248:7264   */\n      swap1\n      swap2\n        /* \"#utility.yul\":7098:7310   */\n      swap1\n      pop\n      jump\t// out\n        /* \"#utility.yul\":7315:7507   */\n    tag_108:\n        /* \"#utility.yul\":7446:7449   */\n      0x00\n        /* \"#utility.yul\":7471:7501   */\n      tag_327\n        /* \"#utility.yul\":7497:7500   */\n      dup3\n        /* \"#utility.yul\":7489:7495   */\n      dup5\n        /* \"#utility.yul\":7471:7501   */\n      tag_301\n      jump\t// in\n        /* \"#utility.yul\":9103:9621   */\n    tag_303:\n        /* \"#utility.yul\":9205:9207   */\n      0x1f\n        /* \"#utility.yul\":9200:9203   */\n      dup3\n        /* \"#utility.yul\":9197:9208   */\n      gt\n        /* \"#utility.yul\":9194:9615   */\n      iszero\n      tag_375\n      jumpi\n        /* \"#utility.yul\":9241:9246   */\n      dup1\n        /* \"#utility.yul\":9238:9239   */\n      0x00\n        /* \"#utility.yul\":9231:9247   */\n      mstore\n        /* \"#utility.yul\":9285:9289   */\n      0x20\n        /* \"#utility.yul\":9282:9283   */\n      0x00\n        /* \"#utility.yul\":9272:9290   */\n      keccak256\n        /* \"#utility.yul\":9355:9357   */\n      0x1f\n        /* \"#utility.yul\":9343:9353   */\n      dup5\n        /* \"#utility.yul\":9339:9358   */\n      add\n        /* \"#utility.yul\":9336:9337   */\n      0x05\n        /* \"#utility.yul\":9332:9359   */\n      shr\n        /* \"#utility.yul\":9326:9330   */\n      dup2\n        /* \"#utility.yul\":9322:9360   */\n      add\n        /* \"#utility.yul\":9391:9395   */\n      0x20\n        /* \"#utility.yul\":9379:9389   */\n      dup6\n        /* \"#utility.yul\":9376:9396   */\n      lt\n        /* \"#utility.yul\":9373:9420   */\n      iszero\n      tag_376\n      jumpi\n      pop\n        /* \"#utility.yul\":9414:9418   */\n      dup1\n        /* \"#utility.yul\":9373:9420   */\n    tag_376:\n        /* \"#utility.yul\":9469:9471   */\n      0x1f\n        /* \"#utility.yul\":9464:9467   */\n      dup5\n        /* \"#utility.yul\":9460:9472   */\n      add\n        /* \"#utility.yul\":9457:9458   */\n      0x05\n        /* \"#utility.yul\":9453:9473   */\n      shr\n        /* \"#utility.yul\":9447:9451   */\n      dup3\n        /* \"#utility.yul\":9443:9474   */\n      add\n        /* \"#utility.yul\":9433:9474   */\n      swap2\n      pop\n        /* \"#utility.yul\":9524:9605   */\n    tag_377:\n        /* \"#utility.yul\":9542:9544   */\n      dup2\n        /* \"#utility.yul\":9535:9540   */\n      dup2\n        /* \"#utility.yul\":9532:9545   */\n      lt\n        /* \"#utility.yul\":9524:9605   */\n      iszero\n      tag_379\n      jumpi\n        /* \"#utility.yul\":9601:9602   */\n      0x00\n        /* \"#utility.yul\":9587:9603   */\n      dup2\n      sstore\n        /* \"#utility.yul\":9568:9569   */\n      0x01\n        /* \"#utility.yul\":9557:9570   */\n      add\n        /* \"#utility.yul\":9524:9605   */\n      jump(tag_377)\n    tag_379:\n        /* \"#utility.yul\":9528:9531   */\n      pop\n      pop\n        /* \"#utility.yul\":9194:9615   */\n    tag_375:\n        /* \"#utility.yul\":9103:9621   */\n      pop\n      pop\n      pop\n      jump\t// out\n        /* \"#utility.yul\":9797:11142   */\n    tag_170:\n        /* \"#utility.yul\":9923:9926   */\n      dup2\n        /* \"#utility.yul\":9917:9927   */\n      mload\n        /* \"#utility.yul\":9950:9968   */\n      0xffffffffffffffff\n        /* \"#utility.yul\":9942:9948   */\n      dup2\n        /* \"#utility.yul\":9939:9969   */\n      gt\n        /* \"#utility.yul\":9936:9992   */\n      iszero\n      tag_383\n      jumpi\n        /* \"#utility.yul\":9972:9990   */\n      tag_383\n      tag_282\n      jump\t// in\n    tag_383:\n        /* \"#utility.yul\":10001:10098   */\n      tag_384\n        /* \"#utility.yul\":10091:10097   */\n      dup2\n        /* \"#utility.yul\":10051:10089   */\n      tag_385\n        /* \"#utility.yul\":10083:10087   */\n      dup5\n        /* \"#utility.yul\":10077:10088   */\n      sload\n        /* \"#utility.yul\":10051:10089   */\n      tag_86\n      jump\t// in\n    tag_385:\n        /* \"#utility.yul\":10045:10049   */\n      dup5\n        /* \"#utility.yul\":10001:10098   */\n      tag_303\n      jump\t// in\n    tag_384:\n        /* \"#utility.yul\":10153:10157   */\n      0x20\n      dup1\n        /* \"#utility.yul\":10210:10212   */\n      0x1f\n        /* \"#utility.yul\":10199:10213   */\n      dup4\n      gt\n        /* \"#utility.yul\":10227:10228   */\n      0x01\n        /* \"#utility.yul\":10222:10885   */\n      dup2\n      eq\n      tag_387\n      jumpi\n        /* \"#utility.yul\":10929:10930   */\n      0x00\n        /* \"#utility.yul\":10946:10952   */\n      dup5\n        /* \"#utility.yul\":10943:11032   */\n      iszero\n      tag_388\n      jumpi\n      pop\n        /* \"#utility.yul\":10998:11017   */\n      dup6\n      dup4\n      add\n        /* \"#utility.yul\":10992:11018   */\n      mload\n        /* \"#utility.yul\":10943:11032   */\n    tag_388:\n      not(0x00)\n        /* \"#utility.yul\":9754:9755   */\n      0x03\n        /* \"#utility.yul\":9750:9761   */\n      dup7\n      swap1\n      shl\n        /* \"#utility.yul\":9746:9770   */\n      shr\n        /* \"#utility.yul\":9742:9771   */\n      not\n        /* \"#utility.yul\":9732:9772   */\n      and\n        /* \"#utility.yul\":9778:9779   */\n      0x01\n        /* \"#utility.yul\":9774:9785   */\n      dup6\n      swap1\n      shl\n        /* \"#utility.yul\":9729:9786   */\n      or\n        /* \"#utility.yul\":11045:11126   */\n      dup6\n      sstore\n        /* \"#utility.yul\":10192:11136   */\n      jump(tag_386)\n        /* \"#utility.yul\":10222:10885   */\n    tag_387:\n        /* \"#utility.yul\":9050:9051   */\n      0x00\n        /* \"#utility.yul\":9043:9057   */\n      dup6\n      dup2\n      mstore\n        /* \"#utility.yul\":9087:9091   */\n      0x20\n        /* \"#utility.yul\":9074:9092   */\n      dup2\n      keccak256\n      not(0x1f)\n        /* \"#utility.yul\":10258:10278   */\n      dup7\n      and\n      swap2\n        /* \"#utility.yul\":10376:10612   */\n    tag_391:\n        /* \"#utility.yul\":10390:10397   */\n      dup3\n        /* \"#utility.yul\":10387:10388   */\n      dup2\n        /* \"#utility.yul\":10384:10398   */\n      lt\n        /* \"#utility.yul\":10376:10612   */\n      iszero\n      tag_393\n      jumpi\n        /* \"#utility.yul\":10479:10498   */\n      dup9\n      dup7\n      add\n        /* \"#utility.yul\":10473:10499   */\n      mload\n        /* \"#utility.yul\":10458:10500   */\n      dup3\n      sstore\n        /* \"#utility.yul\":10571:10598   */\n      swap5\n      dup5\n      add\n      swap5\n        /* \"#utility.yul\":10539:10540   */\n      0x01\n        /* \"#utility.yul\":10527:10541   */\n      swap1\n      swap2\n      add\n      swap1\n        /* \"#utility.yul\":10406:10425   */\n      dup5\n      add\n        /* \"#utility.yul\":10376:10612   */\n      jump(tag_391)\n    tag_393:\n        /* \"#utility.yul\":10380:10383   */\n      pop\n        /* \"#utility.yul\":10640:10646   */\n      dup6\n        /* \"#utility.yul\":10631:10638   */\n      dup3\n        /* \"#utility.yul\":10628:10647   */\n      lt\n        /* \"#utility.yul\":10625:10826   */\n      iszero\n      tag_394\n      jumpi\n        /* \"#utility.yul\":10701:10720   */\n      dup8\n      dup6\n      add\n        /* \"#utility.yul\":10695:10721   */\n      mload\n      not(0x00)\n        /* \"#utility.yul\":10784:10785   */\n      0x03\n        /* \"#utility.yul\":10780:10794   */\n      dup9\n      swap1\n      shl\n        /* \"#utility.yul\":10796:10799   */\n      0xf8\n        /* \"#utility.yul\":10776:10800   */\n      and\n        /* \"#utility.yul\":10772:10809   */\n      shr\n        /* \"#utility.yul\":10768:10810   */\n      not\n        /* \"#utility.yul\":10753:10811   */\n      and\n        /* \"#utility.yul\":10738:10812   */\n      dup2\n      sstore\n        /* \"#utility.yul\":10625:10826   */\n    tag_394:\n      pop\n      pop\n        /* \"#utility.yul\":10872:10873   */\n      0x01\n        /* \"#utility.yul\":10863:10869   */\n      dup5\n        /* \"#utility.yul\":10860:10861   */\n      0x01\n        /* \"#utility.yul\":10856:10870   */\n      shl\n        /* \"#utility.yul\":10852:10874   */\n      add\n        /* \"#utility.yul\":10846:10850   */\n      dup6\n        /* \"#utility.yul\":10839:10875   */\n      sstore\n        /* \"#utility.yul\":10192:11136   */\n    tag_386:\n      pop\n      pop\n      pop\n      pop\n        /* \"#utility.yul\":9797:11142   */\n      pop\n      pop\n      jump\t// out\n        /* \"#utility.yul\":11147:11745   */\n    tag_180:\n        /* \"#utility.yul\":11400:11403   */\n      0x80\n        /* \"#utility.yul\":11389:11398   */\n      dup2\n        /* \"#utility.yul\":11382:11404   */\n      mstore\n        /* \"#utility.yul\":11363:11367   */\n      0x00\n        /* \"#utility.yul\":11427:11484   */\n      tag_396\n        /* \"#utility.yul\":11479:11482   */\n      0x80\n        /* \"#utility.yul\":11468:11477   */\n      dup4\n        /* \"#utility.yul\":11464:11483   */\n      add\n        /* \"#utility.yul\":11456:11462   */\n      dup8\n        /* \"#utility.yul\":11427:11484   */\n      tag_299\n      jump\t// in\n    tag_396:\n        /* \"#utility.yul\":11532:11541   */\n      dup3\n        /* \"#utility.yul\":11524:11530   */\n      dup2\n        /* \"#utility.yul\":11520:11542   */\n      sub\n        /* \"#utility.yul\":11515:11517   */\n      0x20\n        /* \"#utility.yul\":11504:11513   */\n      dup5\n        /* \"#utility.yul\":11500:11518   */\n      add\n        /* \"#utility.yul\":11493:11543   */\n      mstore\n        /* \"#utility.yul\":11560:11604   */\n      tag_397\n        /* \"#utility.yul\":11597:11603   */\n      dup2\n        /* \"#utility.yul\":11589:11595   */\n      dup8\n        /* \"#utility.yul\":11560:11604   */\n      tag_299\n      jump\t// in\n    tag_397:\n      sub(shl(0xa0, 0x01), 0x01)\n        /* \"#utility.yul\":11640:11695   */\n      swap6\n      swap1\n      swap6\n      and\n        /* \"#utility.yul\":11635:11637   */\n      0x40\n        /* \"#utility.yul\":11620:11638   */\n      dup5\n      add\n        /* \"#utility.yul\":11613:11696   */\n      mstore\n      pop\n      pop\n        /* \"#utility.yul\":11727:11729   */\n      0x60\n        /* \"#utility.yul\":11712:11730   */\n      add\n        /* \"#utility.yul\":11705:11739   */\n      mstore\n        /* \"#utility.yul\":11552:11604   */\n      swap3\n        /* \"#utility.yul\":11147:11745   */\n      swap2\n      pop\n      pop\n      jump\t// out\n        /* \"#utility.yul\":12111:12533   */\n    tag_224:\n        /* \"#utility.yul\":12316:12318   */\n      0x60\n        /* \"#utility.yul\":12305:12314   */\n      dup2\n        /* \"#utility.yul\":12298:12319   */\n      mstore\n        /* \"#utility.yul\":12279:12283   */\n      0x00\n        /* \"#utility.yul\":12336:12392   */\n      tag_400\n        /* \"#utility.yul\":12388:12390   */\n      0x60\n        /* \"#utility.yul\":12377:12386   */\n      dup4\n        /* \"#utility.yul\":12373:12391   */\n      add\n        /* \"#utility.yul\":12365:12371   */\n      dup7\n        /* \"#utility.yul\":12336:12392   */\n      tag_299\n      jump\t// in\n    tag_400:\n      sub(shl(0xa0, 0x01), 0x01)\n        /* \"#utility.yul\":12428:12483   */\n      swap5\n      swap1\n      swap5\n      and\n        /* \"#utility.yul\":12423:12425   */\n      0x20\n        /* \"#utility.yul\":12408:12426   */\n      dup4\n      add\n        /* \"#utility.yul\":12401:12484   */\n      mstore\n      pop\n        /* \"#utility.yul\":12515:12517   */\n      0x40\n        /* \"#utility.yul\":12500:12518   */\n      add\n        /* \"#utility.yul\":12493:12527   */\n      mstore\n        /* \"#utility.yul\":12328:12392   */\n      swap2\n        /* \"#utility.yul\":12111:12533   */\n      swap1\n      pop\n      jump\t// out\n        /* \"#utility.yul\":12538:12665   */\n    tag_305:\n        /* \"#utility.yul\":12599:12609   */\n      0x4e487b71\n        /* \"#utility.yul\":12594:12597   */\n      0xe0\n        /* \"#utility.yul\":12590:12610   */\n      shl\n        /* \"#utility.yul\":12587:12588   */\n      0x00\n        /* \"#utility.yul\":12580:12611   */\n      mstore\n        /* \"#utility.yul\":12630:12634   */\n      0x12\n        /* \"#utility.yul\":12627:12628   */\n      0x04\n        /* \"#utility.yul\":12620:12635   */\n      mstore\n        /* \"#utility.yul\":12654:12658   */\n      0x24\n        /* \"#utility.yul\":12651:12652   */\n      0x00\n        /* \"#utility.yul\":12644:12659   */\n      revert\n        /* \"#utility.yul\":12670:12797   */\n    tag_306:\n        /* \"#utility.yul\":12731:12741   */\n      0x4e487b71\n        /* \"#utility.yul\":12726:12729   */\n      0xe0\n        /* \"#utility.yul\":12722:12742   */\n      shl\n        /* \"#utility.yul\":12719:12720   */\n      0x00\n        /* \"#utility.yul\":12712:12743   */\n      mstore\n        /* \"#utility.yul\":12762:12766   */\n      0x11\n        /* \"#utility.yul\":12759:12760   */\n      0x04\n        /* \"#utility.yul\":12752:12767   */\n      mstore\n        /* \"#utility.yul\":12786:12790   */\n      0x24\n        /* \"#utility.yul\":12783:12784   */\n      0x00\n        /* \"#utility.yul\":12776:12791   */\n      revert\n        /* \"#utility.yul\":12802:12922   */\n    tag_228:\n        /* \"#utility.yul\":12842:12843   */\n      0x00\n        /* \"#utility.yul\":12868:12869   */\n      dup3\n        /* \"#utility.yul\":12858:12893   */\n      tag_405\n      jumpi\n        /* \"#utility.yul\":12873:12891   */\n      tag_405\n      tag_305\n      jump\t// in\n    tag_405:\n      pop\n        /* \"#utility.yul\":12907:12916   */\n      div\n      swap1\n        /* \"#utility.yul\":12802:12922   */\n      jump\t// out\n        /* \"#utility.yul\":12927:13747   */\n    tag_239:\n        /* \"#utility.yul\":13452:13455   */\n      0x00\n        /* \"#utility.yul\":13480:13510   */\n      tag_407\n        /* \"#utility.yul\":13506:13509   */\n      dup3\n        /* \"#utility.yul\":13498:13504   */\n      dup9\n        /* \"#utility.yul\":13480:13510   */\n      tag_301\n      jump\t// in\n    tag_407:\n      shl(0xf8, 0x2d)\n        /* \"#utility.yul\":13552:13554   */\n      dup1\n        /* \"#utility.yul\":13548:13550   */\n      dup3\n        /* \"#utility.yul\":13541:13555   */\n      mstore\n        /* \"#utility.yul\":13574:13638   */\n      tag_408\n        /* \"#utility.yul\":13600:13637   */\n      tag_409\n        /* \"#utility.yul\":13634:13635   */\n      0x01\n        /* \"#utility.yul\":13630:13632   */\n      dup5\n        /* \"#utility.yul\":13626:13636   */\n      add\n        /* \"#utility.yul\":13618:13624   */\n      dup11\n        /* \"#utility.yul\":13600:13637   */\n      tag_301\n      jump\t// in\n    tag_409:\n        /* \"#utility.yul\":13592:13598   */\n      dup9\n        /* \"#utility.yul\":13574:13638   */\n      tag_301\n      jump\t// in\n    tag_408:\n        /* \"#utility.yul\":13647:13661   */\n      swap1\n      dup2\n      mstore\n        /* \"#utility.yul\":13564:13638   */\n      swap1\n      pop\n        /* \"#utility.yul\":13677:13741   */\n      tag_410\n        /* \"#utility.yul\":13703:13740   */\n      tag_411\n        /* \"#utility.yul\":13737:13738   */\n      0x01\n        /* \"#utility.yul\":13729:13739   */\n      dup4\n      add\n        /* \"#utility.yul\":13721:13727   */\n      dup8\n        /* \"#utility.yul\":13703:13740   */\n      tag_301\n      jump\t// in\n    tag_411:\n        /* \"#utility.yul\":13695:13701   */\n      dup6\n        /* \"#utility.yul\":13677:13741   */\n      tag_301\n      jump\t// in\n    tag_410:\n        /* \"#utility.yul\":13670:13741   */\n      swap9\n        /* \"#utility.yul\":12927:13747   */\n      swap8\n      pop\n      pop\n      pop\n      pop\n      pop\n      pop\n      pop\n      pop\n      jump\t// out\n        /* \"#utility.yul\":13752:13968   */\n    tag_242:\n        /* \"#utility.yul\":13816:13825   */\n      dup1\n      dup3\n      add\n        /* \"#utility.yul\":13844:13855   */\n      dup3\n      dup2\n      slt\n        /* \"#utility.yul\":13791:13794   */\n      0x00\n        /* \"#utility.yul\":13874:13883   */\n      dup4\n      slt\n        /* \"#utility.yul\":13902:13912   */\n      dup1\n      iszero\n        /* \"#utility.yul\":13898:13917   */\n      dup3\n      and\n        /* \"#utility.yul\":13927:13937   */\n      dup3\n      iszero\n        /* \"#utility.yul\":13919:13938   */\n      dup3\n      and\n        /* \"#utility.yul\":13895:13939   */\n      or\n        /* \"#utility.yul\":13892:13962   */\n      iszero\n      tag_414\n      jumpi\n        /* \"#utility.yul\":13942:13960   */\n      tag_414\n      tag_306\n      jump\t// in\n    tag_414:\n        /* \"#utility.yul\":13892:13962   */\n      pop\n      pop\n        /* \"#utility.yul\":13752:13968   */\n      swap3\n      swap2\n      pop\n      pop\n      jump\t// out\n        /* \"#utility.yul\":13973:14210   */\n    tag_245:\n        /* \"#utility.yul\":14045:14054   */\n      dup1\n      dup3\n      mul\n        /* \"#utility.yul\":14012:14019   */\n      0x00\n        /* \"#utility.yul\":14070:14079   */\n      dup3\n      slt\n      shl(0xff, 0x01)\n        /* \"#utility.yul\":14081:14099   */\n      dup5\n      eq\n        /* \"#utility.yul\":14066:14100   */\n      and\n        /* \"#utility.yul\":14063:14123   */\n      iszero\n      tag_417\n      jumpi\n        /* \"#utility.yul\":14103:14121   */\n      tag_417\n      tag_306\n      jump\t// in\n    tag_417:\n        /* \"#utility.yul\":14176:14177   */\n      dup2\n        /* \"#utility.yul\":14167:14174   */\n      dup2\n        /* \"#utility.yul\":14162:14178   */\n      sdiv\n        /* \"#utility.yul\":14159:14160   */\n      dup4\n        /* \"#utility.yul\":14156:14179   */\n      eq\n        /* \"#utility.yul\":14152:14153   */\n      dup3\n        /* \"#utility.yul\":14145:14154   */\n      iszero\n        /* \"#utility.yul\":14142:14180   */\n      or\n        /* \"#utility.yul\":14132:14204   */\n      tag_112\n      jumpi\n        /* \"#utility.yul\":14184:14202   */\n      tag_112\n      tag_306\n      jump\t// in\n        /* \"#utility.yul\":14215:14408   */\n    tag_247:\n        /* \"#utility.yul\":14254:14255   */\n      0x00\n        /* \"#utility.yul\":14280:14281   */\n      dup3\n        /* \"#utility.yul\":14270:14305   */\n      tag_422\n      jumpi\n        /* \"#utility.yul\":14285:14303   */\n      tag_422\n      tag_305\n      jump\t// in\n    tag_422:\n      shl(0xff, 0x01)\n        /* \"#utility.yul\":14321:14339   */\n      dup3\n      eq\n      not(0x00)\n        /* \"#utility.yul\":14341:14354   */\n      dup5\n      eq\n        /* \"#utility.yul\":14317:14355   */\n      and\n        /* \"#utility.yul\":14314:14378   */\n      iszero\n      tag_424\n      jumpi\n        /* \"#utility.yul\":14358:14376   */\n      tag_424\n      tag_306\n      jump\t// in\n    tag_424:\n      pop\n        /* \"#utility.yul\":14392:14402   */\n      sdiv\n      swap1\n        /* \"#utility.yul\":14215:14408   */\n      jump\t// out\n        /* \"#utility.yul\":14413:14613   */\n    tag_252:\n        /* \"#utility.yul\":14479:14488   */\n      dup2\n      dup2\n      sub\n        /* \"#utility.yul\":14452:14456   */\n      0x00\n        /* \"#utility.yul\":14507:14516   */\n      dup4\n      slt\n        /* \"#utility.yul\":14535:14545   */\n      dup1\n      iszero\n        /* \"#utility.yul\":14547:14559   */\n      dup4\n      dup4\n      sgt\n        /* \"#utility.yul\":14531:14560   */\n      and\n        /* \"#utility.yul\":14570:14582   */\n      dup4\n      dup4\n      slt\n        /* \"#utility.yul\":14562:14583   */\n      dup3\n      and\n        /* \"#utility.yul\":14528:14584   */\n      or\n        /* \"#utility.yul\":14525:14607   */\n      iszero\n      tag_427\n      jumpi\n        /* \"#utility.yul\":14587:14605   */\n      tag_427\n      tag_306\n      jump\t// in\n    tag_427:\n        /* \"#utility.yul\":14525:14607   */\n      pop\n        /* \"#utility.yul\":14413:14613   */\n      swap3\n      swap2\n      pop\n      pop\n      jump\t// out\n        /* \"#utility.yul\":14618:14753   */\n    tag_278:\n        /* \"#utility.yul\":14657:14660   */\n      0x00\n        /* \"#utility.yul\":14678:14695   */\n      0x01\n      dup3\n      add\n        /* \"#utility.yul\":14675:14718   */\n      tag_430\n      jumpi\n        /* \"#utility.yul\":14698:14716   */\n      tag_430\n      tag_306\n      jump\t// in\n    tag_430:\n      pop\n        /* \"#utility.yul\":14745:14746   */\n      0x01\n        /* \"#utility.yul\":14734:14747   */\n      add\n      swap1\n        /* \"#utility.yul\":14618:14753   */\n      jump\t// out\n        /* \"#utility.yul\":14758:14886   */\n    tag_287:\n        /* \"#utility.yul\":14825:14834   */\n      dup2\n      dup2\n      sub\n        /* \"#utility.yul\":14846:14857   */\n      dup2\n      dup2\n      gt\n        /* \"#utility.yul\":14843:14880   */\n      iszero\n      tag_112\n      jumpi\n        /* \"#utility.yul\":14860:14878   */\n      tag_112\n      tag_306\n      jump\t// in\n        /* \"#utility.yul\":14891:15059   */\n    tag_290:\n        /* \"#utility.yul\":14964:14973   */\n      dup1\n      dup3\n      mul\n        /* \"#utility.yul\":14995:15004   */\n      dup2\n      iszero\n        /* \"#utility.yul\":15012:15027   */\n      dup3\n      dup3\n      div\n        /* \"#utility.yul\":15006:15028   */\n      dup5\n      eq\n        /* \"#utility.yul\":14992:15029   */\n      or\n        /* \"#utility.yul\":14982:15053   */\n      tag_112\n      jumpi\n        /* \"#utility.yul\":15033:15051   */\n      tag_112\n      tag_306\n      jump\t// in\n        /* \"#utility.yul\":15064:15212   */\n    tag_293:\n        /* \"#utility.yul\":15152:15156   */\n      0xff\n        /* \"#utility.yul\":15131:15143   */\n      dup2\n      dup2\n      and\n        /* \"#utility.yul\":15145:15157   */\n      dup4\n      dup3\n      and\n        /* \"#utility.yul\":15127:15158   */\n      add\n      swap1\n        /* \"#utility.yul\":15170:15183   */\n      dup2\n      gt\n        /* \"#utility.yul\":15167:15206   */\n      iszero\n      tag_112\n      jumpi\n        /* \"#utility.yul\":15186:15204   */\n      tag_112\n      tag_306\n      jump\t// in\n        /* \"#utility.yul\":15217:15344   */\n    tag_296:\n        /* \"#utility.yul\":15278:15288   */\n      0x4e487b71\n        /* \"#utility.yul\":15273:15276   */\n      0xe0\n        /* \"#utility.yul\":15269:15289   */\n      shl\n        /* \"#utility.yul\":15266:15267   */\n      0x00\n        /* \"#utility.yul\":15259:15290   */\n      mstore\n        /* \"#utility.yul\":15309:15313   */\n      0x32\n        /* \"#utility.yul\":15306:15307   */\n      0x04\n        /* \"#utility.yul\":15299:15314   */\n      mstore\n        /* \"#utility.yul\":15333:15337   */\n      0x24\n        /* \"#utility.yul\":15330:15331   */\n      0x00\n        /* \"#utility.yul\":15323:15338   */\n      revert\n\n    auxdata: 0xa264697066735822122092e64536e39efd2ec361d23d0835f161c2faa64227f995c7474989b3309f793064736f6c63430008190033\n}\n",
    "bytecode": {
      "linkReferences": {},
      "object": "6080604052348015600e575f80fd5b50611b398061001c5f395ff3fe608060405234801561000f575f80fd5b50600436106100e5575f3560e01c80637382e17a11610088578063a7590f7d11610063578063a7590f7d146101f1578063a780016414610204578063e6d012a214610217578063f3e2541114610238575f80fd5b80637382e17a146101b65780638799d6fc146101c95780638bce12a3146101de575f80fd5b80631e764d45116100c35780631e764d451461015a5780632b85064b1461017d5780635fe2b9ce1461019057806371014bcd146101a3575f80fd5b80630186a423146100e957806310f6fdfc1461011a5780631d4f0d5c1461013a575b5f80fd5b6100fc6100f736600461147c565b61024b565b604051610111999897969594939291906114e4565b60405180910390f35b61012d61012836600461147c565b6104d8565b604051610111919061156e565b61014d6101483660046115a2565b610578565b60405161011191906115bb565b61016d61016836600461147c565b610662565b6040519015158152602001610111565b61014d61018b36600461147c565b61068e565b61012d61019e36600461161d565b610775565b61016d6101b136600461147c565b610826565b61014d6101c43660046115a2565b6108c2565b6101dc6101d7366004611645565b6109a1565b005b61012d6101ec36600461147c565b610cbf565b61012d6101ff3660046116eb565b610dd9565b61012d61021236600461161d565b610e03565b61022a61022536600461147c565b610e1c565b604051908152602001610111565b6101dc61024636600461172d565b610eaf565b80516020818301810180515f825292820191909301209152805481906102709061178d565b80601f016020809104026020016040519081016040528092919081815260200182805461029c9061178d565b80156102e75780601f106102be576101008083540402835291602001916102e7565b820191905f5260205f20905b8154815290600101906020018083116102ca57829003601f168201915b5050505050908060010180546102fc9061178d565b80601f01602080910402602001604051908101604052809291908181526020018280546103289061178d565b80156103735780601f1061034a57610100808354040283529160200191610373565b820191905f5260205f20905b81548152906001019060200180831161035657829003601f168201915b505050600284015460038501805494956001600160a01b0390921694919350915061039d9061178d565b80601f01602080910402602001604051908101604052809291908181526020018280546103c99061178d565b80156104145780601f106103eb57610100808354040283529160200191610414565b820191905f5260205f20905b8154815290600101906020018083116103f757829003601f168201915b505050600484015460058501805494956001600160a01b0390921694919350915061043e9061178d565b80601f016020809104026020016040519081016040528092919081815260200182805461046a9061178d565b80156104b55780601f1061048c576101008083540402835291602001916104b5565b820191905f5260205f20905b81548152906001019060200180831161049857829003601f168201915b505050506006830154600790930154919260ff8082169361010090920416915089565b60605f826040516104e991906117dc565b9081526040519081900360200190206006015460ff166105495760405162461bcd60e51b8152602060048201526016602482015275141c9bd91d58dd081b9bdd081c9959da5cdd195c995960521b60448201526064015b60405180910390fd5b6105725f8360405161055b91906117dc565b90815260200160405180910390206007015461105d565b92915050565b6001600160a01b0381165f908152600260209081526040808320805482518185028101850190935280835260609492939192909184015b82821015610657578382905f5260205f200180546105cc9061178d565b80601f01602080910402602001604051908101604052809291908181526020018280546105f89061178d565b80156106435780601f1061061a57610100808354040283529160200191610643565b820191905f5260205f20905b81548152906001019060200180831161062657829003601f168201915b5050505050815260200190600101906105af565b505050509050919050565b5f808260405161067291906117dc565b9081526040519081900360200190206006015460ff1692915050565b60606003826040516106a091906117dc565b9081526020016040518091039020805480602002602001604051908101604052809291908181526020015f905b82821015610657578382905f5260205f200180546106ea9061178d565b80601f01602080910402602001604051908101604052809291908181526020018280546107169061178d565b80156107615780601f1061073857610100808354040283529160200191610761565b820191905f5260205f20905b81548152906001019060200180831161074457829003601f168201915b5050505050815260200190600101906106cd565b6001602052815f5260405f20818154811061078e575f80fd5b905f5260205f20015f915091505080546107a79061178d565b80601f01602080910402602001604051908101604052809291908181526020018280546107d39061178d565b801561081e5780601f106107f55761010080835404028352916020019161081e565b820191905f5260205f20905b81548152906001019060200180831161080157829003601f168201915b505050505081565b5f808260405161083691906117dc565b9081526040519081900360200190206006015460ff166108915760405162461bcd60e51b8152602060048201526016602482015275141c9bd91d58dd081b9bdd081c9959da5cdd195c995960521b6044820152606401610540565b5f826040516108a091906117dc565b9081526040519081900360200190206006015460ff6101009091041692915050565b6001600160a01b0381165f908152600160209081526040808320805482518185028101850190935280835260609492939192909184015b82821015610657578382905f5260205f200180546109169061178d565b80601f01602080910402602001604051908101604052809291908181526020018280546109429061178d565b801561098d5780601f106109645761010080835404028352916020019161098d565b820191905f5260205f20905b81548152906001019060200180831161097057829003601f168201915b5050505050815260200190600101906108f9565b5f846040516109b091906117dc565b9081526040519081900360200190206006015460ff1615610a135760405162461bcd60e51b815260206004820152601a60248201527f50726f6475637420616c726561647920726567697374657265640000000000006044820152606401610540565b5f815111610a6d5760405162461bcd60e51b815260206004820152602160248201527f4d616e756661637475726572206e616d652063616e6e6f7420626520656d70746044820152607960f81b6064820152608401610540565b5f825111610abd5760405162461bcd60e51b815260206004820152601c60248201527f4261746368206e756d6265722063616e6e6f7420626520656d707479000000006044820152606401610540565b604080516101208101825284815260208082018590523382840152606082018490525f608083018190528351918201845280825260a0830191909152600160c083015260e082018190524261010083018190529251610b1d9088906117dc565b90815260405190819003602001902081518190610b3a9082611833565b5060208201516001820190610b4f9082611833565b50604082015160028201805473ffffffffffffffffffffffffffffffffffffffff19166001600160a01b0390921691909117905560608201516003820190610b979082611833565b50608082015160048201805473ffffffffffffffffffffffffffffffffffffffff19166001600160a01b0390921691909117905560a08201516005820190610bdf9082611833565b5060c082015160068201805460e085015161ffff1990911692151561ff00191692909217610100921515830217905590910151600790910155335f908152600160208181526040832080549283018155835290912001610c3f8682611833565b50600383604051610c5091906117dc565b9081526040516020918190038201902080546001810182555f91825291902001610c7a8682611833565b507f0c0d491e345bc2978c00d63d2467e57a7b6d771cf759616a786b1d339d75f1b585843384604051610cb094939291906118f3565b60405180910390a15050505050565b60605f82604051610cd091906117dc565b9081526040519081900360200190206006015460ff16610d2b5760405162461bcd60e51b8152602060048201526016602482015275141c9bd91d58dd081b9bdd081c9959da5cdd195c995960521b6044820152606401610540565b5f82604051610d3a91906117dc565b90815260200160405180910390206001018054610d569061178d565b80601f0160208091040260200160405190810160405280929190818152602001828054610d829061178d565b8015610dcd5780601f10610da457610100808354040283529160200191610dcd565b820191905f5260205f20905b815481529060010190602001808311610db057829003601f168201915b50505050509050919050565b8151602081840181018051600382529282019185019190912091905280548290811061078e575f80fd5b6002602052815f5260405f20818154811061078e575f80fd5b5f8082604051610e2c91906117dc565b9081526040519081900360200190206006015460ff16610e875760405162461bcd60e51b8152602060048201526016602482015275141c9bd91d58dd081b9bdd081c9959da5cdd195c995960521b6044820152606401610540565b5f82604051610e9691906117dc565b9081526020016040518091039020600701549050919050565b5f82604051610ebe91906117dc565b9081526040519081900360200190206006015460ff16610f195760405162461bcd60e51b8152602060048201526016602482015275141c9bd91d58dd081b9bdd081c9959da5cdd195c995960521b6044820152606401610540565b5f8083604051610f2991906117dc565b9081526040519081900360200190206006810154909150429060ff6101009091041615610fb15760048201546001600160a01b03163314610fac5760405162461bcd60e51b815260206004820181905260248201527f416c726561647920636c61696d656420627920616e6f74686572206f776e65726044820152606401610540565b611057565b60048201805473ffffffffffffffffffffffffffffffffffffffff19163317905560058201610fe08482611833565b5060068201805461ff001916610100179055335f9081526002602090815260408220805460018101825590835291200161101a8582611833565b507fcd244ed2b3e9ff3369bec5733b9f3bb0bb6055a4c23596529b92cb834caee25284338360405161104e93929190611934565b60405180910390a15b50505050565b60605f80806110776110726201518087611989565b611133565b925092509250611086836112a1565b600a83106110a25760405180602001604052805f8152506110bd565b604051806040016040528060018152602001600360fc1b8152505b6110c6846112a1565b600a84106110e25760405180602001604052805f8152506110fd565b604051806040016040528060018152602001600360fc1b8152505b611106856112a1565b60405160200161111a95949392919061199c565b6040516020818303038152906040529350505050919050565b5f808083816111458262010bd96119ec565b6111529062253d8c6119ec565b90505f62023ab1611164836004611a13565b61116e9190611a42565b9050600461117f8262023ab1611a13565b61118a9060036119ec565b6111949190611a42565b61119e9083611a6e565b91505f62164b096111b08460016119ec565b6111bc90610fa0611a13565b6111c69190611a42565b905060046111d6826105b5611a13565b6111e09190611a42565b6111ea9084611a6e565b6111f590601f6119ec565b92505f61098f611206856050611a13565b6112109190611a42565b90505f60506112218361098f611a13565b61122b9190611a42565b6112359086611a6e565b9050611242600b83611a42565b945061124f85600c611a13565b61125a8360026119ec565b6112649190611a6e565b91508483611273603187611a6e565b61127e906064611a13565b61128891906119ec565b61129291906119ec565b9a919950975095505050505050565b6060815f036112c75750506040805180820190915260018152600360fc1b602082015290565b815f5b81156112f057806112da81611a94565b91506112e99050600a83611989565b91506112ca565b5f8167ffffffffffffffff81111561130a5761130a6113df565b6040519080825280601f01601f191660200182016040528015611334576020820181803683370190505b509050815b85156113d65761134a600182611aac565b90505f611358600a88611989565b61136390600a611abf565b61136d9088611aac565b611378906030611ad6565b90505f8160f81b90508084848151811061139457611394611aef565b60200101907effffffffffffffffffffffffffffffffffffffffffffffffffffffffffffff191690815f1a9053506113cd600a89611989565b97505050611339565b50949350505050565b634e487b7160e01b5f52604160045260245ffd5b5f82601f830112611402575f80fd5b813567ffffffffffffffff8082111561141d5761141d6113df565b604051601f8301601f19908116603f01168101908282118183101715611445576114456113df565b8160405283815286602085880101111561145d575f80fd5b836020870160208301375f602085830101528094505050505092915050565b5f6020828403121561148c575f80fd5b813567ffffffffffffffff8111156114a2575f80fd5b6114ae848285016113f3565b949350505050565b5f81518084528060208401602086015e5f602082860101526020601f19601f83011685010191505092915050565b5f6101208083526114f78184018d6114b6565b9050828103602084015261150b818c6114b6565b90506001600160a01b03808b166040850152838203606085015261152f828b6114b6565b908916608085015283810360a0850152905061154b81886114b6565b95151560c0840152505091151560e0830152610100909101529695505050505050565b602081525f61158060208301846114b6565b9392505050565b80356001600160a01b038116811461159d575f80fd5b919050565b5f602082840312156115b2575f80fd5b61158082611587565b5f60208083016020845280855180835260408601915060408160051b8701019250602087015f5b8281101561161057603f198886030184526115fe8583516114b6565b945092850192908501906001016115e2565b5092979650505050505050565b5f806040838503121561162e575f80fd5b61163783611587565b946020939093013593505050565b5f805f8060808587031215611658575f80fd5b843567ffffffffffffffff8082111561166f575f80fd5b61167b888389016113f3565b95506020870135915080821115611690575f80fd5b61169c888389016113f3565b945060408701359150808211156116b1575f80fd5b6116bd888389016113f3565b935060608701359150808211156116d2575f80fd5b506116df878288016113f3565b91505092959194509250565b5f80604083850312156116fc575f80fd5b823567ffffffffffffffff811115611712575f80fd5b61171e858286016113f3565b95602094909401359450505050565b5f806040838503121561173e575f80fd5b823567ffffffffffffffff80821115611755575f80fd5b611761868387016113f3565b93506020850135915080821115611776575f80fd5b50611783858286016113f3565b9150509250929050565b600181811c908216806117a157607f821691505b6020821081036117bf57634e487b7160e01b5f52602260045260245ffd5b50919050565b5f81518060208401855e5f93019283525090919050565b5f61158082846117c5565b601f82111561182e57805f5260205f20601f840160051c8101602085101561180c5750805b601f840160051c820191505b8181101561182b575f8155600101611818565b50505b505050565b815167ffffffffffffffff81111561184d5761184d6113df565b6118618161185b845461178d565b846117e7565b602080601f831160018114611894575f841561187d5750858301515b5f19600386901b1c1916600185901b1785556118eb565b5f85815260208120601f198616915b828110156118c2578886015182559484019460019091019084016118a3565b50858210156118df57878501515f19600388901b60f8161c191681555b505060018460011b0185555b505050505050565b608081525f61190560808301876114b6565b828103602084015261191781876114b6565b6001600160a01b0395909516604084015250506060015292915050565b606081525f61194660608301866114b6565b6001600160a01b039490941660208301525060400152919050565b634e487b7160e01b5f52601260045260245ffd5b634e487b7160e01b5f52601160045260245ffd5b5f8261199757611997611961565b500490565b5f6119a782886117c5565b602d60f81b8082526119c56119bf600184018a6117c5565b886117c5565b90815290506119e06119da60018301876117c5565b856117c5565b98975050505050505050565b8082018281125f831280158216821582161715611a0b57611a0b611975565b505092915050565b8082025f8212600160ff1b84141615611a2e57611a2e611975565b818105831482151761057257610572611975565b5f82611a5057611a50611961565b600160ff1b82145f1984141615611a6957611a69611975565b500590565b8181035f831280158383131683831282161715611a8d57611a8d611975565b5092915050565b5f60018201611aa557611aa5611975565b5060010190565b8181038181111561057257610572611975565b808202811582820484141761057257610572611975565b60ff818116838216019081111561057257610572611975565b634e487b7160e01b5f52603260045260245ffdfea264697066735822122092e64536e39efd2ec361d23d0835f161c2faa64227f995c7474989b3309f793064736f6c63430008190033",
      "opcodes": "PUSH1 0x80 PUSH1 0x40 MSTORE CALLVALUE DUP1 ISZERO PUSH1 0xE JUMPI PUSH0 DUP1 REVERT JUMPDEST POP PUSH2 0x1B39 DUP1 PUSH2 0x1C PUSH0 CODECOPY PUSH0 RETURN INVALID PUSH1 0x80 PUSH1 0x40 MSTORE CALLVALUE DUP1 ISZERO PUSH2 0xF JUMPI PUSH0 DUP1 REVERT JUMPDEST POP PUSH1 0x4 CALLDATASIZE LT PUSH2 0xE5 JUMPI PUSH0 CALLDATALOAD PUSH1 0xE0 SHR DUP1 PUSH4 0x7382E17A GT PUSH2 0x88 JUMPI DUP1 PUSH4 0xA7590F7D GT PUSH2 0x63 JUMPI DUP1 PUSH4 0xA7590F7D EQ PUSH2 0x1F1 JUMPI DUP1 PUSH4 0xA7800164 EQ PUSH2 0x204 JUMPI DUP1 PUSH4 0xE6D012A2 EQ PUSH2 0x217 JUMPI DUP1 PUSH4 0xF3E25411 EQ PUSH2 0x238 JUMPI PUSH0 DUP1 REVERT JUMPDEST DUP1 PUSH4 0x7382E17A EQ PUSH2 0x1B6 JUMPI DUP1 PUSH4 0x8799D6FC EQ PUSH2 0x1C9 JUMPI DUP1 PUSH4 0x8BCE12A3 EQ PUSH2 0x1DE JUMPI PUSH0 DUP1 REVERT JUMPDEST DUP1 PUSH4 0x1E764D45 GT PUSH2 0xC3 JUMPI DUP1 PUSH4 0x1E764D45 EQ PUSH2 0x15A JUMPI DUP1 PUSH4 0x2B85064B EQ PUSH2 0x17D JUMPI DUP1 PUSH4 0x5FE2B9CE EQ PUSH2 0x190 JUMPI DUP1 PUSH4 0x71014BCD EQ PUSH2 0x1A3 JUMPI PUSH0 DUP1 REVERT JUMPDEST DUP1 PUSH4 0x186A423 EQ PUSH2 0xE9 JUMPI DUP1 PUSH4 0x10F6FDFC EQ PUSH2 0x11A JUMPI DUP1 PUSH4 0x1D4F0D5C EQ PUSH2 0x13A JUMPI JUMPDEST PUSH0 DUP1 REVERT JUMPDEST PUSH2 0xFC PUSH2 0xF7 CALLDATASIZE PUSH1 0x4 PUSH2 0x147C JUMP JUMPDEST PUSH2 0x24B JUMP JUMPDEST PUSH1 0x40 MLOAD PUSH2 0x111 SWAP10 SWAP9 SWAP8 SWAP7 SWAP6 SWAP5 SWAP4 SWAP3 SWAP2 SWAP1 PUSH2 0x14E4 JUMP JUMPDEST PUSH1 0x40 MLOAD DUP1 SWAP2 SUB SWAP1 RETURN JUMPDEST PUSH2 0x12D PUSH2 0x128 CALLDATASIZE PUSH1 0x4 PUSH2 0x147C JUMP JUMPDEST PUSH2 0x4D8 JUMP JUMPDEST PUSH1 0x40 MLOAD PUSH2 0x111 SWAP2 SWAP1 PUSH2 0x156E JUMP JUMPDEST PUSH2 0x14D PUSH2 0x148 CALLDATASIZE PUSH1 0x4 PUSH2 0x15A2 JUMP JUMPDEST PUSH2 0x578 JUMP JUMPDEST PUSH1 0x40 MLOAD PUSH2 0x111 SWAP2 SWAP1 PUSH2 0x15BB JUMP JUMPDEST PUSH2 0x16D PUSH2 0x168 CALLDATASIZE PUSH1 0x4 PUSH2 0x147C JUMP JUMPDEST PUSH2 0x662 JUMP JUMPDEST PUSH1 0x40 MLOAD SWAP1 ISZERO ISZERO DUP2 MSTORE PUSH1 0x20 ADD PUSH2 0x111 JUMP JUMPDEST PUSH2 0x14D PUSH2 0x18B CALLDATASIZE PUSH1 0x4 PUSH2 0x147C JUMP JUMPDEST PUSH2 0x68E JUMP JUMPDEST PUSH2 0x12D PUSH2 0x19E CALLDATASIZE PUSH1 0x4 PUSH2 0x161D JUMP JUMPDEST PUSH2 0x775 JUMP JUMPDEST PUSH2 0x16D PUSH2 0x1B1 CALLDATASIZE PUSH1 0x4 PUSH2 0x147C JUMP JUMPDEST PUSH2 0x826 JUMP JUMPDEST PUSH2 0x14D PUSH2 0x1C4 CALLDATASIZE PUSH1 0x4 PUSH2 0x15A2 JUMP JUMPDEST PUSH2 0x8C2 JUMP JUMPDEST PUSH2 0x1DC PUSH2 0x1D7 CALLDATASIZE PUSH1 0x4 PUSH2 0x1645 JUMP JUMPDEST PUSH2 0x9A1 JUMP JUMPDEST STOP JUMPDEST PUSH2 0x12D PUSH2 0x1EC CALLDATASIZE PUSH1 0x4 PUSH2 0x147C JUMP JUMPDEST PUSH2 0xCBF JUMP JUMPDEST PUSH2 0x12D PUSH2 0x1FF CALLDATASIZE PUSH1 0x4 PUSH2 0x16EB JUMP JUMPDEST PUSH2 0xDD9 JUMP JUMPDEST PUSH2 0x12D PUSH2 0x212 CALLDATASIZE PUSH1 0x4 PUSH2 0x161D JUMP JUMPDEST PUSH2 0xE03 JUMP JUMPDEST PUSH2 0x22A PUSH2 0x225 CALLDATASIZE PUSH1 0x4 PUSH2 0x147C JUMP JUMPDEST PUSH2 0xE1C JUMP JUMPDEST PUSH1 0x40 MLOAD SWAP1 DUP2 MSTORE PUSH1 0x20 ADD PUSH2 0x111 JUMP JUMPDEST PUSH2 0x1DC PUSH2 0x246 CALLDATASIZE PUSH1 0x4 PUSH2 0x172D JUMP JUMPDEST PUSH2 0xEAF JUMP JUMPDEST DUP1 MLOAD PUSH1 0x20 DUP2 DUP4 ADD DUP2 ADD DUP1 MLOAD PUSH0 DUP3 MSTORE SWAP3 DUP3 ADD SWAP2 SWAP1 SWAP4 ADD KECCAK256 SWAP2 MSTORE DUP1 SLOAD DUP2 SWAP1 PUSH2 0x270 SWAP1 PUSH2 0x178D JUMP JUMPDEST DUP1 PUSH1 0x1F ADD PUSH1 0x20 DUP1 SWAP2 DIV MUL PUSH1 0x20 ADD PUSH1 0x40 MLOAD SWAP1 DUP2 ADD PUSH1 0x40 MSTORE DUP1 SWAP3 SWAP2 SWAP1 DUP2 DUP2 MSTORE PUSH1 0x20 ADD DUP3 DUP1 SLOAD PUSH2 0x29C SWAP1 PUSH2 0x178D JUMP JUMPDEST DUP1 ISZERO PUSH2 0x2E7 JUMPI DUP1 PUSH1 0x1F LT PUSH2 0x2BE JUMPI PUSH2 0x100 DUP1 DUP4 SLOAD DIV MUL DUP4 MSTORE SWAP2 PUSH1 0x20 ADD SWAP2 PUSH2 0x2E7 JUMP JUMPDEST DUP3 ADD SWAP2 SWAP1 PUSH0 MSTORE PUSH1 0x20 PUSH0 KECCAK256 SWAP1 JUMPDEST DUP2 SLOAD DUP2 MSTORE SWAP1 PUSH1 0x1 ADD SWAP1 PUSH1 0x20 ADD DUP1 DUP4 GT PUSH2 0x2CA JUMPI DUP3 SWAP1 SUB PUSH1 0x1F AND DUP3 ADD SWAP2 JUMPDEST POP POP POP POP POP SWAP1 DUP1 PUSH1 0x1 ADD DUP1 SLOAD PUSH2 0x2FC SWAP1 PUSH2 0x178D JUMP JUMPDEST DUP1 PUSH1 0x1F ADD PUSH1 0x20 DUP1 SWAP2 DIV MUL PUSH1 0x20 ADD PUSH1 0x40 MLOAD SWAP1 DUP2 ADD PUSH1 0x40 MSTORE DUP1 SWAP3 SWAP2 SWAP1 DUP2 DUP2 MSTORE PUSH1 0x20 ADD DUP3 DUP1 SLOAD PUSH2 0x328 SWAP1 PUSH2 0x178D JUMP JUMPDEST DUP1 ISZERO PUSH2 0x373 JUMPI DUP1 PUSH1 0x1F LT PUSH2 0x34A JUMPI PUSH2 0x100 DUP1 DUP4 SLOAD DIV MUL DUP4 MSTORE SWAP2 PUSH1 0x20 ADD SWAP2 PUSH2 0x373 JUMP JUMPDEST DUP3 ADD SWAP2 SWAP1 PUSH0 MSTORE PUSH1 0x20 PUSH0 KECCAK256 SWAP1 JUMPDEST DUP2 SLOAD DUP2 MSTORE SWAP1 PUSH1 0x1 ADD SWAP1 PUSH1 0x20 ADD DUP1 DUP4 GT PUSH2 0x356 JUMPI DUP3 SWAP1 SUB PUSH1 0x1F AND DUP3 ADD SWAP2 JUMPDEST POP POP POP PUSH1 0x2 DUP5 ADD SLOAD PUSH1 0x3 DUP6 ADD DUP1 SLOAD SWAP5 SWAP6 PUSH1 0x1 PUSH1 0x1 PUSH1 0xA0 SHL SUB SWAP1 SWAP3 AND SWAP5 SWAP2 SWAP4 POP SWAP2 POP PUSH2 0x39D SWAP1 PUSH2 0x178D JUMP JUMPDEST DUP1 PUSH1 0x1F ADD PUSH1 0x20 DUP1 SWAP2 DIV MUL PUSH1 0x20 ADD PUSH1 0x40 MLOAD SWAP1 DUP2 ADD PUSH1 0x40 MSTORE DUP1 SWAP3 SWAP2 SWAP1 DUP2 DUP2 MSTORE PUSH1 0x20 ADD DUP3 DUP1 SLOAD PUSH2 0x3C9 SWAP1 PUSH2 0x178D JUMP JUMPDEST DUP1 ISZERO PUSH2 0x414 JUMPI DUP1 PUSH1 0x1F LT PUSH2 0x3EB JUMPI PUSH2 0x100 DUP1 DUP4 SLOAD DIV MUL DUP4 MSTORE SWAP2 PUSH1 0x20 ADD SWAP2 PUSH2 0x414 JUMP JUMPDEST DUP3 ADD SWAP2 SWAP1 PUSH0 MSTORE PUSH1 0x20 PUSH0 KECCAK256 SWAP1 JUMPDEST DUP2 SLOAD DUP2 MSTORE SWAP1 PUSH1 0x1 ADD SWAP1 PUSH1 0x20 ADD DUP1 DUP4 GT PUSH2 0x3F7 JUMPI DUP3 SWAP1 SUB PUSH1 0x1F AND DUP3 ADD SWAP2 JUMPDEST POP POP POP PUSH1 0x4 DUP5 ADD SLOAD PUSH1 0x5 DUP6 ADD DUP1 SLOAD SWAP5 SWAP6 PUSH1 0x1 PUSH1 0x1 PUSH1 0xA0 SHL SUB SWAP1 SWAP3 AND SWAP5 SWAP2 SWAP4 POP SWAP2 POP PUSH2 0x43E SWAP1 PUSH2 0x178D JUMP JUMPDEST DUP1 PUSH1 0x1F ADD PUSH1 0x20 DUP1 SWAP2 DIV MUL PUSH1 0x20 ADD PUSH1 0x40 MLOAD SWAP1 DUP2 ADD PUSH1 0x40 MSTORE DUP1 SWAP3 SWAP2 SWAP1 DUP2 DUP2 MSTORE PUSH1 0x20 ADD DUP3 DUP1 SLOAD PUSH2 0x46A SWAP1 PUSH2 0x178D JUMP JUMPDEST DUP1 ISZERO PUSH2 0x4B5 JUMPI DUP1 PUSH1 0x1F LT PUSH2 0x48C JUMPI PUSH2 0x100 DUP1 DUP4 SLOAD DIV MUL DUP4 MSTORE SWAP2 PUSH1 0x20 ADD SWAP2 PUSH2 0x4B5 JUMP JUMPDEST DUP3 ADD SWAP2 SWAP1 PUSH0 MSTORE PUSH1 0x20 PUSH0 KECCAK256 SWAP1 JUMPDEST DUP2 SLOAD DUP2 MSTORE SWAP1 PUSH1 0x1 ADD SWAP1 PUSH1 0x20 ADD DUP1 DUP4 GT PUSH2 0x498 JUMPI DUP3 SWAP1 SUB PUSH1 0x1F AND DUP3 ADD SWAP2 JUMPDEST POP POP POP POP PUSH1 0x6 DUP4 ADD SLOAD PUSH1 0x7 SWAP1 SWAP4 ADD SLOAD SWAP2 SWAP3 PUSH1 0xFF DUP1 DUP3 AND SWAP4 PUSH2 0x100 SWAP1 SWAP3 DIV AND SWAP2 POP DUP10 JUMP JUMPDEST PUSH1 0x60 PUSH0 DUP3 PUSH1 0x40 MLOAD PUSH2 0x4E9 SWAP2 SWAP1 PUSH2 0x17DC JUMP JUMPDEST SWAP1 DUP2 MSTORE PUSH1 0x40 MLOAD SWAP1 DUP2 SWAP1 SUB PUSH1 0x20 ADD SWAP1 KECCAK256 PUSH1 0x6 ADD SLOAD PUSH1 0xFF AND PUSH2 0x549 JUMPI PUSH1 0x40 MLOAD PUSH3 0x461BCD PUSH1 0xE5 SHL DUP2 MSTORE PUSH1 0x20 PUSH1 0x4 DUP3 ADD MSTORE PUSH1 0x16 PUSH1 0x24 DUP3 ADD MSTORE PUSH22 0x141C9BD91D58DD081B9BDD081C9959DA5CDD195C9959 PUSH1 0x52 SHL PUSH1 0x44 DUP3 ADD MSTORE PUSH1 0x64 ADD JUMPDEST PUSH1 0x40 MLOAD DUP1 SWAP2 SUB SWAP1 REVERT JUMPDEST PUSH2 0x572 PUSH0 DUP4 PUSH1 0x40 MLOAD PUSH2 0x55B SWAP2 SWAP1 PUSH2 0x17DC JUMP JUMPDEST SWAP1 DUP2 MSTORE PUSH1 0x20 ADD PUSH1 0x40 MLOAD DUP1 SWAP2 SUB SWAP1 KECCAK256 PUSH1 0x7 ADD SLOAD PUSH2 0x105D JUMP JUMPDEST SWAP3 SWAP2 POP POP JUMP JUMPDEST PUSH1 0x1 PUSH1 0x1 PUSH1 0xA0 SHL SUB DUP2 AND PUSH0 SWAP1 DUP2 MSTORE PUSH1 0x2 PUSH1 0x20 SWAP1 DUP2 MSTORE PUSH1 0x40 DUP1 DUP4 KECCAK256 DUP1 SLOAD DUP3 MLOAD DUP2 DUP6 MUL DUP2 ADD DUP6 ADD SWAP1 SWAP4 MSTORE DUP1 DUP4 MSTORE PUSH1 0x60 SWAP5 SWAP3 SWAP4 SWAP2 SWAP3 SWAP1 SWAP2 DUP5 ADD JUMPDEST DUP3 DUP3 LT ISZERO PUSH2 0x657 JUMPI DUP4 DUP3 SWAP1 PUSH0 MSTORE PUSH1 0x20 PUSH0 KECCAK256 ADD DUP1 SLOAD PUSH2 0x5CC SWAP1 PUSH2 0x178D JUMP JUMPDEST DUP1 PUSH1 0x1F ADD PUSH1 0x20 DUP1 SWAP2 DIV MUL PUSH1 0x20 ADD PUSH1 0x40 MLOAD SWAP1 DUP2 ADD PUSH1 0x40 MSTORE DUP1 SWAP3 SWAP2 SWAP1 DUP2 DUP2 MSTORE PUSH1 0x20 ADD DUP3 DUP1 SLOAD PUSH2 0x5F8 SWAP1 PUSH2 0x178D JUMP JUMPDEST DUP1 ISZERO PUSH2 0x643 JUMPI DUP1 PUSH1 0x1F LT PUSH2 0x61A JUMPI PUSH2 0x100 DUP1 DUP4 SLOAD DIV MUL DUP4 MSTORE SWAP2 PUSH1 0x20 ADD SWAP2 PUSH2 0x643 JUMP JUMPDEST DUP3 ADD SWAP2 SWAP1 PUSH0 MSTORE PUSH1 0x20 PUSH0 KECCAK256 SWAP1 JUMPDEST DUP2 SLOAD DUP2 MSTORE SWAP1 PUSH1 0x1 ADD SWAP1 PUSH1 0x20 ADD DUP1 DUP4 GT PUSH2 0x626 JUMPI DUP3 SWAP1 SUB PUSH1 0x1F AND DUP3 ADD SWAP2 JUMPDEST POP POP POP POP POP DUP2 MSTORE PUSH1 0x20 ADD SWAP1 PUSH1 0x1 ADD SWAP1 PUSH2 0x5AF JUMP JUMPDEST POP POP POP POP SWAP1 POP SWAP2 SWAP1 POP JUMP JUMPDEST PUSH0 DUP1 DUP3 PUSH1 0x40 MLOAD PUSH2 0x672 SWAP2 SWAP1 PUSH2 0x17DC JUMP JUMPDEST SWAP1 DUP2 MSTORE PUSH1 0x40 MLOAD SWAP1 DUP2 SWAP1 SUB PUSH1 0x20 ADD SWAP1 KECCAK256 PUSH1 0x6 ADD SLOAD PUSH1 0xFF AND SWAP3 SWAP2 POP POP JUMP JUMPDEST PUSH1 0x60 PUSH1 0x3 DUP3 PUSH1 0x40 MLOAD PUSH2 0x6A0 SWAP2 SWAP1 PUSH2 0x17DC JUMP JUMPDEST SWAP1 DUP2 MSTORE PUSH1 0x20 ADD PUSH1 0x40 MLOAD DUP1 SWAP2 SUB SWAP1 KECCAK256 DUP1 SLOAD DUP1 PUSH1 0x20 MUL PUSH1 0x20 ADD PUSH1 0x40 MLOAD SWAP1 DUP2 ADD PUSH1 0x40 MSTORE DUP1 SWAP3 SWAP2 SWAP1 DUP2 DUP2 MSTORE PUSH1 0x20 ADD PUSH0 SWAP1 JUMPDEST DUP3 DUP3 LT ISZERO PUSH2 0x657 JUMPI DUP4 DUP3 SWAP1 PUSH0 MSTORE PUSH1 0x20 PUSH0 KECCAK256 ADD DUP1 SLOAD PUSH2 0x6EA SWAP1 PUSH2 0x178D JUMP JUMPDEST DUP1 PUSH1 0x1F ADD PUSH1 0x20 DUP1 SWAP2 DIV MUL PUSH1 0x20 ADD PUSH1 0x40 MLOAD SWAP1 DUP2 ADD PUSH1 0x40 MSTORE DUP1 SWAP3 SWAP2 SWAP1 DUP2 DUP2 MSTORE PUSH1 0x20 ADD DUP3 DUP1 SLOAD PUSH2 0x716 SWAP1 PUSH2 0x178D JUMP JUMPDEST DUP1 ISZERO PUSH2 0x761 JUMPI DUP1 PUSH1 0x1F LT PUSH2 0x738 JUMPI PUSH2 0x100 DUP1 DUP4 SLOAD DIV MUL DUP4 MSTORE SWAP2 PUSH1 0x20 ADD SWAP2 PUSH2 0x761 JUMP JUMPDEST DUP3 ADD SWAP2 SWAP1 PUSH0 MSTORE PUSH1 0x20 PUSH0 KECCAK256 SWAP1 JUMPDEST DUP2 SLOAD DUP2 MSTORE SWAP1 PUSH1 0x1 ADD SWAP1 PUSH1 0x20 ADD DUP1 DUP4 GT PUSH2 0x744 JUMPI DUP3 SWAP1 SUB PUSH1 0x1F AND DUP3 ADD SWAP2 JUMPDEST POP POP POP POP POP DUP2 MSTORE PUSH1 0x20 ADD SWAP1 PUSH1 0x1 ADD SWAP1 PUSH2 0x6CD JUMP JUMPDEST PUSH1 0x1 PUSH1 0x20 MSTORE DUP2 PUSH0 MSTORE PUSH1 0x40 PUSH0 KECCAK256 DUP2 DUP2 SLOAD DUP2 LT PUSH2 0x78E JUMPI PUSH0 DUP1 REVERT JUMPDEST SWAP1 PUSH0 MSTORE PUSH1 0x20 PUSH0 KECCAK256 ADD PUSH0 SWAP2 POP SWAP2 POP POP DUP1 SLOAD PUSH2 0x7A7 SWAP1 PUSH2 0x178D JUMP JUMPDEST DUP1 PUSH1 0x1F ADD PUSH1 0x20 DUP1 SWAP2 DIV MUL PUSH1 0x20 ADD PUSH1 0x40 MLOAD SWAP1 DUP2 ADD PUSH1 0x40 MSTORE DUP1 SWAP3 SWAP2 SWAP1 DUP2 DUP2 MSTORE PUSH1 0x20 ADD DUP3 DUP1 SLOAD PUSH2 0x7D3 SWAP1 PUSH2 0x178D JUMP JUMPDEST DUP1 ISZERO PUSH2 0x81E JUMPI DUP1 PUSH1 0x1F LT PUSH2 0x7F5 JUMPI PUSH2 0x100 DUP1 DUP4 SLOAD DIV MUL DUP4 MSTORE SWAP2 PUSH1 0x20 ADD SWAP2 PUSH2 0x81E JUMP JUMPDEST DUP3 ADD SWAP2 SWAP1 PUSH0 MSTORE PUSH1 0x20 PUSH0 KECCAK256 SWAP1 JUMPDEST DUP2 SLOAD DUP2 MSTORE SWAP1 PUSH1 0x1 ADD SWAP1 PUSH1 0x20 ADD DUP1 DUP4 GT PUSH2 0x801 JUMPI DUP3 SWAP1 SUB PUSH1 0x1F AND DUP3 ADD SWAP2 JUMPDEST POP POP POP POP POP DUP2 JUMP JUMPDEST PUSH0 DUP1 DUP3 PUSH1 0x40 MLOAD PUSH2 0x836 SWAP2 SWAP1 PUSH2 0x17DC JUMP JUMPDEST SWAP1 DUP2 MSTORE PUSH1 0x40 MLOAD SWAP1 DUP2 SWAP1 SUB PUSH1 0x20 ADD SWAP1 KECCAK256 PUSH1 0x6 ADD SLOAD PUSH1 0xFF AND PUSH2 0x891 JUMPI PUSH1 0x40 MLOAD PUSH3 0x461BCD PUSH1 0xE5 SHL DUP2 MSTORE PUSH1 0x20 PUSH1 0x4 DUP3 ADD MSTORE PUSH1 0x16 PUSH1 0x24 DUP3 ADD MSTORE PUSH22 0x141C9BD91D58DD081B9BDD081C9959DA5CDD195C9959 PUSH1 0x52 SHL PUSH1 0x44 DUP3 ADD MSTORE PUSH1 0x64 ADD PUSH2 0x540 JUMP JUMPDEST PUSH0 DUP3 PUSH1 0x40 MLOAD PUSH2 0x8A0 SWAP2 SWAP1 PUSH2 0x17DC JUMP JUMPDEST SWAP1 DUP2 MSTORE PUSH1 0x40 MLOAD SWAP1 DUP2 SWAP1 SUB PUSH1 0x20 ADD SWAP1 KECCAK256 PUSH1 0x6 ADD SLOAD PUSH1 0xFF PUSH2 0x100 SWAP1 SWAP2 DIV AND SWAP3 SWAP2 POP POP JUMP JUMPDEST PUSH1 0x1 PUSH1 0x1 PUSH1 0xA0 SHL SUB DUP2 AND PUSH0 SWAP1 DUP2 MSTORE PUSH1 0x1 PUSH1 0x20 SWAP1 DUP2 MSTORE PUSH1 0x40 DUP1 DUP4 KECCAK256 DUP1 SLOAD DUP3 MLOAD DUP2 DUP6 MUL DUP2 ADD DUP6 ADD SWAP1 SWAP4 MSTORE DUP1 DUP4 MSTORE PUSH1 0x60 SWAP5 SWAP3 SWAP4 SWAP2 SWAP3 SWAP1 SWAP2 DUP5 ADD JUMPDEST DUP3 DUP3 LT ISZERO PUSH2 0x657 JUMPI DUP4 DUP3 SWAP1 PUSH0 MSTORE PUSH1 0x20 PUSH0 KECCAK256 ADD DUP1 SLOAD PUSH2 0x916 SWAP1 PUSH2 0x178D JUMP JUMPDEST DUP1 PUSH1 0x1F ADD PUSH1 0x20 DUP1 SWAP2 DIV MUL PUSH1 0x20 ADD PUSH1 0x40 MLOAD SWAP1 DUP2 ADD PUSH1 0x40 MSTORE DUP1 SWAP3 SWAP2 SWAP1 DUP2 DUP2 MSTORE PUSH1 0x20 ADD DUP3 DUP1 SLOAD PUSH2 0x942 SWAP1 PUSH2 0x178D JUMP JUMPDEST DUP1 ISZERO PUSH2 0x98D JUMPI DUP1 PUSH1 0x1F LT PUSH2 0x964 JUMPI PUSH2 0x100 DUP1 DUP4 SLOAD DIV MUL DUP4 MSTORE SWAP2 PUSH1 0x20 ADD SWAP2 PUSH2 0x98D JUMP JUMPDEST DUP3 ADD SWAP2 SWAP1 PUSH0 MSTORE PUSH1 0x20 PUSH0 KECCAK256 SWAP1 JUMPDEST DUP2 SLOAD DUP2 MSTORE SWAP1 PUSH1 0x1 ADD SWAP1 PUSH1 0x20 ADD DUP1 DUP4 GT PUSH2 0x970 JUMPI DUP3 SWAP1 SUB PUSH1 0x1F AND DUP3 ADD SWAP2 JUMPDEST POP POP POP POP POP DUP2 MSTORE PUSH1 0x20 ADD SWAP1 PUSH1 0x1 ADD SWAP1 PUSH2 0x8F9 JUMP JUMPDEST PUSH0 DUP5 PUSH1 0x40 MLOAD PUSH2 0x9B0 SWAP2 SWAP1 PUSH2 0x17DC JUMP JUMPDEST SWAP1 DUP2 MSTORE PUSH1 0x40 MLOAD SWAP1 DUP2 SWAP1 SUB PUSH1 0x20 ADD SWAP1 KECCAK256 PUSH1 0x6 ADD SLOAD PUSH1 0xFF AND ISZERO PUSH2 0xA13 JUMPI PUSH1 0x40 MLOAD PUSH3 0x461BCD PUSH1 0xE5 SHL DUP2 MSTORE PUSH1 0x20 PUSH1 0x4 DUP3 ADD MSTORE PUSH1 0x1A PUSH1 0x24 DUP3 ADD MSTORE PUSH32 0x50726F6475637420616C72656164792072656769737465726564000000000000 PUSH1 0x44 DUP3 ADD MSTORE PUSH1 0x64 ADD PUSH2 0x540 JUMP JUMPDEST PUSH0 DUP2 MLOAD GT PUSH2 0xA6D JUMPI PUSH1 0x40 MLOAD PUSH3 0x461BCD PUSH1 0xE5 SHL DUP2 MSTORE PUSH1 0x20 PUSH1 0x4 DUP3 ADD MSTORE PUSH1 0x21 PUSH1 0x24 DUP3 ADD MSTORE PUSH32 0x4D616E756661637475726572206E616D652063616E6E6F7420626520656D7074 PUSH1 0x44 DUP3 ADD MSTORE PUSH1 0x79 PUSH1 0xF8 SHL PUSH1 0x64 DUP3 ADD MSTORE PUSH1 0x84 ADD PUSH2 0x540 JUMP JUMPDEST PUSH0 DUP3 MLOAD GT PUSH2 0xABD JUMPI PUSH1 0x40 MLOAD PUSH3 0x461BCD PUSH1 0xE5 SHL DUP2 MSTORE PUSH1 0x20 PUSH1 0x4 DUP3 ADD MSTORE PUSH1 0x1C PUSH1 0x24 DUP3 ADD MSTORE PUSH32 0x4261746368206E756D6265722063616E6E6F7420626520656D70747900000000 PUSH1 0x44 DUP3 ADD MSTORE PUSH1 0x64 ADD PUSH2 0x540 JUMP JUMPDEST PUSH1 0x40 DUP1 MLOAD PUSH2 0x120 DUP2 ADD DUP3 MSTORE DUP5 DUP2 MSTORE PUSH1 0x20 DUP1 DUP3 ADD DUP6 SWAP1 MSTORE CALLER DUP3 DUP5 ADD MSTORE PUSH1 0x60 DUP3 ADD DUP5 SWAP1 MSTORE PUSH0 PUSH1 0x80 DUP4 ADD DUP2 SWAP1 MSTORE DUP4 MLOAD SWAP2 DUP3 ADD DUP5 MSTORE DUP1 DUP3 MSTORE PUSH1 0xA0 DUP4 ADD SWAP2 SWAP1 SWAP2 MSTORE PUSH1 0x1 PUSH1 0xC0 DUP4 ADD MSTORE PUSH1 0xE0 DUP3 ADD DUP2 SWAP1 MSTORE TIMESTAMP PUSH2 0x100 DUP4 ADD DUP2 SWAP1 MSTORE SWAP3 MLOAD PUSH2 0xB1D SWAP1 DUP9 SWAP1 PUSH2 0x17DC JUMP JUMPDEST SWAP1 DUP2 MSTORE PUSH1 0x40 MLOAD SWAP1 DUP2 SWAP1 SUB PUSH1 0x20 ADD SWAP1 KECCAK256 DUP2 MLOAD DUP2 SWAP1 PUSH2 0xB3A SWAP1 DUP3 PUSH2 0x1833 JUMP JUMPDEST POP PUSH1 0x20 DUP3 ADD MLOAD PUSH1 0x1 DUP3 ADD SWAP1 PUSH2 0xB4F SWAP1 DUP3 PUSH2 0x1833 JUMP JUMPDEST POP PUSH1 0x40 DUP3 ADD MLOAD PUSH1 0x2 DUP3 ADD DUP1 SLOAD PUSH20 0xFFFFFFFFFFFFFFFFFFFFFFFFFFFFFFFFFFFFFFFF NOT AND PUSH1 0x1 PUSH1 0x1 PUSH1 0xA0 SHL SUB SWAP1 SWAP3 AND SWAP2 SWAP1 SWAP2 OR SWAP1 SSTORE PUSH1 0x60 DUP3 ADD MLOAD PUSH1 0x3 DUP3 ADD SWAP1 PUSH2 0xB97 SWAP1 DUP3 PUSH2 0x1833 JUMP JUMPDEST POP PUSH1 0x80 DUP3 ADD MLOAD PUSH1 0x4 DUP3 ADD DUP1 SLOAD PUSH20 0xFFFFFFFFFFFFFFFFFFFFFFFFFFFFFFFFFFFFFFFF NOT AND PUSH1 0x1 PUSH1 0x1 PUSH1 0xA0 SHL SUB SWAP1 SWAP3 AND SWAP2 SWAP1 SWAP2 OR SWAP1 SSTORE PUSH1 0xA0 DUP3 ADD MLOAD PUSH1 0x5 DUP3 ADD SWAP1 PUSH2 0xBDF SWAP1 DUP3 PUSH2 0x1833 JUMP JUMPDEST POP PUSH1 0xC0 DUP3 ADD MLOAD PUSH1 0x6 DUP3 ADD DUP1 SLOAD PUSH1 0xE0 DUP6 ADD MLOAD PUSH2 0xFFFF NOT SWAP1 SWAP2 AND SWAP3 ISZERO ISZERO PUSH2 0xFF00 NOT AND SWAP3 SWAP1 SWAP3 OR PUSH2 0x100 SWAP3 ISZERO ISZERO DUP4 MUL OR SWAP1 SSTORE SWAP1 SWAP2 ADD MLOAD PUSH1 0x7 SWAP1 SWAP2 ADD SSTORE CALLER PUSH0 SWAP1 DUP2 MSTORE PUSH1 0x1 PUSH1 0x20 DUP2 DUP2 MSTORE PUSH1 0x40 DUP4 KECCAK256 DUP1 SLOAD SWAP3 DUP4 ADD DUP2 SSTORE DUP4 MSTORE SWAP1 SWAP2 KECCAK256 ADD PUSH2 0xC3F DUP7 DUP3 PUSH2 0x1833 JUMP JUMPDEST POP PUSH1 0x3 DUP4 PUSH1 0x40 MLOAD PUSH2 0xC50 SWAP2 SWAP1 PUSH2 0x17DC JUMP JUMPDEST SWAP1 DUP2 MSTORE PUSH1 0x40 MLOAD PUSH1 0x20 SWAP2 DUP2 SWAP1 SUB DUP3 ADD SWAP1 KECCAK256 DUP1 SLOAD PUSH1 0x1 DUP2 ADD DUP3 SSTORE PUSH0 SWAP2 DUP3 MSTORE SWAP2 SWAP1 KECCAK256 ADD PUSH2 0xC7A DUP7 DUP3 PUSH2 0x1833 JUMP JUMPDEST POP PUSH32 0xC0D491E345BC2978C00D63D2467E57A7B6D771CF759616A786B1D339D75F1B5 DUP6 DUP5 CALLER DUP5 PUSH1 0x40 MLOAD PUSH2 0xCB0 SWAP5 SWAP4 SWAP3 SWAP2 SWAP1 PUSH2 0x18F3 JUMP JUMPDEST PUSH1 0x40 MLOAD DUP1 SWAP2 SUB SWAP1 LOG1 POP POP POP POP POP JUMP JUMPDEST PUSH1 0x60 PUSH0 DUP3 PUSH1 0x40 MLOAD PUSH2 0xCD0 SWAP2 SWAP1 PUSH2 0x17DC JUMP JUMPDEST SWAP1 DUP2 MSTORE PUSH1 0x40 MLOAD SWAP1 DUP2 SWAP1 SUB PUSH1 0x20 ADD SWAP1 KECCAK256 PUSH1 0x6 ADD SLOAD PUSH1 0xFF AND PUSH2 0xD2B JUMPI PUSH1 0x40 MLOAD PUSH3 0x461BCD PUSH1 0xE5 SHL DUP2 MSTORE PUSH1 0x20 PUSH1 0x4 DUP3 ADD MSTORE PUSH1 0x16 PUSH1 0x24 DUP3 ADD MSTORE PUSH22 0x141C9BD91D58DD081B9BDD081C9959DA5CDD195C9959 PUSH1 0x52 SHL PUSH1 0x44 DUP3 ADD MSTORE PUSH1 0x64 ADD PUSH2 0x540 JUMP JUMPDEST PUSH0 DUP3 PUSH1 0x40 MLOAD PUSH2 0xD3A SWAP2 SWAP1 PUSH2 0x17DC JUMP JUMPDEST SWAP1 DUP2 MSTORE PUSH1 0x20 ADD PUSH1 0x40 MLOAD DUP1 SWAP2 SUB SWAP1 KECCAK256 PUSH1 0x1 ADD DUP1 SLOAD PUSH2 0xD56 SWAP1 PUSH2 0x178D JUMP JUMPDEST DUP1 PUSH1 0x1F ADD PUSH1 0x20 DUP1 SWAP2 DIV MUL PUSH1 0x20 ADD PUSH1 0x40 MLOAD SWAP1 DUP2 ADD PUSH1 0x40 MSTORE DUP1 SWAP3 SWAP2 SWAP1 DUP2 DUP2 MSTORE PUSH1 0x20 ADD DUP3 DUP1 SLOAD PUSH2 0xD82 SWAP1 PUSH2 0x178D JUMP JUMPDEST DUP1 ISZERO PUSH2 0xDCD JUMPI DUP1 PUSH1 0x1F LT PUSH2 0xDA4 JUMPI PUSH2 0x100 DUP1 DUP4 SLOAD DIV MUL DUP4 MSTORE SWAP2 PUSH1 0x20 ADD SWAP2 PUSH2 0xDCD JUMP JUMPDEST DUP3 ADD SWAP2 SWAP1 PUSH0 MSTORE PUSH1 0x20 PUSH0 KECCAK256 SWAP1 JUMPDEST DUP2 SLOAD DUP2 MSTORE SWAP1 PUSH1 0x1 ADD SWAP1 PUSH1 0x20 ADD DUP1 DUP4 GT PUSH2 0xDB0 JUMPI DUP3 SWAP1 SUB PUSH1 0x1F AND DUP3 ADD SWAP2 JUMPDEST POP POP POP POP POP SWAP1 POP SWAP2 SWAP1 POP JUMP JUMPDEST DUP2 MLOAD PUSH1 0x20 DUP2 DUP5 ADD DUP2 ADD DUP1 MLOAD PUSH1 0x3 DUP3 MSTORE SWAP3 DUP3 ADD SWAP2 DUP6 ADD SWAP2 SWAP1 SWAP2 KECCAK256 SWAP2 SWAP1 MSTORE DUP1 SLOAD DUP3 SWAP1 DUP2 LT PUSH2 0x78E JUMPI PUSH0 DUP1 REVERT JUMPDEST PUSH1 0x2 PUSH1 0x20 MSTORE DUP2 PUSH0 MSTORE PUSH1 0x40 PUSH0 KECCAK256 DUP2 DUP2 SLOAD DUP2 LT PUSH2 0x78E JUMPI PUSH0 DUP1 REVERT JUMPDEST PUSH0 DUP1 DUP3 PUSH1 0x40 MLOAD PUSH2 0xE2C SWAP2 SWAP1 PUSH2 0x17DC JUMP JUMPDEST SWAP1 DUP2 MSTORE PUSH1 0x40 MLOAD SWAP1 DUP2 SWAP1 SUB PUSH1 0x20 ADD SWAP1 KECCAK256 PUSH1 0x6 ADD SLOAD PUSH1 0xFF AND PUSH2 0xE87 JUMPI PUSH1 0x40 MLOAD PUSH3 0x461BCD PUSH1 0xE5 SHL DUP2 MSTORE PUSH1 0x20 PUSH1 0x4 DUP3 ADD MSTORE PUSH1 0x16 PUSH1 0x24 DUP3 ADD MSTORE PUSH22 0x141C9BD91D58DD081B9BDD081C9959DA5CDD195C9959 PUSH1 0x52 SHL PUSH1 0x44 DUP3 ADD MSTORE PUSH1 0x64 ADD PUSH2 0x540 JUMP JUMPDEST PUSH0 DUP3 PUSH1 0x40 MLOAD PUSH2 0xE96 SWAP2 SWAP1 PUSH2 0x17DC JUMP JUMPDEST SWAP1 DUP2 MSTORE PUSH1 0x20 ADD PUSH1 0x40 MLOAD DUP1 SWAP2 SUB SWAP1 KECCAK256 PUSH1 0x7 ADD SLOAD SWAP1 POP SWAP2 SWAP1 POP JUMP JUMPDEST PUSH0 DUP3 PUSH1 0x40 MLOAD PUSH2 0xEBE SWAP2 SWAP1 PUSH2 0x17DC JUMP JUMPDEST SWAP1 DUP2 MSTORE PUSH1 0x40 MLOAD SWAP1 DUP2 SWAP1 SUB PUSH1 0x20 ADD SWAP1 KECCAK256 PUSH1 0x6 ADD SLOAD PUSH1 0xFF AND PUSH2 0xF19 JUMPI PUSH1 0x40 MLOAD PUSH3 0x461BCD PUSH1 0xE5 SHL DUP2 MSTORE PUSH1 0x20 PUSH1 0x4 DUP3 ADD MSTORE PUSH1 0x16 PUSH1 0x24 DUP3 ADD MSTORE PUSH22 0x141C9BD91D58DD081B9BDD081C9959DA5CDD195C9959 PUSH1 0x52 SHL PUSH1 0x44 DUP3 ADD MSTORE PUSH1 0x64 ADD PUSH2 0x540 JUMP JUMPDEST PUSH0 DUP1 DUP4 PUSH1 0x40 MLOAD PUSH2 0xF29 SWAP2 SWAP1 PUSH2 0x17DC JUMP JUMPDEST SWAP1 DUP2 MSTORE PUSH1 0x40 MLOAD SWAP1 DUP2 SWAP1 SUB PUSH1 0x20 ADD SWAP1 KECCAK256 PUSH1 0x6 DUP2 ADD SLOAD SWAP1 SWAP2 POP TIMESTAMP SWAP1 PUSH1 0xFF PUSH2 0x100 SWAP1 SWAP2 DIV AND ISZERO PUSH2 0xFB1 JUMPI PUSH1 0x4 DUP3 ADD SLOAD PUSH1 0x1 PUSH1 0x1 PUSH1 0xA0 SHL SUB AND CALLER EQ PUSH2 0xFAC JUMPI PUSH1 0x40 MLOAD PUSH3 0x461BCD PUSH1 0xE5 SHL DUP2 MSTORE PUSH1 0x20 PUSH1 0x4 DUP3 ADD DUP2 SWAP1 MSTORE PUSH1 0x24 DUP3 ADD MSTORE PUSH32 0x416C726561647920636C61696D656420627920616E6F74686572206F776E6572 PUSH1 0x44 DUP3 ADD MSTORE PUSH1 0x64 ADD PUSH2 0x540 JUMP JUMPDEST PUSH2 0x1057 JUMP JUMPDEST PUSH1 0x4 DUP3 ADD DUP1 SLOAD PUSH20 0xFFFFFFFFFFFFFFFFFFFFFFFFFFFFFFFFFFFFFFFF NOT AND CALLER OR SWAP1 SSTORE PUSH1 0x5 DUP3 ADD PUSH2 0xFE0 DUP5 DUP3 PUSH2 0x1833 JUMP JUMPDEST POP PUSH1 0x6 DUP3 ADD DUP1 SLOAD PUSH2 0xFF00 NOT AND PUSH2 0x100 OR SWAP1 SSTORE CALLER PUSH0 SWAP1 DUP2 MSTORE PUSH1 0x2 PUSH1 0x20 SWAP1 DUP2 MSTORE PUSH1 0x40 DUP3 KECCAK256 DUP1 SLOAD PUSH1 0x1 DUP2 ADD DUP3 SSTORE SWAP1 DUP4 MSTORE SWAP2 KECCAK256 ADD PUSH2 0x101A DUP6 DUP3 PUSH2 0x1833 JUMP JUMPDEST POP PUSH32 0xCD244ED2B3E9FF3369BEC5733B9F3BB0BB6055A4C23596529B92CB834CAEE252 DUP5 CALLER DUP4 PUSH1 0x40 MLOAD PUSH2 0x104E SWAP4 SWAP3 SWAP2 SWAP1 PUSH2 0x1934 JUMP JUMPDEST PUSH1 0x40 MLOAD DUP1 SWAP2 SUB SWAP1 LOG1 JUMPDEST POP POP POP POP JUMP JUMPDEST PUSH1 0x60 PUSH0 DUP1 DUP1 PUSH2 0x1077 PUSH2 0x1072 PUSH3 0x15180 DUP8 PUSH2 0x1989 JUMP JUMPDEST PUSH2 0x1133 JUMP JUMPDEST SWAP3 POP SWAP3 POP SWAP3 POP PUSH2 0x1086 DUP4 PUSH2 0x12A1 JUMP JUMPDEST PUSH1 0xA DUP4 LT PUSH2 0x10A2 JUMPI PUSH1 0x40 MLOAD DUP1 PUSH1 0x20 ADD PUSH1 0x40 MSTORE DUP1 PUSH0 DUP2 MSTORE POP PUSH2 0x10BD JUMP JUMPDEST PUSH1 0x40 MLOAD DUP1 PUSH1 0x40 ADD PUSH1 0x40 MSTORE DUP1 PUSH1 0x1 DUP2 MSTORE PUSH1 0x20 ADD PUSH1 0x3 PUSH1 0xFC SHL DUP2 MSTORE POP JUMPDEST PUSH2 0x10C6 DUP5 PUSH2 0x12A1 JUMP JUMPDEST PUSH1 0xA DUP5 LT PUSH2 0x10E2 JUMPI PUSH1 0x40 MLOAD DUP1 PUSH1 0x20 ADD PUSH1 0x40 MSTORE DUP1 PUSH0 DUP2 MSTORE POP PUSH2 0x10FD JUMP JUMPDEST PUSH1 0x40 MLOAD DUP1 PUSH1 0x40 ADD PUSH1 0x40 MSTORE DUP1 PUSH1 0x1 DUP2 MSTORE PUSH1 0x20 ADD PUSH1 0x3 PUSH1 0xFC SHL DUP2 MSTORE POP JUMPDEST PUSH2 0x1106 DUP6 PUSH2 0x12A1 JUMP JUMPDEST PUSH1 0x40 MLOAD PUSH1 0x20 ADD PUSH2 0x111A SWAP6 SWAP5 SWAP4 SWAP3 SWAP2 SWAP1 PUSH2 0x199C JUMP JUMPDEST PUSH1 0x40 MLOAD PUSH1 0x20 DUP2 DUP4 SUB SUB DUP2 MSTORE SWAP1 PUSH1 0x40 MSTORE SWAP4 POP POP POP POP SWAP2 SWAP1 POP JUMP JUMPDEST PUSH0 DUP1 DUP1 DUP4 DUP2 PUSH2 0x1145 DUP3 PUSH3 0x10BD9 PUSH2 0x19EC JUMP JUMPDEST PUSH2 0x1152 SWAP1 PUSH3 0x253D8C PUSH2 0x19EC JUMP JUMPDEST SWAP1 POP PUSH0 PUSH3 0x23AB1 PUSH2 0x1164 DUP4 PUSH1 0x4 PUSH2 0x1A13 JUMP JUMPDEST PUSH2 0x116E SWAP2 SWAP1 PUSH2 0x1A42 JUMP JUMPDEST SWAP1 POP PUSH1 0x4 PUSH2 0x117F DUP3 PUSH3 0x23AB1 PUSH2 0x1A13 JUMP JUMPDEST PUSH2 0x118A SWAP1 PUSH1 0x3 PUSH2 0x19EC JUMP JUMPDEST PUSH2 0x1194 SWAP2 SWAP1 PUSH2 0x1A42 JUMP JUMPDEST PUSH2 0x119E SWAP1 DUP4 PUSH2 0x1A6E JUMP JUMPDEST SWAP2 POP PUSH0 PUSH3 0x164B09 PUSH2 0x11B0 DUP5 PUSH1 0x1 PUSH2 0x19EC JUMP JUMPDEST PUSH2 0x11BC SWAP1 PUSH2 0xFA0 PUSH2 0x1A13 JUMP JUMPDEST PUSH2 0x11C6 SWAP2 SWAP1 PUSH2 0x1A42 JUMP JUMPDEST SWAP1 POP PUSH1 0x4 PUSH2 0x11D6 DUP3 PUSH2 0x5B5 PUSH2 0x1A13 JUMP JUMPDEST PUSH2 0x11E0 SWAP2 SWAP1 PUSH2 0x1A42 JUMP JUMPDEST PUSH2 0x11EA SWAP1 DUP5 PUSH2 0x1A6E JUMP JUMPDEST PUSH2 0x11F5 SWAP1 PUSH1 0x1F PUSH2 0x19EC JUMP JUMPDEST SWAP3 POP PUSH0 PUSH2 0x98F PUSH2 0x1206 DUP6 PUSH1 0x50 PUSH2 0x1A13 JUMP JUMPDEST PUSH2 0x1210 SWAP2 SWAP1 PUSH2 0x1A42 JUMP JUMPDEST SWAP1 POP PUSH0 PUSH1 0x50 PUSH2 0x1221 DUP4 PUSH2 0x98F PUSH2 0x1A13 JUMP JUMPDEST PUSH2 0x122B SWAP2 SWAP1 PUSH2 0x1A42 JUMP JUMPDEST PUSH2 0x1235 SWAP1 DUP7 PUSH2 0x1A6E JUMP JUMPDEST SWAP1 POP PUSH2 0x1242 PUSH1 0xB DUP4 PUSH2 0x1A42 JUMP JUMPDEST SWAP5 POP PUSH2 0x124F DUP6 PUSH1 0xC PUSH2 0x1A13 JUMP JUMPDEST PUSH2 0x125A DUP4 PUSH1 0x2 PUSH2 0x19EC JUMP JUMPDEST PUSH2 0x1264 SWAP2 SWAP1 PUSH2 0x1A6E JUMP JUMPDEST SWAP2 POP DUP5 DUP4 PUSH2 0x1273 PUSH1 0x31 DUP8 PUSH2 0x1A6E JUMP JUMPDEST PUSH2 0x127E SWAP1 PUSH1 0x64 PUSH2 0x1A13 JUMP JUMPDEST PUSH2 0x1288 SWAP2 SWAP1 PUSH2 0x19EC JUMP JUMPDEST PUSH2 0x1292 SWAP2 SWAP1 PUSH2 0x19EC JUMP JUMPDEST SWAP11 SWAP2 SWAP10 POP SWAP8 POP SWAP6 POP POP POP POP POP POP JUMP JUMPDEST PUSH1 0x60 DUP2 PUSH0 SUB PUSH2 0x12C7 JUMPI POP POP PUSH1 0x40 DUP1 MLOAD DUP1 DUP3 ADD SWAP1 SWAP2 MSTORE PUSH1 0x1 DUP2 MSTORE PUSH1 0x3 PUSH1 0xFC SHL PUSH1 0x20 DUP3 ADD MSTORE SWAP1 JUMP JUMPDEST DUP2 PUSH0 JUMPDEST DUP2 ISZERO PUSH2 0x12F0 JUMPI DUP1 PUSH2 0x12DA DUP2 PUSH2 0x1A94 JUMP JUMPDEST SWAP2 POP PUSH2 0x12E9 SWAP1 POP PUSH1 0xA DUP4 PUSH2 0x1989 JUMP JUMPDEST SWAP2 POP PUSH2 0x12CA JUMP JUMPDEST PUSH0 DUP2 PUSH8 0xFFFFFFFFFFFFFFFF DUP2 GT ISZERO PUSH2 0x130A JUMPI PUSH2 0x130A PUSH2 0x13DF JUMP JUMPDEST PUSH1 0x40 MLOAD SWAP1 DUP1 DUP3 MSTORE DUP1 PUSH1 0x1F ADD PUSH1 0x1F NOT AND PUSH1 0x20 ADD DUP3 ADD PUSH1 0x40 MSTORE DUP1 ISZERO PUSH2 0x1334 JUMPI PUSH1 0x20 DUP3 ADD DUP2 DUP1 CALLDATASIZE DUP4 CALLDATACOPY ADD SWAP1 POP JUMPDEST POP SWAP1 POP DUP2 JUMPDEST DUP6 ISZERO PUSH2 0x13D6 JUMPI PUSH2 0x134A PUSH1 0x1 DUP3 PUSH2 0x1AAC JUMP JUMPDEST SWAP1 POP PUSH0 PUSH2 0x1358 PUSH1 0xA DUP9 PUSH2 0x1989 JUMP JUMPDEST PUSH2 0x1363 SWAP1 PUSH1 0xA PUSH2 0x1ABF JUMP JUMPDEST PUSH2 0x136D SWAP1 DUP9 PUSH2 0x1AAC JUMP JUMPDEST PUSH2 0x1378 SWAP1 PUSH1 0x30 PUSH2 0x1AD6 JUMP JUMPDEST SWAP1 POP PUSH0 DUP2 PUSH1 0xF8 SHL SWAP1 POP DUP1 DUP5 DUP5 DUP2 MLOAD DUP2 LT PUSH2 0x1394 JUMPI PUSH2 0x1394 PUSH2 0x1AEF JUMP JUMPDEST PUSH1 0x20 ADD ADD SWAP1 PUSH31 0xFFFFFFFFFFFFFFFFFFFFFFFFFFFFFFFFFFFFFFFFFFFFFFFFFFFFFFFFFFFFFF NOT AND SWAP1 DUP2 PUSH0 BYTE SWAP1 MSTORE8 POP PUSH2 0x13CD PUSH1 0xA DUP10 PUSH2 0x1989 JUMP JUMPDEST SWAP8 POP POP POP PUSH2 0x1339 JUMP JUMPDEST POP SWAP5 SWAP4 POP POP POP POP JUMP JUMPDEST PUSH4 0x4E487B71 PUSH1 0xE0 SHL PUSH0 MSTORE PUSH1 0x41 PUSH1 0x4 MSTORE PUSH1 0x24 PUSH0 REVERT JUMPDEST PUSH0 DUP3 PUSH1 0x1F DUP4 ADD SLT PUSH2 0x1402 JUMPI PUSH0 DUP1 REVERT JUMPDEST DUP2 CALLDATALOAD PUSH8 0xFFFFFFFFFFFFFFFF DUP1 DUP3 GT ISZERO PUSH2 0x141D JUMPI PUSH2 0x141D PUSH2 0x13DF JUMP JUMPDEST PUSH1 0x40 MLOAD PUSH1 0x1F DUP4 ADD PUSH1 0x1F NOT SWAP1 DUP2 AND PUSH1 0x3F ADD AND DUP2 ADD SWAP1 DUP3 DUP3 GT DUP2 DUP4 LT OR ISZERO PUSH2 0x1445 JUMPI PUSH2 0x1445 PUSH2 0x13DF JUMP JUMPDEST DUP2 PUSH1 0x40 MSTORE DUP4 DUP2 MSTORE DUP7 PUSH1 0x20 DUP6 DUP9 ADD ADD GT ISZERO PUSH2 0x145D JUMPI PUSH0 DUP1 REVERT JUMPDEST DUP4 PUSH1 0x20 DUP8 ADD PUSH1 0x20 DUP4 ADD CALLDATACOPY PUSH0 PUSH1 0x20 DUP6 DUP4 ADD ADD MSTORE DUP1 SWAP5 POP POP POP POP POP SWAP3 SWAP2 POP POP JUMP JUMPDEST PUSH0 PUSH1 0x20 DUP3 DUP5 SUB SLT ISZERO PUSH2 0x148C JUMPI PUSH0 DUP1 REVERT JUMPDEST DUP2 CALLDATALOAD PUSH8 0xFFFFFFFFFFFFFFFF DUP2 GT ISZERO PUSH2 0x14A2 JUMPI PUSH0 DUP1 REVERT JUMPDEST PUSH2 0x14AE DUP5 DUP3 DUP6 ADD PUSH2 0x13F3 JUMP JUMPDEST SWAP5 SWAP4 POP POP POP POP JUMP JUMPDEST PUSH0 DUP2 MLOAD DUP1 DUP5 MSTORE DUP1 PUSH1 0x20 DUP5 ADD PUSH1 0x20 DUP7 ADD MCOPY PUSH0 PUSH1 0x20 DUP3 DUP7 ADD ADD MSTORE PUSH1 0x20 PUSH1 0x1F NOT PUSH1 0x1F DUP4 ADD AND DUP6 ADD ADD SWAP2 POP POP SWAP3 SWAP2 POP POP JUMP JUMPDEST PUSH0 PUSH2 0x120 DUP1 DUP4 MSTORE PUSH2 0x14F7 DUP2 DUP5 ADD DUP14 PUSH2 0x14B6 JUMP JUMPDEST SWAP1 POP DUP3 DUP2 SUB PUSH1 0x20 DUP5 ADD MSTORE PUSH2 0x150B DUP2 DUP13 PUSH2 0x14B6 JUMP JUMPDEST SWAP1 POP PUSH1 0x1 PUSH1 0x1 PUSH1 0xA0 SHL SUB DUP1 DUP12 AND PUSH1 0x40 DUP6 ADD MSTORE DUP4 DUP3 SUB PUSH1 0x60 DUP6 ADD MSTORE PUSH2 0x152F DUP3 DUP12 PUSH2 0x14B6 JUMP JUMPDEST SWAP1 DUP10 AND PUSH1 0x80 DUP6 ADD MSTORE DUP4 DUP2 SUB PUSH1 0xA0 DUP6 ADD MSTORE SWAP1 POP PUSH2 0x154B DUP2 DUP9 PUSH2 0x14B6 JUMP JUMPDEST SWAP6 ISZERO ISZERO PUSH1 0xC0 DUP5 ADD MSTORE POP POP SWAP2 ISZERO ISZERO PUSH1 0xE0 DUP4 ADD MSTORE PUSH2 0x100 SWAP1 SWAP2 ADD MSTORE SWAP7 SWAP6 POP POP POP POP POP POP JUMP JUMPDEST PUSH1 0x20 DUP2 MSTORE PUSH0 PUSH2 0x1580 PUSH1 0x20 DUP4 ADD DUP5 PUSH2 0x14B6 JUMP JUMPDEST SWAP4 SWAP3 POP POP POP JUMP JUMPDEST DUP1 CALLDATALOAD PUSH1 0x1 PUSH1 0x1 PUSH1 0xA0 SHL SUB DUP2 AND DUP2 EQ PUSH2 0x159D JUMPI PUSH0 DUP1 REVERT JUMPDEST SWAP2 SWAP1 POP JUMP JUMPDEST PUSH0 PUSH1 0x20 DUP3 DUP5 SUB SLT ISZERO PUSH2 0x15B2 JUMPI PUSH0 DUP1 REVERT JUMPDEST PUSH2 0x1580 DUP3 PUSH2 0x1587 JUMP JUMPDEST PUSH0 PUSH1 0x20 DUP1 DUP4 ADD PUSH1 0x20 DUP5 MSTORE DUP1 DUP6 MLOAD DUP1 DUP4 MSTORE PUSH1 0x40 DUP7 ADD SWAP2 POP PUSH1 0x40 DUP2 PUSH1 0x5 SHL DUP8 ADD ADD SWAP3 POP PUSH1 0x20 DUP8 ADD PUSH0 JUMPDEST DUP3 DUP2 LT ISZERO PUSH2 0x1610 JUMPI PUSH1 0x3F NOT DUP9 DUP7 SUB ADD DUP5 MSTORE PUSH2 0x15FE DUP6 DUP4 MLOAD PUSH2 0x14B6 JUMP JUMPDEST SWAP5 POP SWAP3 DUP6 ADD SWAP3 SWAP1 DUP6 ADD SWAP1 PUSH1 0x1 ADD PUSH2 0x15E2 JUMP JUMPDEST POP SWAP3 SWAP8 SWAP7 POP POP POP POP POP POP POP JUMP JUMPDEST PUSH0 DUP1 PUSH1 0x40 DUP4 DUP6 SUB SLT ISZERO PUSH2 0x162E JUMPI PUSH0 DUP1 REVERT JUMPDEST PUSH2 0x1637 DUP4 PUSH2 0x1587 JUMP JUMPDEST SWAP5 PUSH1 0x20 SWAP4 SWAP1 SWAP4 ADD CALLDATALOAD SWAP4 POP POP POP JUMP JUMPDEST PUSH0 DUP1 PUSH0 DUP1 PUSH1 0x80 DUP6 DUP8 SUB SLT ISZERO PUSH2 0x1658 JUMPI PUSH0 DUP1 REVERT JUMPDEST DUP5 CALLDATALOAD PUSH8 0xFFFFFFFFFFFFFFFF DUP1 DUP3 GT ISZERO PUSH2 0x166F JUMPI PUSH0 DUP1 REVERT JUMPDEST PUSH2 0x167B DUP9 DUP4 DUP10 ADD PUSH2 0x13F3 JUMP JUMPDEST SWAP6 POP PUSH1 0x20 DUP8 ADD CALLDATALOAD SWAP2 POP DUP1 DUP3 GT ISZERO PUSH2 0x1690 JUMPI PUSH0 DUP1 REVERT JUMPDEST PUSH2 0x169C DUP9 DUP4 DUP10 ADD PUSH2 0x13F3 JUMP JUMPDEST SWAP5 POP PUSH1 0x40 DUP8 ADD CALLDATALOAD SWAP2 POP DUP1 DUP3 GT ISZERO PUSH2 0x16B1 JUMPI PUSH0 DUP1 REVERT JUMPDEST PUSH2 0x16BD DUP9 DUP4 DUP10 ADD PUSH2 0x13F3 JUMP JUMPDEST SWAP4 POP PUSH1 0x60 DUP8 ADD CALLDATALOAD SWAP2 POP DUP1 DUP3 GT ISZERO PUSH2 0x16D2 JUMPI PUSH0 DUP1 REVERT JUMPDEST POP PUSH2 0x16DF DUP8 DUP3 DUP9 ADD PUSH2 0x13F3 JUMP JUMPDEST SWAP2 POP POP SWAP3 SWAP6 SWAP2 SWAP5 POP SWAP3 POP JUMP JUMPDEST PUSH0 DUP1 PUSH1 0x40 DUP4 DUP6 SUB SLT ISZERO PUSH2 0x16FC JUMPI PUSH0 DUP1 REVERT JUMPDEST DUP3 CALLDATALOAD PUSH8 0xFFFFFFFFFFFFFFFF DUP2 GT ISZERO PUSH2 0x1712 JUMPI PUSH0 DUP1 REVERT JUMPDEST PUSH2 0x171E DUP6 DUP3 DUP7 ADD PUSH2 0x13F3 JUMP JUMPDEST SWAP6 PUSH1 0x20 SWAP5 SWAP1 SWAP5 ADD CALLDATALOAD SWAP5 POP POP POP POP JUMP JUMPDEST PUSH0 DUP1 PUSH1 0x40 DUP4 DUP6 SUB SLT ISZERO PUSH2 0x173E JUMPI PUSH0 DUP1 REVERT JUMPDEST DUP3 CALLDATALOAD PUSH8 0xFFFFFFFFFFFFFFFF DUP1 DUP3 GT ISZERO PUSH2 0x1755 JUMPI PUSH0 DUP1 REVERT JUMPDEST PUSH2 0x1761 DUP7 DUP4 DUP8 ADD PUSH2 0x13F3 JUMP JUMPDEST SWAP4 POP PUSH1 0x20 DUP6 ADD CALLDATALOAD SWAP2 POP DUP1 DUP3 GT ISZERO PUSH2 0x1776 JUMPI PUSH0 DUP1 REVERT JUMPDEST POP PUSH2 0x1783 DUP6 DUP3 DUP7 ADD PUSH2 0x13F3 JUMP JUMPDEST SWAP2 POP POP SWAP3 POP SWAP3 SWAP1 POP JUMP JUMPDEST PUSH1 0x1 DUP2 DUP2 SHR SWAP1 DUP3 AND DUP1 PUSH2 0x17A1 JUMPI PUSH1 0x7F DUP3 AND SWAP2 POP JUMPDEST PUSH1 0x20 DUP3 LT DUP2 SUB PUSH2 0x17BF JUMPI PUSH4 0x4E487B71 PUSH1 0xE0 SHL PUSH0 MSTORE PUSH1 0x22 PUSH1 0x4 MSTORE PUSH1 0x24 PUSH0 REVERT JUMPDEST POP SWAP2 SWAP1 POP JUMP JUMPDEST PUSH0 DUP2 MLOAD DUP1 PUSH1 0x20 DUP5 ADD DUP6 MCOPY PUSH0 SWAP4 ADD SWAP3 DUP4 MSTORE POP SWAP1 SWAP2 SWAP1 POP JUMP JUMPDEST PUSH0 PUSH2 0x1580 DUP3 DUP5 PUSH2 0x17C5 JUMP JUMPDEST PUSH1 0x1F DUP3 GT ISZERO PUSH2 0x182E JUMPI DUP1 PUSH0 MSTORE PUSH1 0x20 PUSH0 KECCAK256 PUSH1 0x1F DUP5 ADD PUSH1 0x5 SHR DUP2 ADD PUSH1 0x20 DUP6 LT ISZERO PUSH2 0x180C JUMPI POP DUP1 JUMPDEST PUSH1 0x1F DUP5 ADD PUSH1 0x5 SHR DUP3 ADD SWAP2 POP JUMPDEST DUP2 DUP2 LT ISZERO PUSH2 0x182B JUMPI PUSH0 DUP2 SSTORE PUSH1 0x1 ADD PUSH2 0x1818 JUMP JUMPDEST POP POP JUMPDEST POP POP POP JUMP JUMPDEST DUP2 MLOAD PUSH8 0xFFFFFFFFFFFFFFFF DUP2 GT ISZERO PUSH2 0x184D JUMPI PUSH2 0x184D PUSH2 0x13DF JUMP JUMPDEST PUSH2 0x1861 DUP2 PUSH2 0x185B DUP5 SLOAD PUSH2 0x178D JUMP JUMPDEST DUP5 PUSH2 0x17E7 JUMP JUMPDEST PUSH1 0x20 DUP1 PUSH1 0x1F DUP4 GT PUSH1 0x1 DUP2 EQ PUSH2 0x1894 JUMPI PUSH0 DUP5 ISZERO PUSH2 0x187D JUMPI POP DUP6 DUP4 ADD MLOAD JUMPDEST PUSH0 NOT PUSH1 0x3 DUP7 SWAP1 SHL SHR NOT AND PUSH1 0x1 DUP6 SWAP1 SHL OR DUP6 SSTORE PUSH2 0x18EB JUMP JUMPDEST PUSH0 DUP6 DUP2 MSTORE PUSH1 0x20 DUP2 KECCAK256 PUSH1 0x1F NOT DUP7 AND SWAP2 JUMPDEST DUP3 DUP2 LT ISZERO PUSH2 0x18C2 JUMPI DUP9 DUP7 ADD MLOAD DUP3 SSTORE SWAP5 DUP5 ADD SWAP5 PUSH1 0x1 SWAP1 SWAP2 ADD SWAP1 DUP5 ADD PUSH2 0x18A3 JUMP JUMPDEST POP DUP6 DUP3 LT ISZERO PUSH2 0x18DF JUMPI DUP8 DUP6 ADD MLOAD PUSH0 NOT PUSH1 0x3 DUP9 SWAP1 SHL PUSH1 0xF8 AND SHR NOT AND DUP2 SSTORE JUMPDEST POP POP PUSH1 0x1 DUP5 PUSH1 0x1 SHL ADD DUP6 SSTORE JUMPDEST POP POP POP POP POP POP JUMP JUMPDEST PUSH1 0x80 DUP2 MSTORE PUSH0 PUSH2 0x1905 PUSH1 0x80 DUP4 ADD DUP8 PUSH2 0x14B6 JUMP JUMPDEST DUP3 DUP2 SUB PUSH1 0x20 DUP5 ADD MSTORE PUSH2 0x1917 DUP2 DUP8 PUSH2 0x14B6 JUMP JUMPDEST PUSH1 0x1 PUSH1 0x1 PUSH1 0xA0 SHL SUB SWAP6 SWAP1 SWAP6 AND PUSH1 0x40 DUP5 ADD MSTORE POP POP PUSH1 0x60 ADD MSTORE SWAP3 SWAP2 POP POP JUMP JUMPDEST PUSH1 0x60 DUP2 MSTORE PUSH0 PUSH2 0x1946 PUSH1 0x60 DUP4 ADD DUP7 PUSH2 0x14B6 JUMP JUMPDEST PUSH1 0x1 PUSH1 0x1 PUSH1 0xA0 SHL SUB SWAP5 SWAP1 SWAP5 AND PUSH1 0x20 DUP4 ADD MSTORE POP PUSH1 0x40 ADD MSTORE SWAP2 SWAP1 POP JUMP JUMPDEST PUSH4 0x4E487B71 PUSH1 0xE0 SHL PUSH0 MSTORE PUSH1 0x12 PUSH1 0x4 MSTORE PUSH1 0x24 PUSH0 REVERT JUMPDEST PUSH4 0x4E487B71 PUSH1 0xE0 SHL PUSH0 MSTORE PUSH1 0x11 PUSH1 0x4 MSTORE PUSH1 0x24 PUSH0 REVERT JUMPDEST PUSH0 DUP3 PUSH2 0x1997 JUMPI PUSH2 0x1997 PUSH2 0x1961 JUMP JUMPDEST POP DIV SWAP1 JUMP JUMPDEST PUSH0 PUSH2 0x19A7 DUP3 DUP9 PUSH2 0x17C5 JUMP JUMPDEST PUSH1 0x2D PUSH1 0xF8 SHL DUP1 DUP3 MSTORE PUSH2 0x19C5 PUSH2 0x19BF PUSH1 0x1 DUP5 ADD DUP11 PUSH2 0x17C5 JUMP JUMPDEST DUP9 PUSH2 0x17C5 JUMP JUMPDEST SWAP1 DUP2 MSTORE SWAP1 POP PUSH2 0x19E0 PUSH2 0x19DA PUSH1 0x1 DUP4 ADD DUP8 PUSH2 0x17C5 JUMP JUMPDEST DUP6 PUSH2 0x17C5 JUMP JUMPDEST SWAP9 SWAP8 POP POP POP POP POP POP POP POP JUMP JUMPDEST DUP1 DUP3 ADD DUP3 DUP2 SLT PUSH0 DUP4 SLT DUP1 ISZERO DUP3 AND DUP3 ISZERO DUP3 AND OR ISZERO PUSH2 0x1A0B JUMPI PUSH2 0x1A0B PUSH2 0x1975 JUMP JUMPDEST POP POP SWAP3 SWAP2 POP POP JUMP JUMPDEST DUP1 DUP3 MUL PUSH0 DUP3 SLT PUSH1 0x1 PUSH1 0xFF SHL DUP5 EQ AND ISZERO PUSH2 0x1A2E JUMPI PUSH2 0x1A2E PUSH2 0x1975 JUMP JUMPDEST DUP2 DUP2 SDIV DUP4 EQ DUP3 ISZERO OR PUSH2 0x572 JUMPI PUSH2 0x572 PUSH2 0x1975 JUMP JUMPDEST PUSH0 DUP3 PUSH2 0x1A50 JUMPI PUSH2 0x1A50 PUSH2 0x1961 JUMP JUMPDEST PUSH1 0x1 PUSH1 0xFF SHL DUP3 EQ PUSH0 NOT DUP5 EQ AND ISZERO PUSH2 0x1A69 JUMPI PUSH2 0x1A69 PUSH2 0x1975 JUMP JUMPDEST POP SDIV SWAP1 JUMP JUMPDEST DUP2 DUP2 SUB PUSH0 DUP4 SLT DUP1 ISZERO DUP4 DUP4 SGT AND DUP4 DUP4 SLT DUP3 AND OR ISZERO PUSH2 0x1A8D JUMPI PUSH2 0x1A8D PUSH2 0x1975 JUMP JUMPDEST POP SWAP3 SWAP2 POP POP JUMP JUMPDEST PUSH0 PUSH1 0x1 DUP3 ADD PUSH2 0x1AA5 JUMPI PUSH2 0x1AA5 PUSH2 0x1975 JUMP JUMPDEST POP PUSH1 0x1 ADD SWAP1 JUMP JUMPDEST DUP2 DUP2 SUB DUP2 DUP2 GT ISZERO PUSH2 0x572 JUMPI PUSH2 0x572 PUSH2 0x1975 JUMP JUMPDEST DUP1 DUP3 MUL DUP2 ISZERO DUP3 DUP3 DIV DUP5 EQ OR PUSH2 0x572 JUMPI PUSH2 0x572 PUSH2 0x1975 JUMP JUMPDEST PUSH1 0xFF DUP2 DUP2 AND DUP4 DUP3 AND ADD SWAP1 DUP2 GT ISZERO PUSH2 0x572 JUMPI PUSH2 0x572 PUSH2 0x1975 JUMP JUMPDEST PUSH4 0x4E487B71 PUSH1 0xE0 SHL PUSH0 MSTORE PUSH1 0x32 PUSH1 0x4 MSTORE PUSH1 0x24 PUSH0 REVERT INVALID LOG2 PUSH5 0x6970667358 0x22 SLT KECCAK256 SWAP3 0xE6 GASLIMIT CALLDATASIZE 0xE3 SWAP15 REVERT 0x2E 0xC3 PUSH2 0xD23D ADDMOD CALLDATALOAD CALL PUSH2 0xC2FA 0xA6 TIMESTAMP 0x27 0xF9 SWAP6 0xC7 SELFBALANCE BLOBHASH DUP10 0xB3 ADDRESS SWAP16 PUSH26 0x3064736F6C634300081900330000000000000000000000000000 "
    },
    "gasEstimates": {
      "creation": {
        "codeDepositCost": "1393800",
        "executionCost": "1449",
        "totalCost": "1395249"
      },
      "external": {
        "batchProducts(string,uint256)": "infinite",
        "claimProduct(string,string)": "infinite",
        "getManufacturerProducts(address)": "infinite",
        "getOwnerProducts(address)": "infinite",
        "getProductBatch(string)": "infinite",
        "getProductsByBatch(string)": "infinite",
        "getRegistrationDate(string)": "infinite",
        "getRegistrationTimestamp(string)": "infinite",
        "isProductClaimed(string)": "infinite",
        "isProductRegistered(string)": "infinite",
        "manufacturerProducts(address,uint256)": "infinite",
        "ownerProducts(address,uint256)": "infinite",
        "products(string)": "infinite",
        "registerProduct(string,string,string,string)": "infinite"
      },
      "internal": {
        "daysToDate(uint256)": "infinite",
        "timestampToDate(uint256)": "infinite",
        "uint2str(uint256)": "infinite"
      }
    },
    "methodIdentifiers": {
      "batchProducts(string,uint256)": "a7590f7d",
      "claimProduct(string,string)": "f3e25411",
      "getManufacturerProducts(address)": "7382e17a",
      "getOwnerProducts(address)": "1d4f0d5c",
      "getProductBatch(string)": "8bce12a3",
      "getProductsByBatch(string)": "2b85064b",
      "getRegistrationDate(string)": "10f6fdfc",
      "getRegistrationTimestamp(string)": "e6d012a2",
      "isProductClaimed(string)": "71014bcd",
      "isProductRegistered(string)": "1e764d45",
      "manufacturerProducts(address,uint256)": "5fe2b9ce",
      "ownerProducts(address,uint256)": "a7800164",
      "products(string)": "0186a423",
      "registerProduct(string,string,string,string)": "8799d6fc"
    }
  },
  "storageLayout": {
    "storage": [
      {
        "astId": 25,
        "contract": "ProductRegistry.sol:ProductRegistry",
        "label": "products",
        "offset": 0,
        "slot": "0",
        "type": "t_mapping(t_string_memory_ptr,t_struct(Product)20_storage)"
      },
      {
        "astId": 30,
        "contract": "ProductRegistry.sol:ProductRegistry",
        "label": "manufacturerProducts",
        "offset": 0,
        "slot": "1",
        "type": "t_mapping(t_address,t_array(t_string_storage)dyn_storage)"
      },
      {
        "astId": 35,
        "contract": "ProductRegistry.sol:ProductRegistry",
        "label": "ownerProducts",
        "offset": 0,
        "slot": "2",
        "type": "t_mapping(t_address,t_array(t_string_storage)dyn_storage)"
      },
      {
        "astId": 40,
        "contract": "ProductRegistry.sol:ProductRegistry",
        "label": "batchProducts",
        "offset": 0,
        "slot": "3",
        "type": "t_mapping(t_string_memory_ptr,t_array(t_string_storage)dyn_storage)"
      }
    ],
    "types": {
      "t_address": {
        "encoding": "inplace",
        "label": "address",
        "numberOfBytes": "20"
      },
      "t_array(t_string_storage)dyn_storage": {
        "base": "t_string_storage",
        "encoding": "dynamic_array",
        "label": "string[]",
        "numberOfBytes": "32"
      },
      "t_bool": {
        "encoding": "inplace",
        "label": "bool",
        "numberOfBytes": "1"
      },
      "t_mapping(t_address,t_array(t_string_storage)dyn_storage)": {
        "encoding": "mapping",
        "key": "t_address",
        "label": "mapping(address => string[])",
        "numberOfBytes": "32",
        "value": "t_array(t_string_storage)dyn_storage"
      },
      "t_mapping(t_string_memory_ptr,t_array(t_string_storage)dyn_storage)": {
        "encoding": "mapping",
        "key": "t_string_memory_ptr",
        "label": "mapping(string => string[])",
        "numberOfBytes": "32",
        "value": "t_array(t_string_storage)dyn_storage"
      },
      "t_mapping(t_string_memory_ptr,t_struct(Product)20_storage)": {
        "encoding": "mapping",
        "key": "t_string_memory_ptr",
        "label": "mapping(string => struct ProductRegistry.Product)",
        "numberOfBytes": "32",
        "value": "t_struct(Product)20_storage"
      },
      "t_string_memory_ptr": {
        "encoding": "bytes",
        "label": "string",
        "numberOfBytes": "32"
      },
      "t_string_storage": {
        "encoding": "bytes",
        "label": "string",
        "numberOfBytes": "32"
      },
      "t_struct(Product)20_storage": {
        "encoding": "inplace",
        "label": "struct ProductRegistry.Product",
        "members": [
          {
            "astId": 3,
            "contract": "ProductRegistry.sol:ProductRegistry",
            "label": "name",
            "offset": 0,
            "slot": "0",
            "type": "t_string_storage"
          },
          {
            "astId": 5,
            "contract": "ProductRegistry.sol:ProductRegistry",
            "label": "batchNumber",
            "offset": 0,
            "slot": "1",
            "type": "t_string_storage"
          },
          {
            "astId": 7,
            "contract": "ProductRegistry.sol:ProductRegistry",
            "label": "manufacturer",
            "offset": 0,
            "slot": "2",
            "type": "t_address"
          },
          {
            "astId": 9,
            "contract": "ProductRegistry.sol:ProductRegistry",
            "label": "manufacturerName",
            "offset": 0,
            "slot": "3",
            "type": "t_string_storage"
          },
          {
            "astId": 11,
            "contract": "ProductRegistry.sol:ProductRegistry",
            "label": "owner",
            "offset": 0,
            "slot": "4",
            "type": "t_address"
          },
          {
            "astId": 13,
            "contract": "ProductRegistry.sol:ProductRegistry",
            "label": "ownerName",
            "offset": 0,
            "slot": "5",
            "type": "t_string_storage"
          },
          {
            "astId": 15,
            "contract": "ProductRegistry.sol:ProductRegistry",
            "label": "isRegistered",
            "offset": 0,
            "slot": "6",
            "type": "t_bool"
          },
          {
            "astId": 17,
            "contract": "ProductRegistry.sol:ProductRegistry",
            "label": "isClaimed",
            "offset": 1,
            "slot": "6",
            "type": "t_bool"
          },
          {
            "astId": 19,
            "contract": "ProductRegistry.sol:ProductRegistry",
            "label": "registrationTimestamp",
            "offset": 0,
            "slot": "7",
            "type": "t_uint256"
          }
        ],
        "numberOfBytes": "256"
      },
      "t_uint256": {
        "encoding": "inplace",
        "label": "uint256",
        "numberOfBytes": "32"
      }
    }
  },
  "userdoc": {
    "kind": "user",
    "methods": {},
    "version": 1
  }
}