{
  "_format": "hh-sol-artifact-1",
  "contractName": "OrganTransplant",
  "sourceName": "contracts/Contract.sol",
  "abi": [
    {
      "inputs": [],
      "stateMutability": "nonpayable",
      "type": "constructor"
    },
    {
      "anonymous": false,
      "inputs": [
        {
          "indexed": true,
          "internalType": "uint256",
          "name": "donorId",
          "type": "uint256"
        }
      ],
      "name": "DonorApproved",
      "type": "event"
    },
    {
      "anonymous": false,
      "inputs": [
        {
          "indexed": true,
          "internalType": "uint256",
          "name": "donorId",
          "type": "uint256"
        },
        {
          "indexed": false,
          "internalType": "string",
          "name": "name",
          "type": "string"
        }
      ],
      "name": "DonorRegistered",
      "type": "event"
    },
    {
      "anonymous": false,
      "inputs": [
        {
          "indexed": true,
          "internalType": "uint256",
          "name": "hospitalId",
          "type": "uint256"
        },
        {
          "indexed": false,
          "internalType": "string",
          "name": "name",
          "type": "string"
        }
      ],
      "name": "HospitalRegistered",
      "type": "event"
    },
    {
      "anonymous": false,
      "inputs": [
        {
          "indexed": true,
          "internalType": "address",
          "name": "previousOwner",
          "type": "address"
        },
        {
          "indexed": true,
          "internalType": "address",
          "name": "newOwner",
          "type": "address"
        }
      ],
      "name": "OwnershipTransferred",
      "type": "event"
    },
    {
      "anonymous": false,
      "inputs": [
        {
          "indexed": true,
          "internalType": "uint256",
          "name": "recipientId",
          "type": "uint256"
        }
      ],
      "name": "RecipientApproved",
      "type": "event"
    },
    {
      "anonymous": false,
      "inputs": [
        {
          "indexed": true,
          "internalType": "uint256",
          "name": "recipientId",
          "type": "uint256"
        },
        {
          "indexed": false,
          "internalType": "string",
          "name": "name",
          "type": "string"
        }
      ],
      "name": "RecipientRegistered",
      "type": "event"
    },
    {
      "anonymous": false,
      "inputs": [
        {
          "indexed": true,
          "internalType": "uint256",
          "name": "donorId",
          "type": "uint256"
        },
        {
          "indexed": true,
          "internalType": "uint256",
          "name": "recipientId",
          "type": "uint256"
        }
      ],
      "name": "TransplantSuccessful",
      "type": "event"
    },
    {
      "inputs": [
        {
          "internalType": "uint256",
          "name": "_donorId",
          "type": "uint256"
        }
      ],
      "name": "approveDonor",
      "outputs": [],
      "stateMutability": "nonpayable",
      "type": "function"
    },
    {
      "inputs": [
        {
          "internalType": "uint256",
          "name": "_recipientId",
          "type": "uint256"
        }
      ],
      "name": "approveRecipient",
      "outputs": [],
      "stateMutability": "nonpayable",
      "type": "function"
    },
    {
      "inputs": [],
      "name": "donorCounter",
      "outputs": [
        {
          "internalType": "uint256",
          "name": "",
          "type": "uint256"
        }
      ],
      "stateMutability": "view",
      "type": "function"
    },
    {
      "inputs": [
        {
          "internalType": "uint256",
          "name": "",
          "type": "uint256"
        }
      ],
      "name": "donors",
      "outputs": [
        {
          "internalType": "uint256",
          "name": "id",
          "type": "uint256"
        },
        {
          "internalType": "string",
          "name": "name",
          "type": "string"
        },
        {
          "internalType": "string",
          "name": "gender",
          "type": "string"
        },
        {
          "internalType": "uint256",
          "name": "age",
          "type": "uint256"
        },
        {
          "components": [
            {
              "internalType": "string",
              "name": "bloodGroup",
              "type": "string"
            },
            {
              "internalType": "string",
              "name": "organ",
              "type": "string"
            },
            {
              "internalType": "string",
              "name": "ipfsHash",
              "type": "string"
            },
            {
              "internalType": "uint256",
              "name": "tissueType",
              "type": "uint256"
            },
            {
              "internalType": "uint256",
              "name": "hlaMatch",
              "type": "uint256"
            }
          ],
          "internalType": "struct OrganTransplant.MedicalInfo",
          "name": "medical",
          "type": "tuple"
        },
        {
          "internalType": "bool",
          "name": "isApproved",
          "type": "bool"
        },
        {
          "internalType": "bool",
          "name": "isAvailable",
          "type": "bool"
        }
      ],
      "stateMutability": "view",
      "type": "function"
    },
    {
      "inputs": [],
      "name": "hospitalCounter",
      "outputs": [
        {
          "internalType": "uint256",
          "name": "",
          "type": "uint256"
        }
      ],
      "stateMutability": "view",
      "type": "function"
    },
    {
      "inputs": [
        {
          "internalType": "uint256",
          "name": "",
          "type": "uint256"
        }
      ],
      "name": "hospitals",
      "outputs": [
        {
          "internalType": "uint256",
          "name": "id",
          "type": "uint256"
        },
        {
          "internalType": "string",
          "name": "name",
          "type": "string"
        }
      ],
      "stateMutability": "view",
      "type": "function"
    },
    {
      "inputs": [],
      "name": "matchRecipient",
      "outputs": [],
      "stateMutability": "nonpayable",
      "type": "function"
    },
    {
      "inputs": [],
      "name": "owner",
      "outputs": [
        {
          "internalType": "address",
          "name": "",
          "type": "address"
        }
      ],
      "stateMutability": "view",
      "type": "function"
    },
    {
      "inputs": [],
      "name": "recipientCounter",
      "outputs": [
        {
          "internalType": "uint256",
          "name": "",
          "type": "uint256"
        }
      ],
      "stateMutability": "view",
      "type": "function"
    },
    {
      "inputs": [
        {
          "internalType": "uint256",
          "name": "",
          "type": "uint256"
        }
      ],
      "name": "recipients",
      "outputs": [
        {
          "internalType": "uint256",
          "name": "id",
          "type": "uint256"
        },
        {
          "internalType": "string",
          "name": "name",
          "type": "string"
        },
        {
          "internalType": "string",
          "name": "gender",
          "type": "string"
        },
        {
          "internalType": "uint256",
          "name": "age",
          "type": "uint256"
        },
        {
          "components": [
            {
              "internalType": "string",
              "name": "bloodGroup",
              "type": "string"
            },
            {
              "internalType": "string",
              "name": "organ",
              "type": "string"
            },
            {
              "internalType": "string",
              "name": "ipfsHash",
              "type": "string"
            },
            {
              "internalType": "uint256",
              "name": "tissueType",
              "type": "uint256"
            },
            {
              "internalType": "uint256",
              "name": "hlaMatch",
              "type": "uint256"
            }
          ],
          "internalType": "struct OrganTransplant.MedicalInfo",
          "name": "medical",
          "type": "tuple"
        },
        {
          "internalType": "uint256",
          "name": "priority",
          "type": "uint256"
        },
        {
          "internalType": "bool",
          "name": "isApproved",
          "type": "bool"
        },
        {
          "internalType": "bool",
          "name": "isWaiting",
          "type": "bool"
        },
        {
          "internalType": "uint256",
          "name": "waitingTime",
          "type": "uint256"
        }
      ],
      "stateMutability": "view",
      "type": "function"
    },
    {
      "inputs": [
        {
          "internalType": "string",
          "name": "_name",
          "type": "string"
        },
        {
          "internalType": "string",
          "name": "_gender",
          "type": "string"
        },
        {
          "internalType": "uint256",
          "name": "_age",
          "type": "uint256"
        },
        {
          "internalType": "string",
          "name": "_bloodGroup",
          "type": "string"
        },
        {
          "internalType": "string",
          "name": "_organ",
          "type": "string"
        },
        {
          "internalType": "string",
          "name": "_ipfsHash",
          "type": "string"
        },
        {
          "internalType": "uint256",
          "name": "_tissueType",
          "type": "uint256"
        },
        {
          "internalType": "uint256",
          "name": "_hlaMatch",
          "type": "uint256"
        }
      ],
      "name": "registerDonor",
      "outputs": [],
      "stateMutability": "nonpayable",
      "type": "function"
    },
    {
      "inputs": [
        {
          "internalType": "string",
          "name": "_name",
          "type": "string"
        }
      ],
      "name": "registerHospital",
      "outputs": [],
      "stateMutability": "nonpayable",
      "type": "function"
    },
    {
      "inputs": [
        {
          "internalType": "string",
          "name": "_name",
          "type": "string"
        },
        {
          "internalType": "string",
          "name": "_gender",
          "type": "string"
        },
        {
          "internalType": "uint256",
          "name": "_age",
          "type": "uint256"
        },
        {
          "internalType": "string",
          "name": "_bloodGroup",
          "type": "string"
        },
        {
          "internalType": "string",
          "name": "_organ",
          "type": "string"
        },
        {
          "internalType": "string",
          "name": "_ipfsHash",
          "type": "string"
        },
        {
          "internalType": "uint256",
          "name": "_priority",
          "type": "uint256"
        },
        {
          "internalType": "uint256",
          "name": "_tissueType",
          "type": "uint256"
        },
        {
          "internalType": "uint256",
          "name": "_hlaMatch",
          "type": "uint256"
        }
      ],
      "name": "registerRecipient",
      "outputs": [],
      "stateMutability": "nonpayable",
      "type": "function"
    },
    {
      "inputs": [],
      "name": "renounceOwnership",
      "outputs": [],
      "stateMutability": "pure",
      "type": "function"
    },
    {
      "inputs": [
        {
          "internalType": "address",
          "name": "newOwner",
          "type": "address"
        }
      ],
      "name": "transferOwnership",
      "outputs": [],
      "stateMutability": "nonpayable",
      "type": "function"
    }
  ],
  "bytecode": "0x608060405234801561001057600080fd5b5061001a3361001f565b61006f565b600080546001600160a01b038381166001600160a01b0319831681178455604051919092169283917f8be0079c531659141344cd1fd0a4f28419497f9722a3daafe3b4186f6b6457e09190a35050565b6120ec8061007e6000396000f3fe608060405234801561001057600080fd5b50600436106100f55760003560e01c806381dc6fd211610097578063adb9252b11610066578063adb9252b146101d7578063beccaf1d146101e0578063d1bc76a1146101f3578063f2fde38b1461021b57600080fd5b806381dc6fd2146101755780638b20b4ab146101965780638da5cb5b146101a957806394ccb557146101c457600080fd5b80634abfa163116100d35780634abfa163146101335780634e0fa410146101595780637093341f14610162578063715018a61461010257600080fd5b80631bb7cda0146100fa57806327e4651e14610104578063486e3e3f14610120575b600080fd5b61010261022e565b005b61010d60065481565b6040519081526020015b60405180910390f35b61010261012e3660046119d3565b610262565b610146610141366004611ac2565b6105a7565b6040516101179796959493929190611b94565b61010d60045481565b610102610170366004611bf5565b6108cb565b610188610183366004611ac2565b610c2d565b604051610117929190611cee565b6101026101a4366004611d0f565b610cd1565b6000546040516001600160a01b039091168152602001610117565b6101026101d2366004611ac2565b610db5565b61010d60055481565b6101026101ee366004611ac2565b610eba565b610206610201366004611ac2565b610fbb565b60405161011799989796959493929190611d44565b610102610229366004611db6565b6112ee565b6000610238611364565b9050801561025f57600061024b82611409565b9050801561025d5761025d8183611487565b505b50565b60008851116102af5760405162461bcd60e51b81526020600482015260146024820152734e616d652063616e6e6f7420626520656d70747960601b60448201526064015b60405180910390fd5b600086116102ff5760405162461bcd60e51b815260206004820152601d60248201527f416765206d7573742062652067726561746572207468616e207a65726f00000060448201526064016102a6565b610308856114ea565b61034a5760405162461bcd60e51b81526020600482015260136024820152720496e76616c696420626c6f6f642067726f757606c1b60448201526064016102a6565b61035384611658565b6103945760405162461bcd60e51b8152602060048201526012602482015271496e76616c6964206f7267616e207479706560701b60448201526064016102a6565b60008351116103e15760405162461bcd60e51b81526020600482015260196024820152784950465320686173682063616e6e6f7420626520656d70747960381b60448201526064016102a6565b600082116104015760405162461bcd60e51b81526004016102a690611de6565b600081116104215760405162461bcd60e51b81526004016102a690611e2b565b6005805490600061043183611e84565b90915550506040805160e08101825260055480825260208083018c81528385018c905260608085018c9052855160a080820188528c82528185018c90528188018b905291810189905260808181018990528601526000908501819052600160c086018190529381526002909252939020825181559251919291908201906104b89082611f28565b50604082015160028201906104cd9082611f28565b506060820151600382015560808201518051600483019081906104f09082611f28565b50602082015160018201906105059082611f28565b506040820151600282019061051a9082611f28565b506060820151600382015560809091015160049091015560a08201516009909101805460c09093015115156101000261ff00199215159290921661ffff19909316929092171790556005546040517f1bdcce1ea9671bb80abfa7dd6df7db3c66d992217b7128a264aacaa9c663772890610595908b90611fe8565b60405180910390a25050505050505050565b600260205260009081526040902080546001820180549192916105c990611e9d565b80601f01602080910402602001604051908101604052809291908181526020018280546105f590611e9d565b80156106425780601f1061061757610100808354040283529160200191610642565b820191906000526020600020905b81548152906001019060200180831161062557829003601f168201915b50505050509080600201805461065790611e9d565b80601f016020809104026020016040519081016040528092919081815260200182805461068390611e9d565b80156106d05780601f106106a5576101008083540402835291602001916106d0565b820191906000526020600020905b8154815290600101906020018083116106b357829003601f168201915b505050505090806003015490806004016040518060a00160405290816000820180546106fb90611e9d565b80601f016020809104026020016040519081016040528092919081815260200182805461072790611e9d565b80156107745780601f1061074957610100808354040283529160200191610774565b820191906000526020600020905b81548152906001019060200180831161075757829003601f168201915b5050505050815260200160018201805461078d90611e9d565b80601f01602080910402602001604051908101604052809291908181526020018280546107b990611e9d565b80156108065780601f106107db57610100808354040283529160200191610806565b820191906000526020600020905b8154815290600101906020018083116107e957829003601f168201915b5050505050815260200160028201805461081f90611e9d565b80601f016020809104026020016040519081016040528092919081815260200182805461084b90611e9d565b80156108985780601f1061086d57610100808354040283529160200191610898565b820191906000526020600020905b81548152906001019060200180831161087b57829003601f168201915b50505091835250506003820154602082015260049091015460409091015260099091015460ff8082169161010090041687565b60008951116109135760405162461bcd60e51b81526020600482015260146024820152734e616d652063616e6e6f7420626520656d70747960601b60448201526064016102a6565b600087116109635760405162461bcd60e51b815260206004820152601d60248201527f416765206d7573742062652067726561746572207468616e207a65726f00000060448201526064016102a6565b61096c866114ea565b6109ae5760405162461bcd60e51b81526020600482015260136024820152720496e76616c696420626c6f6f642067726f757606c1b60448201526064016102a6565b6109b785611658565b6109f85760405162461bcd60e51b8152602060048201526012602482015271496e76616c6964206f7267616e207479706560701b60448201526064016102a6565b6000845111610a455760405162461bcd60e51b81526020600482015260196024820152784950465320686173682063616e6e6f7420626520656d70747960381b60448201526064016102a6565b60008211610a655760405162461bcd60e51b81526004016102a690611de6565b60008111610a855760405162461bcd60e51b81526004016102a690611e2b565b60068054906000610a9583611e84565b9091555050604080516101208101825260065480825260208083018d81528385018d905260608085018d9052855160a080820188528d82528185018d90528188018c905291810189905260808181018990528601528401889052600060c08501819052600160e0860181905242610100870152938152600390925293902082518155925191929190820190610b2a9082611f28565b5060408201516002820190610b3f9082611f28565b50606082015160038201556080820151805160048301908190610b629082611f28565b5060208201516001820190610b779082611f28565b5060408201516002820190610b8c9082611f28565b506060820151600382015560809091015160049091015560a0820151600982015560c0820151600a8201805460e085015161ffff1990911692151561ff00191692909217610100921515830217905590910151600b909101556006546040517f567b6b63fe94c38a8b4f8bac32a2475fc1f02bd252aad58993d10731c040941290610c18908c90611fe8565b60405180910390a2505050505050505050565b565b600160208190526000918252604090912080549181018054610c4e90611e9d565b80601f0160208091040260200160405190810160405280929190818152602001828054610c7a90611e9d565b8015610cc75780601f10610c9c57610100808354040283529160200191610cc7565b820191906000526020600020905b815481529060010190602001808311610caa57829003601f168201915b5050505050905082565b6000815111610d225760405162461bcd60e51b815260206004820152601d60248201527f486f73706974616c206e616d652063616e6e6f7420626520656d70747900000060448201526064016102a6565b60048054906000610d3283611e84565b9091555050604080518082018252600454808252602080830185815260009283526001918290529390912082518155925191929190820190610d749082611f28565b509050506004547fcc7aa9884933f6bb8f441e3a3f26185d3618429a0232c80530a165a95289f62d82604051610daa9190611fe8565b60405180910390a250565b610dbd6117a4565b600081118015610dcf57506006548111155b610e125760405162461bcd60e51b8152602060048201526014602482015273125b9d985b1a59081c9958da5c1a595b9d08125160621b60448201526064016102a6565b6000818152600360205260409020600a015460ff1615610e745760405162461bcd60e51b815260206004820152601d60248201527f526563697069656e7420697320616c726561647920617070726f76656400000060448201526064016102a6565b600081815260036020526040808220600a01805460ff191660011790555182917fa16da998795bdc5a45b877147afc2e6faea582d4107e83c961f7fcc9f9b2696c91a250565b610ec26117a4565b600081118015610ed457506005548111155b610f135760405162461bcd60e51b815260206004820152601060248201526f125b9d985b1a5908191bdb9bdc88125160821b60448201526064016102a6565b60008181526002602052604090206009015460ff1615610f755760405162461bcd60e51b815260206004820152601960248201527f446f6e6f7220697320616c726561647920617070726f7665640000000000000060448201526064016102a6565b600081815260026020526040808220600901805460ff191660011790555182917f6bd90546ecf8ef79855bedeb8fb87039b675e849eeaec00c469ae23247ee076091a250565b60036020526000908152604090208054600182018054919291610fdd90611e9d565b80601f016020809104026020016040519081016040528092919081815260200182805461100990611e9d565b80156110565780601f1061102b57610100808354040283529160200191611056565b820191906000526020600020905b81548152906001019060200180831161103957829003601f168201915b50505050509080600201805461106b90611e9d565b80601f016020809104026020016040519081016040528092919081815260200182805461109790611e9d565b80156110e45780601f106110b9576101008083540402835291602001916110e4565b820191906000526020600020905b8154815290600101906020018083116110c757829003601f168201915b505050505090806003015490806004016040518060a001604052908160008201805461110f90611e9d565b80601f016020809104026020016040519081016040528092919081815260200182805461113b90611e9d565b80156111885780601f1061115d57610100808354040283529160200191611188565b820191906000526020600020905b81548152906001019060200180831161116b57829003601f168201915b505050505081526020016001820180546111a190611e9d565b80601f01602080910402602001604051908101604052809291908181526020018280546111cd90611e9d565b801561121a5780601f106111ef5761010080835404028352916020019161121a565b820191906000526020600020905b8154815290600101906020018083116111fd57829003601f168201915b5050505050815260200160028201805461123390611e9d565b80601f016020809104026020016040519081016040528092919081815260200182805461125f90611e9d565b80156112ac5780601f10611281576101008083540402835291602001916112ac565b820191906000526020600020905b81548152906001019060200180831161128f57829003601f168201915b5050509183525050600382015460208201526004909101546040909101526009820154600a830154600b909301549192909160ff808316926101009004169089565b6112f66117a4565b6001600160a01b03811661135b5760405162461bcd60e51b815260206004820152602660248201527f4f776e61626c653a206e6577206f776e657220697320746865207a65726f206160448201526564647265737360d01b60648201526084016102a6565b61025f816117fe565b600080808060015b6006548111611400576000818152600360205260409020600a81015460ff1680156113a05750600a810154610100900460ff165b156113ed57600081600b0154426113b79190611ffb565b905084826009015411806113d857508482600901541480156113d857508381115b156113eb57816009015494508093508295505b505b50806113f881611e84565b91505061136c565b50919392505050565b600081815260036020526040812060015b600554811161147d576000818152600260205260409020600981015460ff16801561144e57506009810154610100900460ff165b1561146a5761145d818461184e565b1561146a57509392505050565b508061147581611e84565b91505061141a565b5060009392505050565b6000828152600260209081526040808320600901805461ff00199081169091558484526003909252808320600a01805490921690915551829184917fc74789b9a7d62d49fbc50a0326639988ec2d94a2956645f7749a5a144d4c6fcf9190a35050565b60408051610140810182526002610100820181815261412b60f01b61012084015282528251808401845281815261412d60f01b602082810191909152808401919091528351808501855282815261422b60f01b81830152838501528351808501855282815261422d60f01b81830152606084015283518085018552828152614f2b60f01b81830152608084015283518085018552918252614f2d60f01b8282015260a08301919091528251808401845260038082526241422b60e81b8284015260c0840191909152835180850190945283526241422d60e81b9083015260e0810191909152600090815b600881101561147d578181600881106115ef576115ef61200e565b60200201516040516020016116049190612024565b604051602081830303815290604052805190602001208460405160200161162b9190612024565b6040516020818303038152906040528051906020012003611650575060019392505050565b6001016115d4565b6040805161010081018252600560c08201818152641219585c9d60da1b60e08401528252825180840184526004808252634c756e6760e01b6020838101919091528085019290925284518086018652928352642634bb32b960d91b83830152838501929092528351808501855260068152654b69646e657960d01b81830152606084015283518085018552600881526750616e637265617360c01b8183015260808401528351808501909452908352634579657360e01b9083015260a0810191909152600090815b600681101561147d5781816006811061173b5761173b61200e565b60200201516040516020016117509190612024565b60405160208183030381529060405280519060200120846040516020016117779190612024565b604051602081830303815290604052805190602001200361179c575060019392505050565b600101611720565b6000546001600160a01b03163314610c2b5760405162461bcd60e51b815260206004820181905260248201527f4f776e61626c653a2063616c6c6572206973206e6f7420746865206f776e657260448201526064016102a6565b600080546001600160a01b038381166001600160a01b0319831681178455604051919092169283917f8be0079c531659141344cd1fd0a4f28419497f9722a3daafe3b4186f6b6457e09190a35050565b604051600090611865906005840190602001612040565b60408051601f198184030181529082905280516020918201209161188e91600587019101612040565b6040516020818303038152906040528051906020012014801561190157506040516118c0906004840190602001612040565b60408051601f19818403018152908290528051602091820120916118e991600487019101612040565b60405160208183030381529060405280519060200120145b8015611914575060078083015490840154145b8015611927575060088083015490840154145b90505b92915050565b634e487b7160e01b600052604160045260246000fd5b600082601f83011261195757600080fd5b813567ffffffffffffffff8082111561197257611972611930565b604051601f8301601f19908116603f0116810190828211818310171561199a5761199a611930565b816040528381528660208588010111156119b357600080fd5b836020870160208301376000602085830101528094505050505092915050565b600080600080600080600080610100898b0312156119f057600080fd5b883567ffffffffffffffff80821115611a0857600080fd5b611a148c838d01611946565b995060208b0135915080821115611a2a57600080fd5b611a368c838d01611946565b985060408b0135975060608b0135915080821115611a5357600080fd5b611a5f8c838d01611946565b965060808b0135915080821115611a7557600080fd5b611a818c838d01611946565b955060a08b0135915080821115611a9757600080fd5b50611aa48b828c01611946565b93505060c0890135915060e089013590509295985092959890939650565b600060208284031215611ad457600080fd5b5035919050565b60005b83811015611af6578181015183820152602001611ade565b50506000910152565b60008151808452611b17816020860160208601611adb565b601f01601f19169290920160200192915050565b6000815160a08452611b4060a0850182611aff565b905060208301518482036020860152611b598282611aff565b91505060408301518482036040860152611b738282611aff565b91505060608301516060850152608083015160808501528091505092915050565b87815260e060208201526000611bad60e0830189611aff565b8281036040840152611bbf8189611aff565b90508660608401528281036080840152611bd98187611b2b565b94151560a0840152505090151560c09091015295945050505050565b60008060008060008060008060006101208a8c031215611c1457600080fd5b893567ffffffffffffffff80821115611c2c57600080fd5b611c388d838e01611946565b9a5060208c0135915080821115611c4e57600080fd5b611c5a8d838e01611946565b995060408c0135985060608c0135915080821115611c7757600080fd5b611c838d838e01611946565b975060808c0135915080821115611c9957600080fd5b611ca58d838e01611946565b965060a08c0135915080821115611cbb57600080fd5b50611cc88c828d01611946565b94505060c08a0135925060e08a013591506101008a013590509295985092959850929598565b828152604060208201526000611d076040830184611aff565b949350505050565b600060208284031215611d2157600080fd5b813567ffffffffffffffff811115611d3857600080fd5b611d0784828501611946565b60006101208b8352806020840152611d5e8184018c611aff565b90508281036040840152611d72818b611aff565b90508860608401528281036080840152611d8c8189611b2b565b60a0840197909752505092151560c084015290151560e08301526101009091015295945050505050565b600060208284031215611dc857600080fd5b81356001600160a01b0381168114611ddf57600080fd5b9392505050565b60208082526025908201527f5469737375652074797065206d7573742062652067726561746572207468616e604082015264207a65726f60d81b606082015260800190565b60208082526023908201527f484c41206d61746368206d7573742062652067726561746572207468616e207a60408201526265726f60e81b606082015260800190565b634e487b7160e01b600052601160045260246000fd5b600060018201611e9657611e96611e6e565b5060010190565b600181811c90821680611eb157607f821691505b602082108103611ed157634e487b7160e01b600052602260045260246000fd5b50919050565b601f821115611f23576000816000526020600020601f850160051c81016020861015611f005750805b601f850160051c820191505b81811015611f1f57828155600101611f0c565b5050505b505050565b815167ffffffffffffffff811115611f4257611f42611930565b611f5681611f508454611e9d565b84611ed7565b602080601f831160018114611f8b5760008415611f735750858301515b600019600386901b1c1916600185901b178555611f1f565b600085815260208120601f198616915b82811015611fba57888601518255948401946001909101908401611f9b565b5085821015611fd85787850151600019600388901b60f8161c191681555b5050505050600190811b01905550565b6020815260006119276020830184611aff565b8181038181111561192a5761192a611e6e565b634e487b7160e01b600052603260045260246000fd5b60008251612036818460208701611adb565b9190910192915050565b600080835461204e81611e9d565b60018281168015612066576001811461207b576120aa565b60ff19841687528215158302870194506120aa565b8760005260208060002060005b858110156120a15781548a820152908401908201612088565b50505082870194505b5092969550505050505056fea2646970667358221220983f3383fbada19026d3cf5c1ec604dd7ca8f3bce11f506366b030f52a38ba9a64736f6c63430008170033",
  "linkReferences": {},
  "deployedLinkReferences": {}
}